{
	"data": {
		"bytecode": {
			"linkReferences": {},
			"object": "60806040523480156200001157600080fd5b5060005b600360ff168160ff161015620000b95760005b600360ff168160ff161015620000a2576000808360ff1660038110620000535762000052620000f8565b5b018260ff16600381106200006c576200006b620000f8565b5b602091828204019190066101000a81548160ff021916908360ff1602179055508080620000999062000163565b91505062000028565b508080620000b09062000163565b91505062000015565b506001600360006101000a81548160ff021916908360ff1602179055506000600360026101000a81548160ff021916908360ff16021790555062000191565b7f4e487b7100000000000000000000000000000000000000000000000000000000600052603260045260246000fd5b7f4e487b7100000000000000000000000000000000000000000000000000000000600052601160045260246000fd5b600060ff82169050919050565b6000620001708262000156565b915060ff820362000186576200018562000127565b5b600182019050919050565b61180380620001a16000396000f3fe60806040526004361061004a5760003560e01c80633264a34b1461004f578063654b878d1461007a578063701bd985146100a5578063d65ab5f2146100c1578063e802c36f146100d8575b600080fd5b34801561005b57600080fd5b50610064610101565b60405161007191906112b9565b60405180910390f35b34801561008657600080fd5b5061008f6101a7565b60405161009c91906112ee565b60405180910390f35b6100bf60048036038101906100ba919061133a565b6101c1565b005b3480156100cd57600080fd5b506100d66104ec565b005b3480156100e457600080fd5b506100ff60048036038101906100fa919061133a565b610588565b005b610109611116565b6000600380602002604051908101604052809291906000905b8282101561019e5783820160038060200260405190810160405280929190826003801561018a576020028201916000905b82829054906101000a900460ff1660ff16815260200190600101906020826000010492830192600103820291508084116101535790505b505050505081526020019060010190610122565b50505050905090565b6000600360029054906101000a900460ff1660ff16905090565b6000600360029054906101000a900460ff1660ff1614610216576040517f08c379a000000000000000000000000000000000000000000000000000000000815260040161020d906113d7565b60405180910390fd5b60008260ff16101580156102305750600360ff168260ff16105b61026f576040517f08c379a000000000000000000000000000000000000000000000000000000000815260040161026690611443565b60405180910390fd5b60008160ff16101580156102895750600360ff168160ff16105b6102c8576040517f08c379a00000000000000000000000000000000000000000000000000000000081526004016102bf906114af565b60405180910390fd5b6000808360ff16600381106102e0576102df6114cf565b5b018260ff16600381106102f6576102f56114cf565b5b602091828204019190069054906101000a900460ff1660ff161461034f576040517f08c379a00000000000000000000000000000000000000000000000000000000081526004016103469061154a565b60405180910390fd5b600360019054906101000a900460ff1660ff16600360009054906101000a900460ff1660ff16146103b5576040517f08c379a00000000000000000000000000000000000000000000000000000000081526004016103ac906115dc565b60405180910390fd5b60038054906101000a900460ff1660ff163414610407576040517f08c379a00000000000000000000000000000000000000000000000000000000081526004016103fe90611648565b60405180910390fd5b600360009054906101000a900460ff1660008360ff166003811061042e5761042d6114cf565b5b018260ff1660038110610444576104436114cf565b5b602091828204019190066101000a81548160ff021916908360ff1602179055506001600360019054906101000a900460ff1660ff1614610485576001610488565b60025b600360016101000a81548160ff021916908360ff1602179055506001600360009054906101000a900460ff1660ff16146104c35760016104c6565b60025b600360006101000a81548160ff021916908360ff1602179055506104e8610d73565b5050565b60005b600360ff168160ff1610156105855760005b600360ff168160ff161015610571576000808360ff1660038110610528576105276114cf565b5b018260ff166003811061053e5761053d6114cf565b5b602091828204019190066101000a81548160ff021916908360ff160217905550808061056990611697565b915050610501565b50808061057d90611697565b9150506104ef565b50565b6000808360ff16600381106105a05761059f6114cf565b5b018260ff16600381106105b6576105b56114cf565b5b602091828204019190069054906101000a900460ff1660ff161461060f576040517f08c379a00000000000000000000000000000000000000000000000000000000081526004016106069061170c565b60405180910390fd5b6000600360029054906101000a900460ff1660ff1614610664576040517f08c379a000000000000000000000000000000000000000000000000000000000815260040161065b90611778565b60405180910390fd5b600360009054906101000a900460ff1660008360ff166003811061068b5761068a6114cf565b5b018260ff16600381106106a1576106a06114cf565b5b602091828204019190066101000a81548160ff021916908360ff1602179055506001600360009054906101000a900460ff1660ff16146106e25760016106e5565b60025b600360006101000a81548160ff021916908360ff16021790555060005b600360ff168160ff1610156108bd5760008160ff1660038110610728576107276114cf565b5b0160016003811061073c5761073b6114cf565b5b602091828204019190069054906101000a900460ff1660ff1660008260ff166003811061076c5761076b6114cf565b5b016000600381106107805761077f6114cf565b5b602091828204019190069054906101000a900460ff1660ff1614801561082b575060008160ff16600381106107b8576107b76114cf565b5b016002600381106107cc576107cb6114cf565b5b602091828204019190069054906101000a900460ff1660ff1660008260ff16600381106107fc576107fb6114cf565b5b016001600381106108105761080f6114cf565b5b602091828204019190069054906101000a900460ff1660ff16145b801561087a57506000808260ff166003811061084a576108496114cf565b5b0160026003811061085e5761085d6114cf565b5b602091828204019190069054906101000a900460ff1660ff1614155b156108aa57600360009054906101000a900460ff16600360026101000a81548160ff021916908360ff1602179055505b80806108b590611697565b915050610702565b5060005b600360ff168160ff161015610a7b5760006001600381106108e5576108e46114cf565b5b018160ff16600381106108fb576108fa6114cf565b5b602091828204019190069054906101000a900460ff1660ff1660008060038110610928576109276114cf565b5b018260ff166003811061093e5761093d6114cf565b5b602091828204019190069054906101000a900460ff1660ff161480156109e957506000600260038110610974576109736114cf565b5b018160ff166003811061098a576109896114cf565b5b602091828204019190069054906101000a900460ff1660ff1660006001600381106109b8576109b76114cf565b5b018260ff16600381106109ce576109cd6114cf565b5b602091828204019190069054906101000a900460ff1660ff16145b8015610a385750600080600260038110610a0657610a056114cf565b5b018260ff1660038110610a1c57610a1b6114cf565b5b602091828204019190069054906101000a900460ff1660ff1614155b15610a6857600360009054906101000a900460ff16600360026101000a81548160ff021916908360ff1602179055505b8080610a7390611697565b9150506108c1565b506000600160038110610a9157610a906114cf565b5b01600160038110610aa557610aa46114cf565b5b602091828204019190069054906101000a900460ff1660ff1660008060038110610ad257610ad16114cf565b5b01600060038110610ae657610ae56114cf565b5b602091828204019190069054906101000a900460ff1660ff16148015610b8d57506000600260038110610b1c57610b1b6114cf565b5b01600260038110610b3057610b2f6114cf565b5b602091828204019190069054906101000a900460ff1660ff166000600160038110610b5e57610b5d6114cf565b5b01600160038110610b7257610b716114cf565b5b602091828204019190069054906101000a900460ff1660ff16145b8015610bda5750600080600260038110610baa57610ba96114cf565b5b01600260038110610bbe57610bbd6114cf565b5b602091828204019190069054906101000a900460ff1660ff1614155b80610d3f57506000600160038110610bf557610bf46114cf565b5b01600160038110610c0957610c086114cf565b5b602091828204019190069054906101000a900460ff1660ff1660008060038110610c3657610c356114cf565b5b01600260038110610c4a57610c496114cf565b5b602091828204019190069054906101000a900460ff1660ff16148015610cf157506000600260038110610c8057610c7f6114cf565b5b01600060038110610c9457610c936114cf565b5b602091828204019190069054906101000a900460ff1660ff166000600160038110610cc257610cc16114cf565b5b01600160038110610cd657610cd56114cf565b5b602091828204019190069054906101000a900460ff1660ff16145b8015610d3e5750600080600260038110610d0e57610d0d6114cf565b5b01600060038110610d2257610d216114cf565b5b602091828204019190069054906101000a900460ff1660ff1614155b5b15610d6f57600360009054906101000a900460ff16600360026101000a81548160ff021916908360ff1602179055505b5050565b60006003905060005b600360ff168160ff161015610e6b576000805b600360ff168160ff161015610e1e57600360009054906101000a900460ff1660ff1660008460ff1660038110610dc857610dc76114cf565b5b018260ff1660038110610dde57610ddd6114cf565b5b602091828204019190069054906101000a900460ff1660ff1603610e0b578180610e0790611697565b9250505b8080610e1690611697565b915050610d8f565b508260ff168160ff1603610e5757600360009054906101000a900460ff16600360026101000a81548160ff021916908360ff1602179055505b508080610e6390611697565b915050610d7c565b5060005b600360ff168160ff161015610f5e576000805b600360ff168160ff161015610f1157600360009054906101000a900460ff1660ff1660008260ff1660038110610ebb57610eba6114cf565b5b018460ff1660038110610ed157610ed06114cf565b5b602091828204019190069054906101000a900460ff1660ff1603610efe578180610efa90611697565b9250505b8080610f0990611697565b915050610e82565b508260ff168160ff1603610f4a57600360009054906101000a900460ff16600360026101000a81548160ff021916908360ff1602179055505b508080610f5690611697565b915050610e6f565b506000805b600360ff168160ff161015610ff257600360009054906101000a900460ff1660ff1660008260ff1660038110610f9c57610f9b6114cf565b5b018260ff1660038110610fb257610fb16114cf565b5b602091828204019190069054906101000a900460ff1660ff1603610fdf578180610fdb90611697565b9250505b8080610fea90611697565b915050610f63565b508160ff168160ff160361102b57600360009054906101000a900460ff16600360026101000a81548160ff021916908360ff1602179055505b6000905060005b600360ff168160ff1610156110d957600360009054906101000a900460ff1660ff1660008260ff166003811061106b5761106a6114cf565b5b01600183600361107b9190611798565b6110859190611798565b60ff1660038110611099576110986114cf565b5b602091828204019190069054906101000a900460ff1660ff16036110c65781806110c290611697565b9250505b80806110d190611697565b915050611032565b508160ff168160ff160361111257600360009054906101000a900460ff16600360026101000a81548160ff021916908360ff1602179055505b5050565b60405180606001604052806003905b61112d611143565b8152602001906001900390816111255790505090565b6040518060600160405280600390602082028036833780820191505090505090565b600060039050919050565b600081905092915050565b6000819050919050565b600060039050919050565b600081905092915050565b6000819050919050565b600060ff82169050919050565b6111bb816111a5565b82525050565b60006111cd83836111b2565b60208301905092915050565b6000602082019050919050565b6111ef81611185565b6111f98184611190565b92506112048261119b565b8060005b8381101561123557815161121c87826111c1565b9650611227836111d9565b925050600181019050611208565b505050505050565b600061124983836111e6565b60608301905092915050565b6000602082019050919050565b61126b81611165565b6112758184611170565b92506112808261117b565b8060005b838110156112b1578151611298878261123d565b96506112a383611255565b925050600181019050611284565b505050505050565b6000610120820190506112cf6000830184611262565b92915050565b6000819050919050565b6112e8816112d5565b82525050565b600060208201905061130360008301846112df565b92915050565b600080fd5b611317816111a5565b811461132257600080fd5b50565b6000813590506113348161130e565b92915050565b6000806040838503121561135157611350611309565b5b600061135f85828601611325565b925050602061137085828601611325565b9150509250929050565b600082825260208201905092915050565b7f4f79756e2062697474692e000000000000000000000000000000000000000000600082015250565b60006113c1600b8361137a565b91506113cc8261138b565b602082019050919050565b600060208201905081810360008301526113f0816113b4565b9050919050565b7f5820706f7a6973796f6e7520676563657273697a2e0000000000000000000000600082015250565b600061142d60158361137a565b9150611438826113f7565b602082019050919050565b6000602082019050818103600083015261145c81611420565b9050919050565b7f5920706f7a6973796f6e7520676563657273697a2e0000000000000000000000600082015250565b600061149960158361137a565b91506114a482611463565b602082019050919050565b600060208201905081810360008301526114c88161148c565b9050919050565b7f4e487b7100000000000000000000000000000000000000000000000000000000600052603260045260246000fd5b7f4275206b61726520646f6c752e00000000000000000000000000000000000000600082015250565b6000611534600d8361137a565b915061153f826114fe565b602082019050919050565b6000602082019050818103600083015261156381611527565b9050919050565b7f4275207369726164616b69206f79756e63752073697a20646567696c73696e6960008201527f7a2e000000000000000000000000000000000000000000000000000000000000602082015250565b60006115c660228361137a565b91506115d18261156a565b604082019050919050565b600060208201905081810360008301526115f5816115b9565b9050919050565b7f59657465726c69206f64656d6520796170696c6d616d69732e00000000000000600082015250565b600061163260198361137a565b915061163d826115fc565b602082019050919050565b6000602082019050818103600083015261166181611625565b9050919050565b7f4e487b7100000000000000000000000000000000000000000000000000000000600052601160045260246000fd5b60006116a2826111a5565b915060ff82036116b5576116b4611668565b5b600182019050919050565b7f427520616c616e207a6174656e20646f6c750000000000000000000000000000600082015250565b60006116f660128361137a565b9150611701826116c0565b602082019050919050565b60006020820190508181036000830152611725816116e9565b9050919050565b7f4f79756e207a6174656e20626974746900000000000000000000000000000000600082015250565b600061176260108361137a565b915061176d8261172c565b602082019050919050565b6000602082019050818103600083015261179181611755565b9050919050565b60006117a3826111a5565b91506117ae836111a5565b9250828203905060ff8111156117c7576117c6611668565b5b9291505056fea264697066735822122099da8d64ac053fb0738b5cbeed4474892689515c92fcbfef238faba514e0cad164736f6c63430008110033",
			"opcodes": "PUSH1 0x80 PUSH1 0x40 MSTORE CALLVALUE DUP1 ISZERO PUSH3 0x11 JUMPI PUSH1 0x0 DUP1 REVERT JUMPDEST POP PUSH1 0x0 JUMPDEST PUSH1 0x3 PUSH1 0xFF AND DUP2 PUSH1 0xFF AND LT ISZERO PUSH3 0xB9 JUMPI PUSH1 0x0 JUMPDEST PUSH1 0x3 PUSH1 0xFF AND DUP2 PUSH1 0xFF AND LT ISZERO PUSH3 0xA2 JUMPI PUSH1 0x0 DUP1 DUP4 PUSH1 0xFF AND PUSH1 0x3 DUP2 LT PUSH3 0x53 JUMPI PUSH3 0x52 PUSH3 0xF8 JUMP JUMPDEST JUMPDEST ADD DUP3 PUSH1 0xFF AND PUSH1 0x3 DUP2 LT PUSH3 0x6C JUMPI PUSH3 0x6B PUSH3 0xF8 JUMP JUMPDEST JUMPDEST PUSH1 0x20 SWAP2 DUP3 DUP3 DIV ADD SWAP2 SWAP1 MOD PUSH2 0x100 EXP DUP2 SLOAD DUP2 PUSH1 0xFF MUL NOT AND SWAP1 DUP4 PUSH1 0xFF AND MUL OR SWAP1 SSTORE POP DUP1 DUP1 PUSH3 0x99 SWAP1 PUSH3 0x163 JUMP JUMPDEST SWAP2 POP POP PUSH3 0x28 JUMP JUMPDEST POP DUP1 DUP1 PUSH3 0xB0 SWAP1 PUSH3 0x163 JUMP JUMPDEST SWAP2 POP POP PUSH3 0x15 JUMP JUMPDEST POP PUSH1 0x1 PUSH1 0x3 PUSH1 0x0 PUSH2 0x100 EXP DUP2 SLOAD DUP2 PUSH1 0xFF MUL NOT AND SWAP1 DUP4 PUSH1 0xFF AND MUL OR SWAP1 SSTORE POP PUSH1 0x0 PUSH1 0x3 PUSH1 0x2 PUSH2 0x100 EXP DUP2 SLOAD DUP2 PUSH1 0xFF MUL NOT AND SWAP1 DUP4 PUSH1 0xFF AND MUL OR SWAP1 SSTORE POP PUSH3 0x191 JUMP JUMPDEST PUSH32 0x4E487B7100000000000000000000000000000000000000000000000000000000 PUSH1 0x0 MSTORE PUSH1 0x32 PUSH1 0x4 MSTORE PUSH1 0x24 PUSH1 0x0 REVERT JUMPDEST PUSH32 0x4E487B7100000000000000000000000000000000000000000000000000000000 PUSH1 0x0 MSTORE PUSH1 0x11 PUSH1 0x4 MSTORE PUSH1 0x24 PUSH1 0x0 REVERT JUMPDEST PUSH1 0x0 PUSH1 0xFF DUP3 AND SWAP1 POP SWAP2 SWAP1 POP JUMP JUMPDEST PUSH1 0x0 PUSH3 0x170 DUP3 PUSH3 0x156 JUMP JUMPDEST SWAP2 POP PUSH1 0xFF DUP3 SUB PUSH3 0x186 JUMPI PUSH3 0x185 PUSH3 0x127 JUMP JUMPDEST JUMPDEST PUSH1 0x1 DUP3 ADD SWAP1 POP SWAP2 SWAP1 POP JUMP JUMPDEST PUSH2 0x1803 DUP1 PUSH3 0x1A1 PUSH1 0x0 CODECOPY PUSH1 0x0 RETURN INVALID PUSH1 0x80 PUSH1 0x40 MSTORE PUSH1 0x4 CALLDATASIZE LT PUSH2 0x4A JUMPI PUSH1 0x0 CALLDATALOAD PUSH1 0xE0 SHR DUP1 PUSH4 0x3264A34B EQ PUSH2 0x4F JUMPI DUP1 PUSH4 0x654B878D EQ PUSH2 0x7A JUMPI DUP1 PUSH4 0x701BD985 EQ PUSH2 0xA5 JUMPI DUP1 PUSH4 0xD65AB5F2 EQ PUSH2 0xC1 JUMPI DUP1 PUSH4 0xE802C36F EQ PUSH2 0xD8 JUMPI JUMPDEST PUSH1 0x0 DUP1 REVERT JUMPDEST CALLVALUE DUP1 ISZERO PUSH2 0x5B JUMPI PUSH1 0x0 DUP1 REVERT JUMPDEST POP PUSH2 0x64 PUSH2 0x101 JUMP JUMPDEST PUSH1 0x40 MLOAD PUSH2 0x71 SWAP2 SWAP1 PUSH2 0x12B9 JUMP JUMPDEST PUSH1 0x40 MLOAD DUP1 SWAP2 SUB SWAP1 RETURN JUMPDEST CALLVALUE DUP1 ISZERO PUSH2 0x86 JUMPI PUSH1 0x0 DUP1 REVERT JUMPDEST POP PUSH2 0x8F PUSH2 0x1A7 JUMP JUMPDEST PUSH1 0x40 MLOAD PUSH2 0x9C SWAP2 SWAP1 PUSH2 0x12EE JUMP JUMPDEST PUSH1 0x40 MLOAD DUP1 SWAP2 SUB SWAP1 RETURN JUMPDEST PUSH2 0xBF PUSH1 0x4 DUP1 CALLDATASIZE SUB DUP2 ADD SWAP1 PUSH2 0xBA SWAP2 SWAP1 PUSH2 0x133A JUMP JUMPDEST PUSH2 0x1C1 JUMP JUMPDEST STOP JUMPDEST CALLVALUE DUP1 ISZERO PUSH2 0xCD JUMPI PUSH1 0x0 DUP1 REVERT JUMPDEST POP PUSH2 0xD6 PUSH2 0x4EC JUMP JUMPDEST STOP JUMPDEST CALLVALUE DUP1 ISZERO PUSH2 0xE4 JUMPI PUSH1 0x0 DUP1 REVERT JUMPDEST POP PUSH2 0xFF PUSH1 0x4 DUP1 CALLDATASIZE SUB DUP2 ADD SWAP1 PUSH2 0xFA SWAP2 SWAP1 PUSH2 0x133A JUMP JUMPDEST PUSH2 0x588 JUMP JUMPDEST STOP JUMPDEST PUSH2 0x109 PUSH2 0x1116 JUMP JUMPDEST PUSH1 0x0 PUSH1 0x3 DUP1 PUSH1 0x20 MUL PUSH1 0x40 MLOAD SWAP1 DUP2 ADD PUSH1 0x40 MSTORE DUP1 SWAP3 SWAP2 SWAP1 PUSH1 0x0 SWAP1 JUMPDEST DUP3 DUP3 LT ISZERO PUSH2 0x19E JUMPI DUP4 DUP3 ADD PUSH1 0x3 DUP1 PUSH1 0x20 MUL PUSH1 0x40 MLOAD SWAP1 DUP2 ADD PUSH1 0x40 MSTORE DUP1 SWAP3 SWAP2 SWAP1 DUP3 PUSH1 0x3 DUP1 ISZERO PUSH2 0x18A JUMPI PUSH1 0x20 MUL DUP3 ADD SWAP2 PUSH1 0x0 SWAP1 JUMPDEST DUP3 DUP3 SWAP1 SLOAD SWAP1 PUSH2 0x100 EXP SWAP1 DIV PUSH1 0xFF AND PUSH1 0xFF AND DUP2 MSTORE PUSH1 0x20 ADD SWAP1 PUSH1 0x1 ADD SWAP1 PUSH1 0x20 DUP3 PUSH1 0x0 ADD DIV SWAP3 DUP4 ADD SWAP3 PUSH1 0x1 SUB DUP3 MUL SWAP2 POP DUP1 DUP5 GT PUSH2 0x153 JUMPI SWAP1 POP JUMPDEST POP POP POP POP POP DUP2 MSTORE PUSH1 0x20 ADD SWAP1 PUSH1 0x1 ADD SWAP1 PUSH2 0x122 JUMP JUMPDEST POP POP POP POP SWAP1 POP SWAP1 JUMP JUMPDEST PUSH1 0x0 PUSH1 0x3 PUSH1 0x2 SWAP1 SLOAD SWAP1 PUSH2 0x100 EXP SWAP1 DIV PUSH1 0xFF AND PUSH1 0xFF AND SWAP1 POP SWAP1 JUMP JUMPDEST PUSH1 0x0 PUSH1 0x3 PUSH1 0x2 SWAP1 SLOAD SWAP1 PUSH2 0x100 EXP SWAP1 DIV PUSH1 0xFF AND PUSH1 0xFF AND EQ PUSH2 0x216 JUMPI PUSH1 0x40 MLOAD PUSH32 0x8C379A000000000000000000000000000000000000000000000000000000000 DUP2 MSTORE PUSH1 0x4 ADD PUSH2 0x20D SWAP1 PUSH2 0x13D7 JUMP JUMPDEST PUSH1 0x40 MLOAD DUP1 SWAP2 SUB SWAP1 REVERT JUMPDEST PUSH1 0x0 DUP3 PUSH1 0xFF AND LT ISZERO DUP1 ISZERO PUSH2 0x230 JUMPI POP PUSH1 0x3 PUSH1 0xFF AND DUP3 PUSH1 0xFF AND LT JUMPDEST PUSH2 0x26F JUMPI PUSH1 0x40 MLOAD PUSH32 0x8C379A000000000000000000000000000000000000000000000000000000000 DUP2 MSTORE PUSH1 0x4 ADD PUSH2 0x266 SWAP1 PUSH2 0x1443 JUMP JUMPDEST PUSH1 0x40 MLOAD DUP1 SWAP2 SUB SWAP1 REVERT JUMPDEST PUSH1 0x0 DUP2 PUSH1 0xFF AND LT ISZERO DUP1 ISZERO PUSH2 0x289 JUMPI POP PUSH1 0x3 PUSH1 0xFF AND DUP2 PUSH1 0xFF AND LT JUMPDEST PUSH2 0x2C8 JUMPI PUSH1 0x40 MLOAD PUSH32 0x8C379A000000000000000000000000000000000000000000000000000000000 DUP2 MSTORE PUSH1 0x4 ADD PUSH2 0x2BF SWAP1 PUSH2 0x14AF JUMP JUMPDEST PUSH1 0x40 MLOAD DUP1 SWAP2 SUB SWAP1 REVERT JUMPDEST PUSH1 0x0 DUP1 DUP4 PUSH1 0xFF AND PUSH1 0x3 DUP2 LT PUSH2 0x2E0 JUMPI PUSH2 0x2DF PUSH2 0x14CF JUMP JUMPDEST JUMPDEST ADD DUP3 PUSH1 0xFF AND PUSH1 0x3 DUP2 LT PUSH2 0x2F6 JUMPI PUSH2 0x2F5 PUSH2 0x14CF JUMP JUMPDEST JUMPDEST PUSH1 0x20 SWAP2 DUP3 DUP3 DIV ADD SWAP2 SWAP1 MOD SWAP1 SLOAD SWAP1 PUSH2 0x100 EXP SWAP1 DIV PUSH1 0xFF AND PUSH1 0xFF AND EQ PUSH2 0x34F JUMPI PUSH1 0x40 MLOAD PUSH32 0x8C379A000000000000000000000000000000000000000000000000000000000 DUP2 MSTORE PUSH1 0x4 ADD PUSH2 0x346 SWAP1 PUSH2 0x154A JUMP JUMPDEST PUSH1 0x40 MLOAD DUP1 SWAP2 SUB SWAP1 REVERT JUMPDEST PUSH1 0x3 PUSH1 0x1 SWAP1 SLOAD SWAP1 PUSH2 0x100 EXP SWAP1 DIV PUSH1 0xFF AND PUSH1 0xFF AND PUSH1 0x3 PUSH1 0x0 SWAP1 SLOAD SWAP1 PUSH2 0x100 EXP SWAP1 DIV PUSH1 0xFF AND PUSH1 0xFF AND EQ PUSH2 0x3B5 JUMPI PUSH1 0x40 MLOAD PUSH32 0x8C379A000000000000000000000000000000000000000000000000000000000 DUP2 MSTORE PUSH1 0x4 ADD PUSH2 0x3AC SWAP1 PUSH2 0x15DC JUMP JUMPDEST PUSH1 0x40 MLOAD DUP1 SWAP2 SUB SWAP1 REVERT JUMPDEST PUSH1 0x3 DUP1 SLOAD SWAP1 PUSH2 0x100 EXP SWAP1 DIV PUSH1 0xFF AND PUSH1 0xFF AND CALLVALUE EQ PUSH2 0x407 JUMPI PUSH1 0x40 MLOAD PUSH32 0x8C379A000000000000000000000000000000000000000000000000000000000 DUP2 MSTORE PUSH1 0x4 ADD PUSH2 0x3FE SWAP1 PUSH2 0x1648 JUMP JUMPDEST PUSH1 0x40 MLOAD DUP1 SWAP2 SUB SWAP1 REVERT JUMPDEST PUSH1 0x3 PUSH1 0x0 SWAP1 SLOAD SWAP1 PUSH2 0x100 EXP SWAP1 DIV PUSH1 0xFF AND PUSH1 0x0 DUP4 PUSH1 0xFF AND PUSH1 0x3 DUP2 LT PUSH2 0x42E JUMPI PUSH2 0x42D PUSH2 0x14CF JUMP JUMPDEST JUMPDEST ADD DUP3 PUSH1 0xFF AND PUSH1 0x3 DUP2 LT PUSH2 0x444 JUMPI PUSH2 0x443 PUSH2 0x14CF JUMP JUMPDEST JUMPDEST PUSH1 0x20 SWAP2 DUP3 DUP3 DIV ADD SWAP2 SWAP1 MOD PUSH2 0x100 EXP DUP2 SLOAD DUP2 PUSH1 0xFF MUL NOT AND SWAP1 DUP4 PUSH1 0xFF AND MUL OR SWAP1 SSTORE POP PUSH1 0x1 PUSH1 0x3 PUSH1 0x1 SWAP1 SLOAD SWAP1 PUSH2 0x100 EXP SWAP1 DIV PUSH1 0xFF AND PUSH1 0xFF AND EQ PUSH2 0x485 JUMPI PUSH1 0x1 PUSH2 0x488 JUMP JUMPDEST PUSH1 0x2 JUMPDEST PUSH1 0x3 PUSH1 0x1 PUSH2 0x100 EXP DUP2 SLOAD DUP2 PUSH1 0xFF MUL NOT AND SWAP1 DUP4 PUSH1 0xFF AND MUL OR SWAP1 SSTORE POP PUSH1 0x1 PUSH1 0x3 PUSH1 0x0 SWAP1 SLOAD SWAP1 PUSH2 0x100 EXP SWAP1 DIV PUSH1 0xFF AND PUSH1 0xFF AND EQ PUSH2 0x4C3 JUMPI PUSH1 0x1 PUSH2 0x4C6 JUMP JUMPDEST PUSH1 0x2 JUMPDEST PUSH1 0x3 PUSH1 0x0 PUSH2 0x100 EXP DUP2 SLOAD DUP2 PUSH1 0xFF MUL NOT AND SWAP1 DUP4 PUSH1 0xFF AND MUL OR SWAP1 SSTORE POP PUSH2 0x4E8 PUSH2 0xD73 JUMP JUMPDEST POP POP JUMP JUMPDEST PUSH1 0x0 JUMPDEST PUSH1 0x3 PUSH1 0xFF AND DUP2 PUSH1 0xFF AND LT ISZERO PUSH2 0x585 JUMPI PUSH1 0x0 JUMPDEST PUSH1 0x3 PUSH1 0xFF AND DUP2 PUSH1 0xFF AND LT ISZERO PUSH2 0x571 JUMPI PUSH1 0x0 DUP1 DUP4 PUSH1 0xFF AND PUSH1 0x3 DUP2 LT PUSH2 0x528 JUMPI PUSH2 0x527 PUSH2 0x14CF JUMP JUMPDEST JUMPDEST ADD DUP3 PUSH1 0xFF AND PUSH1 0x3 DUP2 LT PUSH2 0x53E JUMPI PUSH2 0x53D PUSH2 0x14CF JUMP JUMPDEST JUMPDEST PUSH1 0x20 SWAP2 DUP3 DUP3 DIV ADD SWAP2 SWAP1 MOD PUSH2 0x100 EXP DUP2 SLOAD DUP2 PUSH1 0xFF MUL NOT AND SWAP1 DUP4 PUSH1 0xFF AND MUL OR SWAP1 SSTORE POP DUP1 DUP1 PUSH2 0x569 SWAP1 PUSH2 0x1697 JUMP JUMPDEST SWAP2 POP POP PUSH2 0x501 JUMP JUMPDEST POP DUP1 DUP1 PUSH2 0x57D SWAP1 PUSH2 0x1697 JUMP JUMPDEST SWAP2 POP POP PUSH2 0x4EF JUMP JUMPDEST POP JUMP JUMPDEST PUSH1 0x0 DUP1 DUP4 PUSH1 0xFF AND PUSH1 0x3 DUP2 LT PUSH2 0x5A0 JUMPI PUSH2 0x59F PUSH2 0x14CF JUMP JUMPDEST JUMPDEST ADD DUP3 PUSH1 0xFF AND PUSH1 0x3 DUP2 LT PUSH2 0x5B6 JUMPI PUSH2 0x5B5 PUSH2 0x14CF JUMP JUMPDEST JUMPDEST PUSH1 0x20 SWAP2 DUP3 DUP3 DIV ADD SWAP2 SWAP1 MOD SWAP1 SLOAD SWAP1 PUSH2 0x100 EXP SWAP1 DIV PUSH1 0xFF AND PUSH1 0xFF AND EQ PUSH2 0x60F JUMPI PUSH1 0x40 MLOAD PUSH32 0x8C379A000000000000000000000000000000000000000000000000000000000 DUP2 MSTORE PUSH1 0x4 ADD PUSH2 0x606 SWAP1 PUSH2 0x170C JUMP JUMPDEST PUSH1 0x40 MLOAD DUP1 SWAP2 SUB SWAP1 REVERT JUMPDEST PUSH1 0x0 PUSH1 0x3 PUSH1 0x2 SWAP1 SLOAD SWAP1 PUSH2 0x100 EXP SWAP1 DIV PUSH1 0xFF AND PUSH1 0xFF AND EQ PUSH2 0x664 JUMPI PUSH1 0x40 MLOAD PUSH32 0x8C379A000000000000000000000000000000000000000000000000000000000 DUP2 MSTORE PUSH1 0x4 ADD PUSH2 0x65B SWAP1 PUSH2 0x1778 JUMP JUMPDEST PUSH1 0x40 MLOAD DUP1 SWAP2 SUB SWAP1 REVERT JUMPDEST PUSH1 0x3 PUSH1 0x0 SWAP1 SLOAD SWAP1 PUSH2 0x100 EXP SWAP1 DIV PUSH1 0xFF AND PUSH1 0x0 DUP4 PUSH1 0xFF AND PUSH1 0x3 DUP2 LT PUSH2 0x68B JUMPI PUSH2 0x68A PUSH2 0x14CF JUMP JUMPDEST JUMPDEST ADD DUP3 PUSH1 0xFF AND PUSH1 0x3 DUP2 LT PUSH2 0x6A1 JUMPI PUSH2 0x6A0 PUSH2 0x14CF JUMP JUMPDEST JUMPDEST PUSH1 0x20 SWAP2 DUP3 DUP3 DIV ADD SWAP2 SWAP1 MOD PUSH2 0x100 EXP DUP2 SLOAD DUP2 PUSH1 0xFF MUL NOT AND SWAP1 DUP4 PUSH1 0xFF AND MUL OR SWAP1 SSTORE POP PUSH1 0x1 PUSH1 0x3 PUSH1 0x0 SWAP1 SLOAD SWAP1 PUSH2 0x100 EXP SWAP1 DIV PUSH1 0xFF AND PUSH1 0xFF AND EQ PUSH2 0x6E2 JUMPI PUSH1 0x1 PUSH2 0x6E5 JUMP JUMPDEST PUSH1 0x2 JUMPDEST PUSH1 0x3 PUSH1 0x0 PUSH2 0x100 EXP DUP2 SLOAD DUP2 PUSH1 0xFF MUL NOT AND SWAP1 DUP4 PUSH1 0xFF AND MUL OR SWAP1 SSTORE POP PUSH1 0x0 JUMPDEST PUSH1 0x3 PUSH1 0xFF AND DUP2 PUSH1 0xFF AND LT ISZERO PUSH2 0x8BD JUMPI PUSH1 0x0 DUP2 PUSH1 0xFF AND PUSH1 0x3 DUP2 LT PUSH2 0x728 JUMPI PUSH2 0x727 PUSH2 0x14CF JUMP JUMPDEST JUMPDEST ADD PUSH1 0x1 PUSH1 0x3 DUP2 LT PUSH2 0x73C JUMPI PUSH2 0x73B PUSH2 0x14CF JUMP JUMPDEST JUMPDEST PUSH1 0x20 SWAP2 DUP3 DUP3 DIV ADD SWAP2 SWAP1 MOD SWAP1 SLOAD SWAP1 PUSH2 0x100 EXP SWAP1 DIV PUSH1 0xFF AND PUSH1 0xFF AND PUSH1 0x0 DUP3 PUSH1 0xFF AND PUSH1 0x3 DUP2 LT PUSH2 0x76C JUMPI PUSH2 0x76B PUSH2 0x14CF JUMP JUMPDEST JUMPDEST ADD PUSH1 0x0 PUSH1 0x3 DUP2 LT PUSH2 0x780 JUMPI PUSH2 0x77F PUSH2 0x14CF JUMP JUMPDEST JUMPDEST PUSH1 0x20 SWAP2 DUP3 DUP3 DIV ADD SWAP2 SWAP1 MOD SWAP1 SLOAD SWAP1 PUSH2 0x100 EXP SWAP1 DIV PUSH1 0xFF AND PUSH1 0xFF AND EQ DUP1 ISZERO PUSH2 0x82B JUMPI POP PUSH1 0x0 DUP2 PUSH1 0xFF AND PUSH1 0x3 DUP2 LT PUSH2 0x7B8 JUMPI PUSH2 0x7B7 PUSH2 0x14CF JUMP JUMPDEST JUMPDEST ADD PUSH1 0x2 PUSH1 0x3 DUP2 LT PUSH2 0x7CC JUMPI PUSH2 0x7CB PUSH2 0x14CF JUMP JUMPDEST JUMPDEST PUSH1 0x20 SWAP2 DUP3 DUP3 DIV ADD SWAP2 SWAP1 MOD SWAP1 SLOAD SWAP1 PUSH2 0x100 EXP SWAP1 DIV PUSH1 0xFF AND PUSH1 0xFF AND PUSH1 0x0 DUP3 PUSH1 0xFF AND PUSH1 0x3 DUP2 LT PUSH2 0x7FC JUMPI PUSH2 0x7FB PUSH2 0x14CF JUMP JUMPDEST JUMPDEST ADD PUSH1 0x1 PUSH1 0x3 DUP2 LT PUSH2 0x810 JUMPI PUSH2 0x80F PUSH2 0x14CF JUMP JUMPDEST JUMPDEST PUSH1 0x20 SWAP2 DUP3 DUP3 DIV ADD SWAP2 SWAP1 MOD SWAP1 SLOAD SWAP1 PUSH2 0x100 EXP SWAP1 DIV PUSH1 0xFF AND PUSH1 0xFF AND EQ JUMPDEST DUP1 ISZERO PUSH2 0x87A JUMPI POP PUSH1 0x0 DUP1 DUP3 PUSH1 0xFF AND PUSH1 0x3 DUP2 LT PUSH2 0x84A JUMPI PUSH2 0x849 PUSH2 0x14CF JUMP JUMPDEST JUMPDEST ADD PUSH1 0x2 PUSH1 0x3 DUP2 LT PUSH2 0x85E JUMPI PUSH2 0x85D PUSH2 0x14CF JUMP JUMPDEST JUMPDEST PUSH1 0x20 SWAP2 DUP3 DUP3 DIV ADD SWAP2 SWAP1 MOD SWAP1 SLOAD SWAP1 PUSH2 0x100 EXP SWAP1 DIV PUSH1 0xFF AND PUSH1 0xFF AND EQ ISZERO JUMPDEST ISZERO PUSH2 0x8AA JUMPI PUSH1 0x3 PUSH1 0x0 SWAP1 SLOAD SWAP1 PUSH2 0x100 EXP SWAP1 DIV PUSH1 0xFF AND PUSH1 0x3 PUSH1 0x2 PUSH2 0x100 EXP DUP2 SLOAD DUP2 PUSH1 0xFF MUL NOT AND SWAP1 DUP4 PUSH1 0xFF AND MUL OR SWAP1 SSTORE POP JUMPDEST DUP1 DUP1 PUSH2 0x8B5 SWAP1 PUSH2 0x1697 JUMP JUMPDEST SWAP2 POP POP PUSH2 0x702 JUMP JUMPDEST POP PUSH1 0x0 JUMPDEST PUSH1 0x3 PUSH1 0xFF AND DUP2 PUSH1 0xFF AND LT ISZERO PUSH2 0xA7B JUMPI PUSH1 0x0 PUSH1 0x1 PUSH1 0x3 DUP2 LT PUSH2 0x8E5 JUMPI PUSH2 0x8E4 PUSH2 0x14CF JUMP JUMPDEST JUMPDEST ADD DUP2 PUSH1 0xFF AND PUSH1 0x3 DUP2 LT PUSH2 0x8FB JUMPI PUSH2 0x8FA PUSH2 0x14CF JUMP JUMPDEST JUMPDEST PUSH1 0x20 SWAP2 DUP3 DUP3 DIV ADD SWAP2 SWAP1 MOD SWAP1 SLOAD SWAP1 PUSH2 0x100 EXP SWAP1 DIV PUSH1 0xFF AND PUSH1 0xFF AND PUSH1 0x0 DUP1 PUSH1 0x3 DUP2 LT PUSH2 0x928 JUMPI PUSH2 0x927 PUSH2 0x14CF JUMP JUMPDEST JUMPDEST ADD DUP3 PUSH1 0xFF AND PUSH1 0x3 DUP2 LT PUSH2 0x93E JUMPI PUSH2 0x93D PUSH2 0x14CF JUMP JUMPDEST JUMPDEST PUSH1 0x20 SWAP2 DUP3 DUP3 DIV ADD SWAP2 SWAP1 MOD SWAP1 SLOAD SWAP1 PUSH2 0x100 EXP SWAP1 DIV PUSH1 0xFF AND PUSH1 0xFF AND EQ DUP1 ISZERO PUSH2 0x9E9 JUMPI POP PUSH1 0x0 PUSH1 0x2 PUSH1 0x3 DUP2 LT PUSH2 0x974 JUMPI PUSH2 0x973 PUSH2 0x14CF JUMP JUMPDEST JUMPDEST ADD DUP2 PUSH1 0xFF AND PUSH1 0x3 DUP2 LT PUSH2 0x98A JUMPI PUSH2 0x989 PUSH2 0x14CF JUMP JUMPDEST JUMPDEST PUSH1 0x20 SWAP2 DUP3 DUP3 DIV ADD SWAP2 SWAP1 MOD SWAP1 SLOAD SWAP1 PUSH2 0x100 EXP SWAP1 DIV PUSH1 0xFF AND PUSH1 0xFF AND PUSH1 0x0 PUSH1 0x1 PUSH1 0x3 DUP2 LT PUSH2 0x9B8 JUMPI PUSH2 0x9B7 PUSH2 0x14CF JUMP JUMPDEST JUMPDEST ADD DUP3 PUSH1 0xFF AND PUSH1 0x3 DUP2 LT PUSH2 0x9CE JUMPI PUSH2 0x9CD PUSH2 0x14CF JUMP JUMPDEST JUMPDEST PUSH1 0x20 SWAP2 DUP3 DUP3 DIV ADD SWAP2 SWAP1 MOD SWAP1 SLOAD SWAP1 PUSH2 0x100 EXP SWAP1 DIV PUSH1 0xFF AND PUSH1 0xFF AND EQ JUMPDEST DUP1 ISZERO PUSH2 0xA38 JUMPI POP PUSH1 0x0 DUP1 PUSH1 0x2 PUSH1 0x3 DUP2 LT PUSH2 0xA06 JUMPI PUSH2 0xA05 PUSH2 0x14CF JUMP JUMPDEST JUMPDEST ADD DUP3 PUSH1 0xFF AND PUSH1 0x3 DUP2 LT PUSH2 0xA1C JUMPI PUSH2 0xA1B PUSH2 0x14CF JUMP JUMPDEST JUMPDEST PUSH1 0x20 SWAP2 DUP3 DUP3 DIV ADD SWAP2 SWAP1 MOD SWAP1 SLOAD SWAP1 PUSH2 0x100 EXP SWAP1 DIV PUSH1 0xFF AND PUSH1 0xFF AND EQ ISZERO JUMPDEST ISZERO PUSH2 0xA68 JUMPI PUSH1 0x3 PUSH1 0x0 SWAP1 SLOAD SWAP1 PUSH2 0x100 EXP SWAP1 DIV PUSH1 0xFF AND PUSH1 0x3 PUSH1 0x2 PUSH2 0x100 EXP DUP2 SLOAD DUP2 PUSH1 0xFF MUL NOT AND SWAP1 DUP4 PUSH1 0xFF AND MUL OR SWAP1 SSTORE POP JUMPDEST DUP1 DUP1 PUSH2 0xA73 SWAP1 PUSH2 0x1697 JUMP JUMPDEST SWAP2 POP POP PUSH2 0x8C1 JUMP JUMPDEST POP PUSH1 0x0 PUSH1 0x1 PUSH1 0x3 DUP2 LT PUSH2 0xA91 JUMPI PUSH2 0xA90 PUSH2 0x14CF JUMP JUMPDEST JUMPDEST ADD PUSH1 0x1 PUSH1 0x3 DUP2 LT PUSH2 0xAA5 JUMPI PUSH2 0xAA4 PUSH2 0x14CF JUMP JUMPDEST JUMPDEST PUSH1 0x20 SWAP2 DUP3 DUP3 DIV ADD SWAP2 SWAP1 MOD SWAP1 SLOAD SWAP1 PUSH2 0x100 EXP SWAP1 DIV PUSH1 0xFF AND PUSH1 0xFF AND PUSH1 0x0 DUP1 PUSH1 0x3 DUP2 LT PUSH2 0xAD2 JUMPI PUSH2 0xAD1 PUSH2 0x14CF JUMP JUMPDEST JUMPDEST ADD PUSH1 0x0 PUSH1 0x3 DUP2 LT PUSH2 0xAE6 JUMPI PUSH2 0xAE5 PUSH2 0x14CF JUMP JUMPDEST JUMPDEST PUSH1 0x20 SWAP2 DUP3 DUP3 DIV ADD SWAP2 SWAP1 MOD SWAP1 SLOAD SWAP1 PUSH2 0x100 EXP SWAP1 DIV PUSH1 0xFF AND PUSH1 0xFF AND EQ DUP1 ISZERO PUSH2 0xB8D JUMPI POP PUSH1 0x0 PUSH1 0x2 PUSH1 0x3 DUP2 LT PUSH2 0xB1C JUMPI PUSH2 0xB1B PUSH2 0x14CF JUMP JUMPDEST JUMPDEST ADD PUSH1 0x2 PUSH1 0x3 DUP2 LT PUSH2 0xB30 JUMPI PUSH2 0xB2F PUSH2 0x14CF JUMP JUMPDEST JUMPDEST PUSH1 0x20 SWAP2 DUP3 DUP3 DIV ADD SWAP2 SWAP1 MOD SWAP1 SLOAD SWAP1 PUSH2 0x100 EXP SWAP1 DIV PUSH1 0xFF AND PUSH1 0xFF AND PUSH1 0x0 PUSH1 0x1 PUSH1 0x3 DUP2 LT PUSH2 0xB5E JUMPI PUSH2 0xB5D PUSH2 0x14CF JUMP JUMPDEST JUMPDEST ADD PUSH1 0x1 PUSH1 0x3 DUP2 LT PUSH2 0xB72 JUMPI PUSH2 0xB71 PUSH2 0x14CF JUMP JUMPDEST JUMPDEST PUSH1 0x20 SWAP2 DUP3 DUP3 DIV ADD SWAP2 SWAP1 MOD SWAP1 SLOAD SWAP1 PUSH2 0x100 EXP SWAP1 DIV PUSH1 0xFF AND PUSH1 0xFF AND EQ JUMPDEST DUP1 ISZERO PUSH2 0xBDA JUMPI POP PUSH1 0x0 DUP1 PUSH1 0x2 PUSH1 0x3 DUP2 LT PUSH2 0xBAA JUMPI PUSH2 0xBA9 PUSH2 0x14CF JUMP JUMPDEST JUMPDEST ADD PUSH1 0x2 PUSH1 0x3 DUP2 LT PUSH2 0xBBE JUMPI PUSH2 0xBBD PUSH2 0x14CF JUMP JUMPDEST JUMPDEST PUSH1 0x20 SWAP2 DUP3 DUP3 DIV ADD SWAP2 SWAP1 MOD SWAP1 SLOAD SWAP1 PUSH2 0x100 EXP SWAP1 DIV PUSH1 0xFF AND PUSH1 0xFF AND EQ ISZERO JUMPDEST DUP1 PUSH2 0xD3F JUMPI POP PUSH1 0x0 PUSH1 0x1 PUSH1 0x3 DUP2 LT PUSH2 0xBF5 JUMPI PUSH2 0xBF4 PUSH2 0x14CF JUMP JUMPDEST JUMPDEST ADD PUSH1 0x1 PUSH1 0x3 DUP2 LT PUSH2 0xC09 JUMPI PUSH2 0xC08 PUSH2 0x14CF JUMP JUMPDEST JUMPDEST PUSH1 0x20 SWAP2 DUP3 DUP3 DIV ADD SWAP2 SWAP1 MOD SWAP1 SLOAD SWAP1 PUSH2 0x100 EXP SWAP1 DIV PUSH1 0xFF AND PUSH1 0xFF AND PUSH1 0x0 DUP1 PUSH1 0x3 DUP2 LT PUSH2 0xC36 JUMPI PUSH2 0xC35 PUSH2 0x14CF JUMP JUMPDEST JUMPDEST ADD PUSH1 0x2 PUSH1 0x3 DUP2 LT PUSH2 0xC4A JUMPI PUSH2 0xC49 PUSH2 0x14CF JUMP JUMPDEST JUMPDEST PUSH1 0x20 SWAP2 DUP3 DUP3 DIV ADD SWAP2 SWAP1 MOD SWAP1 SLOAD SWAP1 PUSH2 0x100 EXP SWAP1 DIV PUSH1 0xFF AND PUSH1 0xFF AND EQ DUP1 ISZERO PUSH2 0xCF1 JUMPI POP PUSH1 0x0 PUSH1 0x2 PUSH1 0x3 DUP2 LT PUSH2 0xC80 JUMPI PUSH2 0xC7F PUSH2 0x14CF JUMP JUMPDEST JUMPDEST ADD PUSH1 0x0 PUSH1 0x3 DUP2 LT PUSH2 0xC94 JUMPI PUSH2 0xC93 PUSH2 0x14CF JUMP JUMPDEST JUMPDEST PUSH1 0x20 SWAP2 DUP3 DUP3 DIV ADD SWAP2 SWAP1 MOD SWAP1 SLOAD SWAP1 PUSH2 0x100 EXP SWAP1 DIV PUSH1 0xFF AND PUSH1 0xFF AND PUSH1 0x0 PUSH1 0x1 PUSH1 0x3 DUP2 LT PUSH2 0xCC2 JUMPI PUSH2 0xCC1 PUSH2 0x14CF JUMP JUMPDEST JUMPDEST ADD PUSH1 0x1 PUSH1 0x3 DUP2 LT PUSH2 0xCD6 JUMPI PUSH2 0xCD5 PUSH2 0x14CF JUMP JUMPDEST JUMPDEST PUSH1 0x20 SWAP2 DUP3 DUP3 DIV ADD SWAP2 SWAP1 MOD SWAP1 SLOAD SWAP1 PUSH2 0x100 EXP SWAP1 DIV PUSH1 0xFF AND PUSH1 0xFF AND EQ JUMPDEST DUP1 ISZERO PUSH2 0xD3E JUMPI POP PUSH1 0x0 DUP1 PUSH1 0x2 PUSH1 0x3 DUP2 LT PUSH2 0xD0E JUMPI PUSH2 0xD0D PUSH2 0x14CF JUMP JUMPDEST JUMPDEST ADD PUSH1 0x0 PUSH1 0x3 DUP2 LT PUSH2 0xD22 JUMPI PUSH2 0xD21 PUSH2 0x14CF JUMP JUMPDEST JUMPDEST PUSH1 0x20 SWAP2 DUP3 DUP3 DIV ADD SWAP2 SWAP1 MOD SWAP1 SLOAD SWAP1 PUSH2 0x100 EXP SWAP1 DIV PUSH1 0xFF AND PUSH1 0xFF AND EQ ISZERO JUMPDEST JUMPDEST ISZERO PUSH2 0xD6F JUMPI PUSH1 0x3 PUSH1 0x0 SWAP1 SLOAD SWAP1 PUSH2 0x100 EXP SWAP1 DIV PUSH1 0xFF AND PUSH1 0x3 PUSH1 0x2 PUSH2 0x100 EXP DUP2 SLOAD DUP2 PUSH1 0xFF MUL NOT AND SWAP1 DUP4 PUSH1 0xFF AND MUL OR SWAP1 SSTORE POP JUMPDEST POP POP JUMP JUMPDEST PUSH1 0x0 PUSH1 0x3 SWAP1 POP PUSH1 0x0 JUMPDEST PUSH1 0x3 PUSH1 0xFF AND DUP2 PUSH1 0xFF AND LT ISZERO PUSH2 0xE6B JUMPI PUSH1 0x0 DUP1 JUMPDEST PUSH1 0x3 PUSH1 0xFF AND DUP2 PUSH1 0xFF AND LT ISZERO PUSH2 0xE1E JUMPI PUSH1 0x3 PUSH1 0x0 SWAP1 SLOAD SWAP1 PUSH2 0x100 EXP SWAP1 DIV PUSH1 0xFF AND PUSH1 0xFF AND PUSH1 0x0 DUP5 PUSH1 0xFF AND PUSH1 0x3 DUP2 LT PUSH2 0xDC8 JUMPI PUSH2 0xDC7 PUSH2 0x14CF JUMP JUMPDEST JUMPDEST ADD DUP3 PUSH1 0xFF AND PUSH1 0x3 DUP2 LT PUSH2 0xDDE JUMPI PUSH2 0xDDD PUSH2 0x14CF JUMP JUMPDEST JUMPDEST PUSH1 0x20 SWAP2 DUP3 DUP3 DIV ADD SWAP2 SWAP1 MOD SWAP1 SLOAD SWAP1 PUSH2 0x100 EXP SWAP1 DIV PUSH1 0xFF AND PUSH1 0xFF AND SUB PUSH2 0xE0B JUMPI DUP2 DUP1 PUSH2 0xE07 SWAP1 PUSH2 0x1697 JUMP JUMPDEST SWAP3 POP POP JUMPDEST DUP1 DUP1 PUSH2 0xE16 SWAP1 PUSH2 0x1697 JUMP JUMPDEST SWAP2 POP POP PUSH2 0xD8F JUMP JUMPDEST POP DUP3 PUSH1 0xFF AND DUP2 PUSH1 0xFF AND SUB PUSH2 0xE57 JUMPI PUSH1 0x3 PUSH1 0x0 SWAP1 SLOAD SWAP1 PUSH2 0x100 EXP SWAP1 DIV PUSH1 0xFF AND PUSH1 0x3 PUSH1 0x2 PUSH2 0x100 EXP DUP2 SLOAD DUP2 PUSH1 0xFF MUL NOT AND SWAP1 DUP4 PUSH1 0xFF AND MUL OR SWAP1 SSTORE POP JUMPDEST POP DUP1 DUP1 PUSH2 0xE63 SWAP1 PUSH2 0x1697 JUMP JUMPDEST SWAP2 POP POP PUSH2 0xD7C JUMP JUMPDEST POP PUSH1 0x0 JUMPDEST PUSH1 0x3 PUSH1 0xFF AND DUP2 PUSH1 0xFF AND LT ISZERO PUSH2 0xF5E JUMPI PUSH1 0x0 DUP1 JUMPDEST PUSH1 0x3 PUSH1 0xFF AND DUP2 PUSH1 0xFF AND LT ISZERO PUSH2 0xF11 JUMPI PUSH1 0x3 PUSH1 0x0 SWAP1 SLOAD SWAP1 PUSH2 0x100 EXP SWAP1 DIV PUSH1 0xFF AND PUSH1 0xFF AND PUSH1 0x0 DUP3 PUSH1 0xFF AND PUSH1 0x3 DUP2 LT PUSH2 0xEBB JUMPI PUSH2 0xEBA PUSH2 0x14CF JUMP JUMPDEST JUMPDEST ADD DUP5 PUSH1 0xFF AND PUSH1 0x3 DUP2 LT PUSH2 0xED1 JUMPI PUSH2 0xED0 PUSH2 0x14CF JUMP JUMPDEST JUMPDEST PUSH1 0x20 SWAP2 DUP3 DUP3 DIV ADD SWAP2 SWAP1 MOD SWAP1 SLOAD SWAP1 PUSH2 0x100 EXP SWAP1 DIV PUSH1 0xFF AND PUSH1 0xFF AND SUB PUSH2 0xEFE JUMPI DUP2 DUP1 PUSH2 0xEFA SWAP1 PUSH2 0x1697 JUMP JUMPDEST SWAP3 POP POP JUMPDEST DUP1 DUP1 PUSH2 0xF09 SWAP1 PUSH2 0x1697 JUMP JUMPDEST SWAP2 POP POP PUSH2 0xE82 JUMP JUMPDEST POP DUP3 PUSH1 0xFF AND DUP2 PUSH1 0xFF AND SUB PUSH2 0xF4A JUMPI PUSH1 0x3 PUSH1 0x0 SWAP1 SLOAD SWAP1 PUSH2 0x100 EXP SWAP1 DIV PUSH1 0xFF AND PUSH1 0x3 PUSH1 0x2 PUSH2 0x100 EXP DUP2 SLOAD DUP2 PUSH1 0xFF MUL NOT AND SWAP1 DUP4 PUSH1 0xFF AND MUL OR SWAP1 SSTORE POP JUMPDEST POP DUP1 DUP1 PUSH2 0xF56 SWAP1 PUSH2 0x1697 JUMP JUMPDEST SWAP2 POP POP PUSH2 0xE6F JUMP JUMPDEST POP PUSH1 0x0 DUP1 JUMPDEST PUSH1 0x3 PUSH1 0xFF AND DUP2 PUSH1 0xFF AND LT ISZERO PUSH2 0xFF2 JUMPI PUSH1 0x3 PUSH1 0x0 SWAP1 SLOAD SWAP1 PUSH2 0x100 EXP SWAP1 DIV PUSH1 0xFF AND PUSH1 0xFF AND PUSH1 0x0 DUP3 PUSH1 0xFF AND PUSH1 0x3 DUP2 LT PUSH2 0xF9C JUMPI PUSH2 0xF9B PUSH2 0x14CF JUMP JUMPDEST JUMPDEST ADD DUP3 PUSH1 0xFF AND PUSH1 0x3 DUP2 LT PUSH2 0xFB2 JUMPI PUSH2 0xFB1 PUSH2 0x14CF JUMP JUMPDEST JUMPDEST PUSH1 0x20 SWAP2 DUP3 DUP3 DIV ADD SWAP2 SWAP1 MOD SWAP1 SLOAD SWAP1 PUSH2 0x100 EXP SWAP1 DIV PUSH1 0xFF AND PUSH1 0xFF AND SUB PUSH2 0xFDF JUMPI DUP2 DUP1 PUSH2 0xFDB SWAP1 PUSH2 0x1697 JUMP JUMPDEST SWAP3 POP POP JUMPDEST DUP1 DUP1 PUSH2 0xFEA SWAP1 PUSH2 0x1697 JUMP JUMPDEST SWAP2 POP POP PUSH2 0xF63 JUMP JUMPDEST POP DUP2 PUSH1 0xFF AND DUP2 PUSH1 0xFF AND SUB PUSH2 0x102B JUMPI PUSH1 0x3 PUSH1 0x0 SWAP1 SLOAD SWAP1 PUSH2 0x100 EXP SWAP1 DIV PUSH1 0xFF AND PUSH1 0x3 PUSH1 0x2 PUSH2 0x100 EXP DUP2 SLOAD DUP2 PUSH1 0xFF MUL NOT AND SWAP1 DUP4 PUSH1 0xFF AND MUL OR SWAP1 SSTORE POP JUMPDEST PUSH1 0x0 SWAP1 POP PUSH1 0x0 JUMPDEST PUSH1 0x3 PUSH1 0xFF AND DUP2 PUSH1 0xFF AND LT ISZERO PUSH2 0x10D9 JUMPI PUSH1 0x3 PUSH1 0x0 SWAP1 SLOAD SWAP1 PUSH2 0x100 EXP SWAP1 DIV PUSH1 0xFF AND PUSH1 0xFF AND PUSH1 0x0 DUP3 PUSH1 0xFF AND PUSH1 0x3 DUP2 LT PUSH2 0x106B JUMPI PUSH2 0x106A PUSH2 0x14CF JUMP JUMPDEST JUMPDEST ADD PUSH1 0x1 DUP4 PUSH1 0x3 PUSH2 0x107B SWAP2 SWAP1 PUSH2 0x1798 JUMP JUMPDEST PUSH2 0x1085 SWAP2 SWAP1 PUSH2 0x1798 JUMP JUMPDEST PUSH1 0xFF AND PUSH1 0x3 DUP2 LT PUSH2 0x1099 JUMPI PUSH2 0x1098 PUSH2 0x14CF JUMP JUMPDEST JUMPDEST PUSH1 0x20 SWAP2 DUP3 DUP3 DIV ADD SWAP2 SWAP1 MOD SWAP1 SLOAD SWAP1 PUSH2 0x100 EXP SWAP1 DIV PUSH1 0xFF AND PUSH1 0xFF AND SUB PUSH2 0x10C6 JUMPI DUP2 DUP1 PUSH2 0x10C2 SWAP1 PUSH2 0x1697 JUMP JUMPDEST SWAP3 POP POP JUMPDEST DUP1 DUP1 PUSH2 0x10D1 SWAP1 PUSH2 0x1697 JUMP JUMPDEST SWAP2 POP POP PUSH2 0x1032 JUMP JUMPDEST POP DUP2 PUSH1 0xFF AND DUP2 PUSH1 0xFF AND SUB PUSH2 0x1112 JUMPI PUSH1 0x3 PUSH1 0x0 SWAP1 SLOAD SWAP1 PUSH2 0x100 EXP SWAP1 DIV PUSH1 0xFF AND PUSH1 0x3 PUSH1 0x2 PUSH2 0x100 EXP DUP2 SLOAD DUP2 PUSH1 0xFF MUL NOT AND SWAP1 DUP4 PUSH1 0xFF AND MUL OR SWAP1 SSTORE POP JUMPDEST POP POP JUMP JUMPDEST PUSH1 0x40 MLOAD DUP1 PUSH1 0x60 ADD PUSH1 0x40 MSTORE DUP1 PUSH1 0x3 SWAP1 JUMPDEST PUSH2 0x112D PUSH2 0x1143 JUMP JUMPDEST DUP2 MSTORE PUSH1 0x20 ADD SWAP1 PUSH1 0x1 SWAP1 SUB SWAP1 DUP2 PUSH2 0x1125 JUMPI SWAP1 POP POP SWAP1 JUMP JUMPDEST PUSH1 0x40 MLOAD DUP1 PUSH1 0x60 ADD PUSH1 0x40 MSTORE DUP1 PUSH1 0x3 SWAP1 PUSH1 0x20 DUP3 MUL DUP1 CALLDATASIZE DUP4 CALLDATACOPY DUP1 DUP3 ADD SWAP2 POP POP SWAP1 POP POP SWAP1 JUMP JUMPDEST PUSH1 0x0 PUSH1 0x3 SWAP1 POP SWAP2 SWAP1 POP JUMP JUMPDEST PUSH1 0x0 DUP2 SWAP1 POP SWAP3 SWAP2 POP POP JUMP JUMPDEST PUSH1 0x0 DUP2 SWAP1 POP SWAP2 SWAP1 POP JUMP JUMPDEST PUSH1 0x0 PUSH1 0x3 SWAP1 POP SWAP2 SWAP1 POP JUMP JUMPDEST PUSH1 0x0 DUP2 SWAP1 POP SWAP3 SWAP2 POP POP JUMP JUMPDEST PUSH1 0x0 DUP2 SWAP1 POP SWAP2 SWAP1 POP JUMP JUMPDEST PUSH1 0x0 PUSH1 0xFF DUP3 AND SWAP1 POP SWAP2 SWAP1 POP JUMP JUMPDEST PUSH2 0x11BB DUP2 PUSH2 0x11A5 JUMP JUMPDEST DUP3 MSTORE POP POP JUMP JUMPDEST PUSH1 0x0 PUSH2 0x11CD DUP4 DUP4 PUSH2 0x11B2 JUMP JUMPDEST PUSH1 0x20 DUP4 ADD SWAP1 POP SWAP3 SWAP2 POP POP JUMP JUMPDEST PUSH1 0x0 PUSH1 0x20 DUP3 ADD SWAP1 POP SWAP2 SWAP1 POP JUMP JUMPDEST PUSH2 0x11EF DUP2 PUSH2 0x1185 JUMP JUMPDEST PUSH2 0x11F9 DUP2 DUP5 PUSH2 0x1190 JUMP JUMPDEST SWAP3 POP PUSH2 0x1204 DUP3 PUSH2 0x119B JUMP JUMPDEST DUP1 PUSH1 0x0 JUMPDEST DUP4 DUP2 LT ISZERO PUSH2 0x1235 JUMPI DUP2 MLOAD PUSH2 0x121C DUP8 DUP3 PUSH2 0x11C1 JUMP JUMPDEST SWAP7 POP PUSH2 0x1227 DUP4 PUSH2 0x11D9 JUMP JUMPDEST SWAP3 POP POP PUSH1 0x1 DUP2 ADD SWAP1 POP PUSH2 0x1208 JUMP JUMPDEST POP POP POP POP POP POP JUMP JUMPDEST PUSH1 0x0 PUSH2 0x1249 DUP4 DUP4 PUSH2 0x11E6 JUMP JUMPDEST PUSH1 0x60 DUP4 ADD SWAP1 POP SWAP3 SWAP2 POP POP JUMP JUMPDEST PUSH1 0x0 PUSH1 0x20 DUP3 ADD SWAP1 POP SWAP2 SWAP1 POP JUMP JUMPDEST PUSH2 0x126B DUP2 PUSH2 0x1165 JUMP JUMPDEST PUSH2 0x1275 DUP2 DUP5 PUSH2 0x1170 JUMP JUMPDEST SWAP3 POP PUSH2 0x1280 DUP3 PUSH2 0x117B JUMP JUMPDEST DUP1 PUSH1 0x0 JUMPDEST DUP4 DUP2 LT ISZERO PUSH2 0x12B1 JUMPI DUP2 MLOAD PUSH2 0x1298 DUP8 DUP3 PUSH2 0x123D JUMP JUMPDEST SWAP7 POP PUSH2 0x12A3 DUP4 PUSH2 0x1255 JUMP JUMPDEST SWAP3 POP POP PUSH1 0x1 DUP2 ADD SWAP1 POP PUSH2 0x1284 JUMP JUMPDEST POP POP POP POP POP POP JUMP JUMPDEST PUSH1 0x0 PUSH2 0x120 DUP3 ADD SWAP1 POP PUSH2 0x12CF PUSH1 0x0 DUP4 ADD DUP5 PUSH2 0x1262 JUMP JUMPDEST SWAP3 SWAP2 POP POP JUMP JUMPDEST PUSH1 0x0 DUP2 SWAP1 POP SWAP2 SWAP1 POP JUMP JUMPDEST PUSH2 0x12E8 DUP2 PUSH2 0x12D5 JUMP JUMPDEST DUP3 MSTORE POP POP JUMP JUMPDEST PUSH1 0x0 PUSH1 0x20 DUP3 ADD SWAP1 POP PUSH2 0x1303 PUSH1 0x0 DUP4 ADD DUP5 PUSH2 0x12DF JUMP JUMPDEST SWAP3 SWAP2 POP POP JUMP JUMPDEST PUSH1 0x0 DUP1 REVERT JUMPDEST PUSH2 0x1317 DUP2 PUSH2 0x11A5 JUMP JUMPDEST DUP2 EQ PUSH2 0x1322 JUMPI PUSH1 0x0 DUP1 REVERT JUMPDEST POP JUMP JUMPDEST PUSH1 0x0 DUP2 CALLDATALOAD SWAP1 POP PUSH2 0x1334 DUP2 PUSH2 0x130E JUMP JUMPDEST SWAP3 SWAP2 POP POP JUMP JUMPDEST PUSH1 0x0 DUP1 PUSH1 0x40 DUP4 DUP6 SUB SLT ISZERO PUSH2 0x1351 JUMPI PUSH2 0x1350 PUSH2 0x1309 JUMP JUMPDEST JUMPDEST PUSH1 0x0 PUSH2 0x135F DUP6 DUP3 DUP7 ADD PUSH2 0x1325 JUMP JUMPDEST SWAP3 POP POP PUSH1 0x20 PUSH2 0x1370 DUP6 DUP3 DUP7 ADD PUSH2 0x1325 JUMP JUMPDEST SWAP2 POP POP SWAP3 POP SWAP3 SWAP1 POP JUMP JUMPDEST PUSH1 0x0 DUP3 DUP3 MSTORE PUSH1 0x20 DUP3 ADD SWAP1 POP SWAP3 SWAP2 POP POP JUMP JUMPDEST PUSH32 0x4F79756E2062697474692E000000000000000000000000000000000000000000 PUSH1 0x0 DUP3 ADD MSTORE POP JUMP JUMPDEST PUSH1 0x0 PUSH2 0x13C1 PUSH1 0xB DUP4 PUSH2 0x137A JUMP JUMPDEST SWAP2 POP PUSH2 0x13CC DUP3 PUSH2 0x138B JUMP JUMPDEST PUSH1 0x20 DUP3 ADD SWAP1 POP SWAP2 SWAP1 POP JUMP JUMPDEST PUSH1 0x0 PUSH1 0x20 DUP3 ADD SWAP1 POP DUP2 DUP2 SUB PUSH1 0x0 DUP4 ADD MSTORE PUSH2 0x13F0 DUP2 PUSH2 0x13B4 JUMP JUMPDEST SWAP1 POP SWAP2 SWAP1 POP JUMP JUMPDEST PUSH32 0x5820706F7A6973796F6E7520676563657273697A2E0000000000000000000000 PUSH1 0x0 DUP3 ADD MSTORE POP JUMP JUMPDEST PUSH1 0x0 PUSH2 0x142D PUSH1 0x15 DUP4 PUSH2 0x137A JUMP JUMPDEST SWAP2 POP PUSH2 0x1438 DUP3 PUSH2 0x13F7 JUMP JUMPDEST PUSH1 0x20 DUP3 ADD SWAP1 POP SWAP2 SWAP1 POP JUMP JUMPDEST PUSH1 0x0 PUSH1 0x20 DUP3 ADD SWAP1 POP DUP2 DUP2 SUB PUSH1 0x0 DUP4 ADD MSTORE PUSH2 0x145C DUP2 PUSH2 0x1420 JUMP JUMPDEST SWAP1 POP SWAP2 SWAP1 POP JUMP JUMPDEST PUSH32 0x5920706F7A6973796F6E7520676563657273697A2E0000000000000000000000 PUSH1 0x0 DUP3 ADD MSTORE POP JUMP JUMPDEST PUSH1 0x0 PUSH2 0x1499 PUSH1 0x15 DUP4 PUSH2 0x137A JUMP JUMPDEST SWAP2 POP PUSH2 0x14A4 DUP3 PUSH2 0x1463 JUMP JUMPDEST PUSH1 0x20 DUP3 ADD SWAP1 POP SWAP2 SWAP1 POP JUMP JUMPDEST PUSH1 0x0 PUSH1 0x20 DUP3 ADD SWAP1 POP DUP2 DUP2 SUB PUSH1 0x0 DUP4 ADD MSTORE PUSH2 0x14C8 DUP2 PUSH2 0x148C JUMP JUMPDEST SWAP1 POP SWAP2 SWAP1 POP JUMP JUMPDEST PUSH32 0x4E487B7100000000000000000000000000000000000000000000000000000000 PUSH1 0x0 MSTORE PUSH1 0x32 PUSH1 0x4 MSTORE PUSH1 0x24 PUSH1 0x0 REVERT JUMPDEST PUSH32 0x4275206B61726520646F6C752E00000000000000000000000000000000000000 PUSH1 0x0 DUP3 ADD MSTORE POP JUMP JUMPDEST PUSH1 0x0 PUSH2 0x1534 PUSH1 0xD DUP4 PUSH2 0x137A JUMP JUMPDEST SWAP2 POP PUSH2 0x153F DUP3 PUSH2 0x14FE JUMP JUMPDEST PUSH1 0x20 DUP3 ADD SWAP1 POP SWAP2 SWAP1 POP JUMP JUMPDEST PUSH1 0x0 PUSH1 0x20 DUP3 ADD SWAP1 POP DUP2 DUP2 SUB PUSH1 0x0 DUP4 ADD MSTORE PUSH2 0x1563 DUP2 PUSH2 0x1527 JUMP JUMPDEST SWAP1 POP SWAP2 SWAP1 POP JUMP JUMPDEST PUSH32 0x4275207369726164616B69206F79756E63752073697A20646567696C73696E69 PUSH1 0x0 DUP3 ADD MSTORE PUSH32 0x7A2E000000000000000000000000000000000000000000000000000000000000 PUSH1 0x20 DUP3 ADD MSTORE POP JUMP JUMPDEST PUSH1 0x0 PUSH2 0x15C6 PUSH1 0x22 DUP4 PUSH2 0x137A JUMP JUMPDEST SWAP2 POP PUSH2 0x15D1 DUP3 PUSH2 0x156A JUMP JUMPDEST PUSH1 0x40 DUP3 ADD SWAP1 POP SWAP2 SWAP1 POP JUMP JUMPDEST PUSH1 0x0 PUSH1 0x20 DUP3 ADD SWAP1 POP DUP2 DUP2 SUB PUSH1 0x0 DUP4 ADD MSTORE PUSH2 0x15F5 DUP2 PUSH2 0x15B9 JUMP JUMPDEST SWAP1 POP SWAP2 SWAP1 POP JUMP JUMPDEST PUSH32 0x59657465726C69206F64656D6520796170696C6D616D69732E00000000000000 PUSH1 0x0 DUP3 ADD MSTORE POP JUMP JUMPDEST PUSH1 0x0 PUSH2 0x1632 PUSH1 0x19 DUP4 PUSH2 0x137A JUMP JUMPDEST SWAP2 POP PUSH2 0x163D DUP3 PUSH2 0x15FC JUMP JUMPDEST PUSH1 0x20 DUP3 ADD SWAP1 POP SWAP2 SWAP1 POP JUMP JUMPDEST PUSH1 0x0 PUSH1 0x20 DUP3 ADD SWAP1 POP DUP2 DUP2 SUB PUSH1 0x0 DUP4 ADD MSTORE PUSH2 0x1661 DUP2 PUSH2 0x1625 JUMP JUMPDEST SWAP1 POP SWAP2 SWAP1 POP JUMP JUMPDEST PUSH32 0x4E487B7100000000000000000000000000000000000000000000000000000000 PUSH1 0x0 MSTORE PUSH1 0x11 PUSH1 0x4 MSTORE PUSH1 0x24 PUSH1 0x0 REVERT JUMPDEST PUSH1 0x0 PUSH2 0x16A2 DUP3 PUSH2 0x11A5 JUMP JUMPDEST SWAP2 POP PUSH1 0xFF DUP3 SUB PUSH2 0x16B5 JUMPI PUSH2 0x16B4 PUSH2 0x1668 JUMP JUMPDEST JUMPDEST PUSH1 0x1 DUP3 ADD SWAP1 POP SWAP2 SWAP1 POP JUMP JUMPDEST PUSH32 0x427520616C616E207A6174656E20646F6C750000000000000000000000000000 PUSH1 0x0 DUP3 ADD MSTORE POP JUMP JUMPDEST PUSH1 0x0 PUSH2 0x16F6 PUSH1 0x12 DUP4 PUSH2 0x137A JUMP JUMPDEST SWAP2 POP PUSH2 0x1701 DUP3 PUSH2 0x16C0 JUMP JUMPDEST PUSH1 0x20 DUP3 ADD SWAP1 POP SWAP2 SWAP1 POP JUMP JUMPDEST PUSH1 0x0 PUSH1 0x20 DUP3 ADD SWAP1 POP DUP2 DUP2 SUB PUSH1 0x0 DUP4 ADD MSTORE PUSH2 0x1725 DUP2 PUSH2 0x16E9 JUMP JUMPDEST SWAP1 POP SWAP2 SWAP1 POP JUMP JUMPDEST PUSH32 0x4F79756E207A6174656E20626974746900000000000000000000000000000000 PUSH1 0x0 DUP3 ADD MSTORE POP JUMP JUMPDEST PUSH1 0x0 PUSH2 0x1762 PUSH1 0x10 DUP4 PUSH2 0x137A JUMP JUMPDEST SWAP2 POP PUSH2 0x176D DUP3 PUSH2 0x172C JUMP JUMPDEST PUSH1 0x20 DUP3 ADD SWAP1 POP SWAP2 SWAP1 POP JUMP JUMPDEST PUSH1 0x0 PUSH1 0x20 DUP3 ADD SWAP1 POP DUP2 DUP2 SUB PUSH1 0x0 DUP4 ADD MSTORE PUSH2 0x1791 DUP2 PUSH2 0x1755 JUMP JUMPDEST SWAP1 POP SWAP2 SWAP1 POP JUMP JUMPDEST PUSH1 0x0 PUSH2 0x17A3 DUP3 PUSH2 0x11A5 JUMP JUMPDEST SWAP2 POP PUSH2 0x17AE DUP4 PUSH2 0x11A5 JUMP JUMPDEST SWAP3 POP DUP3 DUP3 SUB SWAP1 POP PUSH1 0xFF DUP2 GT ISZERO PUSH2 0x17C7 JUMPI PUSH2 0x17C6 PUSH2 0x1668 JUMP JUMPDEST JUMPDEST SWAP3 SWAP2 POP POP JUMP INVALID LOG2 PUSH5 0x6970667358 0x22 SLT KECCAK256 SWAP10 0xDA DUP14 PUSH5 0xAC053FB073 DUP12 0x5C 0xBE 0xED DIFFICULTY PUSH21 0x892689515C92FCBFEF238FABA514E0CAD164736F6C PUSH4 0x43000811 STOP CALLER "
		},
		"gasEstimates": {
			"creation": {
				"codeDepositCost": "1229400",
				"executionCost": "infinite",
				"totalCost": "infinite"
			},
			"external": {
				"getBoard()": "infinite",
				"move(uint8,uint8)": "infinite",
				"play(uint8,uint8)": "infinite",
				"startGame()": "infinite",
				"winnerPlayer()": "2529"
			},
			"internal": {
				"checkForWin()": "infinite"
			}
		},
		"methodIdentifiers": {
			"getBoard()": "3264a34b",
			"move(uint8,uint8)": "701bd985",
			"play(uint8,uint8)": "e802c36f",
			"startGame()": "d65ab5f2",
			"winnerPlayer()": "654b878d"
		}
	},
	"abi": [
		{
			"inputs": [],
			"stateMutability": "nonpayable",
			"type": "constructor"
		},
		{
			"inputs": [],
			"name": "getBoard",
			"outputs": [
				{
					"internalType": "uint8[3][3]",
					"name": "",
					"type": "uint8[3][3]"
				}
			],
			"stateMutability": "view",
			"type": "function"
		},
		{
			"inputs": [
				{
					"internalType": "uint8",
					"name": "x",
					"type": "uint8"
				},
				{
					"internalType": "uint8",
					"name": "y",
					"type": "uint8"
				}
			],
			"name": "move",
			"outputs": [],
			"stateMutability": "payable",
			"type": "function"
		},
		{
			"inputs": [
				{
					"internalType": "uint8",
					"name": "x",
					"type": "uint8"
				},
				{
					"internalType": "uint8",
					"name": "y",
					"type": "uint8"
				}
			],
			"name": "play",
			"outputs": [],
			"stateMutability": "nonpayable",
			"type": "function"
		},
		{
			"inputs": [],
			"name": "startGame",
			"outputs": [],
			"stateMutability": "nonpayable",
			"type": "function"
		},
		{
			"inputs": [],
			"name": "winnerPlayer",
			"outputs": [
				{
					"internalType": "uint256",
					"name": "",
					"type": "uint256"
				}
			],
			"stateMutability": "view",
			"type": "function"
		}
	]
}