{
	"data": {
		"bytecode": {
			"linkReferences": {},
			"object": "608060405234801561001057600080fd5b5060005b600360ff168160ff1610156100ad5760005b600360ff168160ff161015610099576000808360ff166003811061004d5761004c610157565b5b018260ff166003811061006357610062610157565b5b602091828204019190066101000a81548160ff021916908360000b60ff1602179055508080610091906100fe565b915050610026565b5080806100a5906100fe565b915050610014565b506001600360006101000a81548160ff021916908360000b60ff1602179055506000600360016101000a81548160ff021916908360000b60ff160217905550610186565b600060ff82169050919050565b6000610109826100f1565b915060ff82141561011d5761011c610128565b5b600182019050919050565b7f4e487b7100000000000000000000000000000000000000000000000000000000600052601160045260246000fd5b7f4e487b7100000000000000000000000000000000000000000000000000000000600052603260045260246000fd5b6109b9806101956000396000f3fe608060405234801561001057600080fd5b506004361061004c5760003560e01c8063701bd985146100515780638086a92a1461006d578063dfbf53ae1461009d578063e3450e13146100bb575b600080fd5b61006b600480360381019061006691906106d4565b6100d9565b005b61008760048036038101906100829190610694565b610259565b6040516100949190610769565b60405180910390f35b6100a5610295565b6040516100b29190610769565b60405180910390f35b6100c36102a8565b6040516100d09190610769565b60405180910390f35b6000600360019054906101000a900460000b60000b1461012e576040517f08c379a000000000000000000000000000000000000000000000000000000000815260040161012590610784565b60405180910390fd5b6000808360ff1660038110610146576101456108cf565b5b018260ff166003811061015c5761015b6108cf565b5b602091828204019190069054906101000a900460000b60000b146101b5576040517f08c379a00000000000000000000000000000000000000000000000000000000081526004016101ac906107a4565b60405180910390fd5b600360009054906101000a900460000b60008360ff16600381106101dc576101db6108cf565b5b018260ff16600381106101f2576101f16108cf565b5b602091828204019190066101000a81548160ff021916908360000b60ff160217905550600360009054906101000a900460000b61022e90610857565b600360006101000a81548160ff021916908360000b60ff16021790555061025582826102bb565b5050565b6000826003811061026957600080fd5b01816003811061027857600080fd5b60209182820401919006915091509054906101000a900460000b81565b600360019054906101000a900460000b81565b600360009054906101000a900460000b81565b60005b600360ff168160ff16101561039157600360009054906101000a900460000b60000b60008460ff16600381106102f7576102f66108cf565b5b018260ff166003811061030d5761030c6108cf565b5b602091828204019190069054906101000a900460000b60000b1461033057610391565b6001600361033e91906107d5565b60ff168160ff16141561037e57600360009054906101000a900460000b600360016101000a81548160ff021916908360000b60ff16021790555050610666565b80806103899061082d565b9150506102be565b5060005b600360ff168160ff16101561046857600360009054906101000a900460000b60000b60008260ff16600381106103ce576103cd6108cf565b5b018360ff16600381106103e4576103e36108cf565b5b602091828204019190069054906101000a900460000b60000b1461040757610468565b6001600361041591906107d5565b60ff168160ff16141561045557600360009054906101000a900460000b600360016101000a81548160ff021916908360000b60ff16021790555050610666565b80806104609061082d565b915050610395565b508060ff168260ff16141561054f5760005b600360ff168160ff16101561054d57600360009054906101000a900460000b60000b60008260ff16600381106104b3576104b26108cf565b5b018260ff16600381106104c9576104c86108cf565b5b602091828204019190069054906101000a900460000b60000b146104ec5761054d565b600160036104fa91906107d5565b60ff168160ff16141561053a57600360009054906101000a900460000b600360016101000a81548160ff021916908360000b60ff16021790555050610666565b80806105459061082d565b91505061047a565b505b600181600361055e91906107d5565b61056891906107d5565b60ff168260ff1614156106655760005b600360ff168160ff16101561066357600360009054906101000a900460000b60000b60008260ff16600381106105b1576105b06108cf565b5b0160018360036105c191906107d5565b6105cb91906107d5565b60ff16600381106105df576105de6108cf565b5b602091828204019190069054906101000a900460000b60000b1461060257610663565b6001600361061091906107d5565b60ff168160ff16141561065057600360009054906101000a900460000b600360016101000a81548160ff021916908360000b60ff16021790555050610666565b808061065b9061082d565b915050610578565b505b5b5050565b60008135905061067981610955565b92915050565b60008135905061068e8161096c565b92915050565b600080604083850312156106ab576106aa6108fe565b5b60006106b98582860161066a565b92505060206106ca8582860161066a565b9150509250929050565b600080604083850312156106eb576106ea6108fe565b5b60006106f98582860161067f565b925050602061070a8582860161067f565b9150509250929050565b61071d81610809565b82525050565b6000610730600b836107c4565b915061073b82610903565b602082019050919050565b60006107536015836107c4565b915061075e8261092c565b602082019050919050565b600060208201905061077e6000830184610714565b92915050565b6000602082019050818103600083015261079d81610723565b9050919050565b600060208201905081810360008301526107bd81610746565b9050919050565b600082825260208201905092915050565b60006107e082610820565b91506107eb83610820565b9250828210156107fe576107fd6108a0565b5b828203905092915050565b60008160000b9050919050565b6000819050919050565b600060ff82169050919050565b600061083882610820565b915060ff82141561084c5761084b6108a0565b5b600182019050919050565b600061086282610809565b91507fffffffffffffffffffffffffffffffffffffffffffffffffffffffffffffff80821415610895576108946108a0565b5b816000039050919050565b7f4e487b7100000000000000000000000000000000000000000000000000000000600052601160045260246000fd5b7f4e487b7100000000000000000000000000000000000000000000000000000000600052603260045260246000fd5b600080fd5b7f4f79756e206269746d6973000000000000000000000000000000000000000000600082015250565b7f42656c697274696c656e206b6f6e756d20646f6c750000000000000000000000600082015250565b61095e81610816565b811461096957600080fd5b50565b61097581610820565b811461098057600080fd5b5056fea2646970667358221220da71ae93ce7c39821589c421bc27ea18cd43b306d92da6c987808ebdfcea670464736f6c63430008070033",
			"opcodes": "PUSH1 0x80 PUSH1 0x40 MSTORE CALLVALUE DUP1 ISZERO PUSH2 0x10 JUMPI PUSH1 0x0 DUP1 REVERT JUMPDEST POP PUSH1 0x0 JUMPDEST PUSH1 0x3 PUSH1 0xFF AND DUP2 PUSH1 0xFF AND LT ISZERO PUSH2 0xAD JUMPI PUSH1 0x0 JUMPDEST PUSH1 0x3 PUSH1 0xFF AND DUP2 PUSH1 0xFF AND LT ISZERO PUSH2 0x99 JUMPI PUSH1 0x0 DUP1 DUP4 PUSH1 0xFF AND PUSH1 0x3 DUP2 LT PUSH2 0x4D JUMPI PUSH2 0x4C PUSH2 0x157 JUMP JUMPDEST JUMPDEST ADD DUP3 PUSH1 0xFF AND PUSH1 0x3 DUP2 LT PUSH2 0x63 JUMPI PUSH2 0x62 PUSH2 0x157 JUMP JUMPDEST JUMPDEST PUSH1 0x20 SWAP2 DUP3 DUP3 DIV ADD SWAP2 SWAP1 MOD PUSH2 0x100 EXP DUP2 SLOAD DUP2 PUSH1 0xFF MUL NOT AND SWAP1 DUP4 PUSH1 0x0 SIGNEXTEND PUSH1 0xFF AND MUL OR SWAP1 SSTORE POP DUP1 DUP1 PUSH2 0x91 SWAP1 PUSH2 0xFE JUMP JUMPDEST SWAP2 POP POP PUSH2 0x26 JUMP JUMPDEST POP DUP1 DUP1 PUSH2 0xA5 SWAP1 PUSH2 0xFE JUMP JUMPDEST SWAP2 POP POP PUSH2 0x14 JUMP JUMPDEST POP PUSH1 0x1 PUSH1 0x3 PUSH1 0x0 PUSH2 0x100 EXP DUP2 SLOAD DUP2 PUSH1 0xFF MUL NOT AND SWAP1 DUP4 PUSH1 0x0 SIGNEXTEND PUSH1 0xFF AND MUL OR SWAP1 SSTORE POP PUSH1 0x0 PUSH1 0x3 PUSH1 0x1 PUSH2 0x100 EXP DUP2 SLOAD DUP2 PUSH1 0xFF MUL NOT AND SWAP1 DUP4 PUSH1 0x0 SIGNEXTEND PUSH1 0xFF AND MUL OR SWAP1 SSTORE POP PUSH2 0x186 JUMP JUMPDEST PUSH1 0x0 PUSH1 0xFF DUP3 AND SWAP1 POP SWAP2 SWAP1 POP JUMP JUMPDEST PUSH1 0x0 PUSH2 0x109 DUP3 PUSH2 0xF1 JUMP JUMPDEST SWAP2 POP PUSH1 0xFF DUP3 EQ ISZERO PUSH2 0x11D JUMPI PUSH2 0x11C PUSH2 0x128 JUMP JUMPDEST JUMPDEST PUSH1 0x1 DUP3 ADD SWAP1 POP SWAP2 SWAP1 POP JUMP JUMPDEST PUSH32 0x4E487B7100000000000000000000000000000000000000000000000000000000 PUSH1 0x0 MSTORE PUSH1 0x11 PUSH1 0x4 MSTORE PUSH1 0x24 PUSH1 0x0 REVERT JUMPDEST PUSH32 0x4E487B7100000000000000000000000000000000000000000000000000000000 PUSH1 0x0 MSTORE PUSH1 0x32 PUSH1 0x4 MSTORE PUSH1 0x24 PUSH1 0x0 REVERT JUMPDEST PUSH2 0x9B9 DUP1 PUSH2 0x195 PUSH1 0x0 CODECOPY PUSH1 0x0 RETURN INVALID PUSH1 0x80 PUSH1 0x40 MSTORE CALLVALUE DUP1 ISZERO PUSH2 0x10 JUMPI PUSH1 0x0 DUP1 REVERT JUMPDEST POP PUSH1 0x4 CALLDATASIZE LT PUSH2 0x4C JUMPI PUSH1 0x0 CALLDATALOAD PUSH1 0xE0 SHR DUP1 PUSH4 0x701BD985 EQ PUSH2 0x51 JUMPI DUP1 PUSH4 0x8086A92A EQ PUSH2 0x6D JUMPI DUP1 PUSH4 0xDFBF53AE EQ PUSH2 0x9D JUMPI DUP1 PUSH4 0xE3450E13 EQ PUSH2 0xBB JUMPI JUMPDEST PUSH1 0x0 DUP1 REVERT JUMPDEST PUSH2 0x6B PUSH1 0x4 DUP1 CALLDATASIZE SUB DUP2 ADD SWAP1 PUSH2 0x66 SWAP2 SWAP1 PUSH2 0x6D4 JUMP JUMPDEST PUSH2 0xD9 JUMP JUMPDEST STOP JUMPDEST PUSH2 0x87 PUSH1 0x4 DUP1 CALLDATASIZE SUB DUP2 ADD SWAP1 PUSH2 0x82 SWAP2 SWAP1 PUSH2 0x694 JUMP JUMPDEST PUSH2 0x259 JUMP JUMPDEST PUSH1 0x40 MLOAD PUSH2 0x94 SWAP2 SWAP1 PUSH2 0x769 JUMP JUMPDEST PUSH1 0x40 MLOAD DUP1 SWAP2 SUB SWAP1 RETURN JUMPDEST PUSH2 0xA5 PUSH2 0x295 JUMP JUMPDEST PUSH1 0x40 MLOAD PUSH2 0xB2 SWAP2 SWAP1 PUSH2 0x769 JUMP JUMPDEST PUSH1 0x40 MLOAD DUP1 SWAP2 SUB SWAP1 RETURN JUMPDEST PUSH2 0xC3 PUSH2 0x2A8 JUMP JUMPDEST PUSH1 0x40 MLOAD PUSH2 0xD0 SWAP2 SWAP1 PUSH2 0x769 JUMP JUMPDEST PUSH1 0x40 MLOAD DUP1 SWAP2 SUB SWAP1 RETURN JUMPDEST PUSH1 0x0 PUSH1 0x3 PUSH1 0x1 SWAP1 SLOAD SWAP1 PUSH2 0x100 EXP SWAP1 DIV PUSH1 0x0 SIGNEXTEND PUSH1 0x0 SIGNEXTEND EQ PUSH2 0x12E JUMPI PUSH1 0x40 MLOAD PUSH32 0x8C379A000000000000000000000000000000000000000000000000000000000 DUP2 MSTORE PUSH1 0x4 ADD PUSH2 0x125 SWAP1 PUSH2 0x784 JUMP JUMPDEST PUSH1 0x40 MLOAD DUP1 SWAP2 SUB SWAP1 REVERT JUMPDEST PUSH1 0x0 DUP1 DUP4 PUSH1 0xFF AND PUSH1 0x3 DUP2 LT PUSH2 0x146 JUMPI PUSH2 0x145 PUSH2 0x8CF JUMP JUMPDEST JUMPDEST ADD DUP3 PUSH1 0xFF AND PUSH1 0x3 DUP2 LT PUSH2 0x15C JUMPI PUSH2 0x15B PUSH2 0x8CF JUMP JUMPDEST JUMPDEST PUSH1 0x20 SWAP2 DUP3 DUP3 DIV ADD SWAP2 SWAP1 MOD SWAP1 SLOAD SWAP1 PUSH2 0x100 EXP SWAP1 DIV PUSH1 0x0 SIGNEXTEND PUSH1 0x0 SIGNEXTEND EQ PUSH2 0x1B5 JUMPI PUSH1 0x40 MLOAD PUSH32 0x8C379A000000000000000000000000000000000000000000000000000000000 DUP2 MSTORE PUSH1 0x4 ADD PUSH2 0x1AC SWAP1 PUSH2 0x7A4 JUMP JUMPDEST PUSH1 0x40 MLOAD DUP1 SWAP2 SUB SWAP1 REVERT JUMPDEST PUSH1 0x3 PUSH1 0x0 SWAP1 SLOAD SWAP1 PUSH2 0x100 EXP SWAP1 DIV PUSH1 0x0 SIGNEXTEND PUSH1 0x0 DUP4 PUSH1 0xFF AND PUSH1 0x3 DUP2 LT PUSH2 0x1DC JUMPI PUSH2 0x1DB PUSH2 0x8CF JUMP JUMPDEST JUMPDEST ADD DUP3 PUSH1 0xFF AND PUSH1 0x3 DUP2 LT PUSH2 0x1F2 JUMPI PUSH2 0x1F1 PUSH2 0x8CF JUMP JUMPDEST JUMPDEST PUSH1 0x20 SWAP2 DUP3 DUP3 DIV ADD SWAP2 SWAP1 MOD PUSH2 0x100 EXP DUP2 SLOAD DUP2 PUSH1 0xFF MUL NOT AND SWAP1 DUP4 PUSH1 0x0 SIGNEXTEND PUSH1 0xFF AND MUL OR SWAP1 SSTORE POP PUSH1 0x3 PUSH1 0x0 SWAP1 SLOAD SWAP1 PUSH2 0x100 EXP SWAP1 DIV PUSH1 0x0 SIGNEXTEND PUSH2 0x22E SWAP1 PUSH2 0x857 JUMP JUMPDEST PUSH1 0x3 PUSH1 0x0 PUSH2 0x100 EXP DUP2 SLOAD DUP2 PUSH1 0xFF MUL NOT AND SWAP1 DUP4 PUSH1 0x0 SIGNEXTEND PUSH1 0xFF AND MUL OR SWAP1 SSTORE POP PUSH2 0x255 DUP3 DUP3 PUSH2 0x2BB JUMP JUMPDEST POP POP JUMP JUMPDEST PUSH1 0x0 DUP3 PUSH1 0x3 DUP2 LT PUSH2 0x269 JUMPI PUSH1 0x0 DUP1 REVERT JUMPDEST ADD DUP2 PUSH1 0x3 DUP2 LT PUSH2 0x278 JUMPI PUSH1 0x0 DUP1 REVERT JUMPDEST PUSH1 0x20 SWAP2 DUP3 DUP3 DIV ADD SWAP2 SWAP1 MOD SWAP2 POP SWAP2 POP SWAP1 SLOAD SWAP1 PUSH2 0x100 EXP SWAP1 DIV PUSH1 0x0 SIGNEXTEND DUP2 JUMP JUMPDEST PUSH1 0x3 PUSH1 0x1 SWAP1 SLOAD SWAP1 PUSH2 0x100 EXP SWAP1 DIV PUSH1 0x0 SIGNEXTEND DUP2 JUMP JUMPDEST PUSH1 0x3 PUSH1 0x0 SWAP1 SLOAD SWAP1 PUSH2 0x100 EXP SWAP1 DIV PUSH1 0x0 SIGNEXTEND DUP2 JUMP JUMPDEST PUSH1 0x0 JUMPDEST PUSH1 0x3 PUSH1 0xFF AND DUP2 PUSH1 0xFF AND LT ISZERO PUSH2 0x391 JUMPI PUSH1 0x3 PUSH1 0x0 SWAP1 SLOAD SWAP1 PUSH2 0x100 EXP SWAP1 DIV PUSH1 0x0 SIGNEXTEND PUSH1 0x0 SIGNEXTEND PUSH1 0x0 DUP5 PUSH1 0xFF AND PUSH1 0x3 DUP2 LT PUSH2 0x2F7 JUMPI PUSH2 0x2F6 PUSH2 0x8CF JUMP JUMPDEST JUMPDEST ADD DUP3 PUSH1 0xFF AND PUSH1 0x3 DUP2 LT PUSH2 0x30D JUMPI PUSH2 0x30C PUSH2 0x8CF JUMP JUMPDEST JUMPDEST PUSH1 0x20 SWAP2 DUP3 DUP3 DIV ADD SWAP2 SWAP1 MOD SWAP1 SLOAD SWAP1 PUSH2 0x100 EXP SWAP1 DIV PUSH1 0x0 SIGNEXTEND PUSH1 0x0 SIGNEXTEND EQ PUSH2 0x330 JUMPI PUSH2 0x391 JUMP JUMPDEST PUSH1 0x1 PUSH1 0x3 PUSH2 0x33E SWAP2 SWAP1 PUSH2 0x7D5 JUMP JUMPDEST PUSH1 0xFF AND DUP2 PUSH1 0xFF AND EQ ISZERO PUSH2 0x37E JUMPI PUSH1 0x3 PUSH1 0x0 SWAP1 SLOAD SWAP1 PUSH2 0x100 EXP SWAP1 DIV PUSH1 0x0 SIGNEXTEND PUSH1 0x3 PUSH1 0x1 PUSH2 0x100 EXP DUP2 SLOAD DUP2 PUSH1 0xFF MUL NOT AND SWAP1 DUP4 PUSH1 0x0 SIGNEXTEND PUSH1 0xFF AND MUL OR SWAP1 SSTORE POP POP PUSH2 0x666 JUMP JUMPDEST DUP1 DUP1 PUSH2 0x389 SWAP1 PUSH2 0x82D JUMP JUMPDEST SWAP2 POP POP PUSH2 0x2BE JUMP JUMPDEST POP PUSH1 0x0 JUMPDEST PUSH1 0x3 PUSH1 0xFF AND DUP2 PUSH1 0xFF AND LT ISZERO PUSH2 0x468 JUMPI PUSH1 0x3 PUSH1 0x0 SWAP1 SLOAD SWAP1 PUSH2 0x100 EXP SWAP1 DIV PUSH1 0x0 SIGNEXTEND PUSH1 0x0 SIGNEXTEND PUSH1 0x0 DUP3 PUSH1 0xFF AND PUSH1 0x3 DUP2 LT PUSH2 0x3CE JUMPI PUSH2 0x3CD PUSH2 0x8CF JUMP JUMPDEST JUMPDEST ADD DUP4 PUSH1 0xFF AND PUSH1 0x3 DUP2 LT PUSH2 0x3E4 JUMPI PUSH2 0x3E3 PUSH2 0x8CF JUMP JUMPDEST JUMPDEST PUSH1 0x20 SWAP2 DUP3 DUP3 DIV ADD SWAP2 SWAP1 MOD SWAP1 SLOAD SWAP1 PUSH2 0x100 EXP SWAP1 DIV PUSH1 0x0 SIGNEXTEND PUSH1 0x0 SIGNEXTEND EQ PUSH2 0x407 JUMPI PUSH2 0x468 JUMP JUMPDEST PUSH1 0x1 PUSH1 0x3 PUSH2 0x415 SWAP2 SWAP1 PUSH2 0x7D5 JUMP JUMPDEST PUSH1 0xFF AND DUP2 PUSH1 0xFF AND EQ ISZERO PUSH2 0x455 JUMPI PUSH1 0x3 PUSH1 0x0 SWAP1 SLOAD SWAP1 PUSH2 0x100 EXP SWAP1 DIV PUSH1 0x0 SIGNEXTEND PUSH1 0x3 PUSH1 0x1 PUSH2 0x100 EXP DUP2 SLOAD DUP2 PUSH1 0xFF MUL NOT AND SWAP1 DUP4 PUSH1 0x0 SIGNEXTEND PUSH1 0xFF AND MUL OR SWAP1 SSTORE POP POP PUSH2 0x666 JUMP JUMPDEST DUP1 DUP1 PUSH2 0x460 SWAP1 PUSH2 0x82D JUMP JUMPDEST SWAP2 POP POP PUSH2 0x395 JUMP JUMPDEST POP DUP1 PUSH1 0xFF AND DUP3 PUSH1 0xFF AND EQ ISZERO PUSH2 0x54F JUMPI PUSH1 0x0 JUMPDEST PUSH1 0x3 PUSH1 0xFF AND DUP2 PUSH1 0xFF AND LT ISZERO PUSH2 0x54D JUMPI PUSH1 0x3 PUSH1 0x0 SWAP1 SLOAD SWAP1 PUSH2 0x100 EXP SWAP1 DIV PUSH1 0x0 SIGNEXTEND PUSH1 0x0 SIGNEXTEND PUSH1 0x0 DUP3 PUSH1 0xFF AND PUSH1 0x3 DUP2 LT PUSH2 0x4B3 JUMPI PUSH2 0x4B2 PUSH2 0x8CF JUMP JUMPDEST JUMPDEST ADD DUP3 PUSH1 0xFF AND PUSH1 0x3 DUP2 LT PUSH2 0x4C9 JUMPI PUSH2 0x4C8 PUSH2 0x8CF JUMP JUMPDEST JUMPDEST PUSH1 0x20 SWAP2 DUP3 DUP3 DIV ADD SWAP2 SWAP1 MOD SWAP1 SLOAD SWAP1 PUSH2 0x100 EXP SWAP1 DIV PUSH1 0x0 SIGNEXTEND PUSH1 0x0 SIGNEXTEND EQ PUSH2 0x4EC JUMPI PUSH2 0x54D JUMP JUMPDEST PUSH1 0x1 PUSH1 0x3 PUSH2 0x4FA SWAP2 SWAP1 PUSH2 0x7D5 JUMP JUMPDEST PUSH1 0xFF AND DUP2 PUSH1 0xFF AND EQ ISZERO PUSH2 0x53A JUMPI PUSH1 0x3 PUSH1 0x0 SWAP1 SLOAD SWAP1 PUSH2 0x100 EXP SWAP1 DIV PUSH1 0x0 SIGNEXTEND PUSH1 0x3 PUSH1 0x1 PUSH2 0x100 EXP DUP2 SLOAD DUP2 PUSH1 0xFF MUL NOT AND SWAP1 DUP4 PUSH1 0x0 SIGNEXTEND PUSH1 0xFF AND MUL OR SWAP1 SSTORE POP POP PUSH2 0x666 JUMP JUMPDEST DUP1 DUP1 PUSH2 0x545 SWAP1 PUSH2 0x82D JUMP JUMPDEST SWAP2 POP POP PUSH2 0x47A JUMP JUMPDEST POP JUMPDEST PUSH1 0x1 DUP2 PUSH1 0x3 PUSH2 0x55E SWAP2 SWAP1 PUSH2 0x7D5 JUMP JUMPDEST PUSH2 0x568 SWAP2 SWAP1 PUSH2 0x7D5 JUMP JUMPDEST PUSH1 0xFF AND DUP3 PUSH1 0xFF AND EQ ISZERO PUSH2 0x665 JUMPI PUSH1 0x0 JUMPDEST PUSH1 0x3 PUSH1 0xFF AND DUP2 PUSH1 0xFF AND LT ISZERO PUSH2 0x663 JUMPI PUSH1 0x3 PUSH1 0x0 SWAP1 SLOAD SWAP1 PUSH2 0x100 EXP SWAP1 DIV PUSH1 0x0 SIGNEXTEND PUSH1 0x0 SIGNEXTEND PUSH1 0x0 DUP3 PUSH1 0xFF AND PUSH1 0x3 DUP2 LT PUSH2 0x5B1 JUMPI PUSH2 0x5B0 PUSH2 0x8CF JUMP JUMPDEST JUMPDEST ADD PUSH1 0x1 DUP4 PUSH1 0x3 PUSH2 0x5C1 SWAP2 SWAP1 PUSH2 0x7D5 JUMP JUMPDEST PUSH2 0x5CB SWAP2 SWAP1 PUSH2 0x7D5 JUMP JUMPDEST PUSH1 0xFF AND PUSH1 0x3 DUP2 LT PUSH2 0x5DF JUMPI PUSH2 0x5DE PUSH2 0x8CF JUMP JUMPDEST JUMPDEST PUSH1 0x20 SWAP2 DUP3 DUP3 DIV ADD SWAP2 SWAP1 MOD SWAP1 SLOAD SWAP1 PUSH2 0x100 EXP SWAP1 DIV PUSH1 0x0 SIGNEXTEND PUSH1 0x0 SIGNEXTEND EQ PUSH2 0x602 JUMPI PUSH2 0x663 JUMP JUMPDEST PUSH1 0x1 PUSH1 0x3 PUSH2 0x610 SWAP2 SWAP1 PUSH2 0x7D5 JUMP JUMPDEST PUSH1 0xFF AND DUP2 PUSH1 0xFF AND EQ ISZERO PUSH2 0x650 JUMPI PUSH1 0x3 PUSH1 0x0 SWAP1 SLOAD SWAP1 PUSH2 0x100 EXP SWAP1 DIV PUSH1 0x0 SIGNEXTEND PUSH1 0x3 PUSH1 0x1 PUSH2 0x100 EXP DUP2 SLOAD DUP2 PUSH1 0xFF MUL NOT AND SWAP1 DUP4 PUSH1 0x0 SIGNEXTEND PUSH1 0xFF AND MUL OR SWAP1 SSTORE POP POP PUSH2 0x666 JUMP JUMPDEST DUP1 DUP1 PUSH2 0x65B SWAP1 PUSH2 0x82D JUMP JUMPDEST SWAP2 POP POP PUSH2 0x578 JUMP JUMPDEST POP JUMPDEST JUMPDEST POP POP JUMP JUMPDEST PUSH1 0x0 DUP2 CALLDATALOAD SWAP1 POP PUSH2 0x679 DUP2 PUSH2 0x955 JUMP JUMPDEST SWAP3 SWAP2 POP POP JUMP JUMPDEST PUSH1 0x0 DUP2 CALLDATALOAD SWAP1 POP PUSH2 0x68E DUP2 PUSH2 0x96C JUMP JUMPDEST SWAP3 SWAP2 POP POP JUMP JUMPDEST PUSH1 0x0 DUP1 PUSH1 0x40 DUP4 DUP6 SUB SLT ISZERO PUSH2 0x6AB JUMPI PUSH2 0x6AA PUSH2 0x8FE JUMP JUMPDEST JUMPDEST PUSH1 0x0 PUSH2 0x6B9 DUP6 DUP3 DUP7 ADD PUSH2 0x66A JUMP JUMPDEST SWAP3 POP POP PUSH1 0x20 PUSH2 0x6CA DUP6 DUP3 DUP7 ADD PUSH2 0x66A JUMP JUMPDEST SWAP2 POP POP SWAP3 POP SWAP3 SWAP1 POP JUMP JUMPDEST PUSH1 0x0 DUP1 PUSH1 0x40 DUP4 DUP6 SUB SLT ISZERO PUSH2 0x6EB JUMPI PUSH2 0x6EA PUSH2 0x8FE JUMP JUMPDEST JUMPDEST PUSH1 0x0 PUSH2 0x6F9 DUP6 DUP3 DUP7 ADD PUSH2 0x67F JUMP JUMPDEST SWAP3 POP POP PUSH1 0x20 PUSH2 0x70A DUP6 DUP3 DUP7 ADD PUSH2 0x67F JUMP JUMPDEST SWAP2 POP POP SWAP3 POP SWAP3 SWAP1 POP JUMP JUMPDEST PUSH2 0x71D DUP2 PUSH2 0x809 JUMP JUMPDEST DUP3 MSTORE POP POP JUMP JUMPDEST PUSH1 0x0 PUSH2 0x730 PUSH1 0xB DUP4 PUSH2 0x7C4 JUMP JUMPDEST SWAP2 POP PUSH2 0x73B DUP3 PUSH2 0x903 JUMP JUMPDEST PUSH1 0x20 DUP3 ADD SWAP1 POP SWAP2 SWAP1 POP JUMP JUMPDEST PUSH1 0x0 PUSH2 0x753 PUSH1 0x15 DUP4 PUSH2 0x7C4 JUMP JUMPDEST SWAP2 POP PUSH2 0x75E DUP3 PUSH2 0x92C JUMP JUMPDEST PUSH1 0x20 DUP3 ADD SWAP1 POP SWAP2 SWAP1 POP JUMP JUMPDEST PUSH1 0x0 PUSH1 0x20 DUP3 ADD SWAP1 POP PUSH2 0x77E PUSH1 0x0 DUP4 ADD DUP5 PUSH2 0x714 JUMP JUMPDEST SWAP3 SWAP2 POP POP JUMP JUMPDEST PUSH1 0x0 PUSH1 0x20 DUP3 ADD SWAP1 POP DUP2 DUP2 SUB PUSH1 0x0 DUP4 ADD MSTORE PUSH2 0x79D DUP2 PUSH2 0x723 JUMP JUMPDEST SWAP1 POP SWAP2 SWAP1 POP JUMP JUMPDEST PUSH1 0x0 PUSH1 0x20 DUP3 ADD SWAP1 POP DUP2 DUP2 SUB PUSH1 0x0 DUP4 ADD MSTORE PUSH2 0x7BD DUP2 PUSH2 0x746 JUMP JUMPDEST SWAP1 POP SWAP2 SWAP1 POP JUMP JUMPDEST PUSH1 0x0 DUP3 DUP3 MSTORE PUSH1 0x20 DUP3 ADD SWAP1 POP SWAP3 SWAP2 POP POP JUMP JUMPDEST PUSH1 0x0 PUSH2 0x7E0 DUP3 PUSH2 0x820 JUMP JUMPDEST SWAP2 POP PUSH2 0x7EB DUP4 PUSH2 0x820 JUMP JUMPDEST SWAP3 POP DUP3 DUP3 LT ISZERO PUSH2 0x7FE JUMPI PUSH2 0x7FD PUSH2 0x8A0 JUMP JUMPDEST JUMPDEST DUP3 DUP3 SUB SWAP1 POP SWAP3 SWAP2 POP POP JUMP JUMPDEST PUSH1 0x0 DUP2 PUSH1 0x0 SIGNEXTEND SWAP1 POP SWAP2 SWAP1 POP JUMP JUMPDEST PUSH1 0x0 DUP2 SWAP1 POP SWAP2 SWAP1 POP JUMP JUMPDEST PUSH1 0x0 PUSH1 0xFF DUP3 AND SWAP1 POP SWAP2 SWAP1 POP JUMP JUMPDEST PUSH1 0x0 PUSH2 0x838 DUP3 PUSH2 0x820 JUMP JUMPDEST SWAP2 POP PUSH1 0xFF DUP3 EQ ISZERO PUSH2 0x84C JUMPI PUSH2 0x84B PUSH2 0x8A0 JUMP JUMPDEST JUMPDEST PUSH1 0x1 DUP3 ADD SWAP1 POP SWAP2 SWAP1 POP JUMP JUMPDEST PUSH1 0x0 PUSH2 0x862 DUP3 PUSH2 0x809 JUMP JUMPDEST SWAP2 POP PUSH32 0xFFFFFFFFFFFFFFFFFFFFFFFFFFFFFFFFFFFFFFFFFFFFFFFFFFFFFFFFFFFFFF80 DUP3 EQ ISZERO PUSH2 0x895 JUMPI PUSH2 0x894 PUSH2 0x8A0 JUMP JUMPDEST JUMPDEST DUP2 PUSH1 0x0 SUB SWAP1 POP SWAP2 SWAP1 POP JUMP JUMPDEST PUSH32 0x4E487B7100000000000000000000000000000000000000000000000000000000 PUSH1 0x0 MSTORE PUSH1 0x11 PUSH1 0x4 MSTORE PUSH1 0x24 PUSH1 0x0 REVERT JUMPDEST PUSH32 0x4E487B7100000000000000000000000000000000000000000000000000000000 PUSH1 0x0 MSTORE PUSH1 0x32 PUSH1 0x4 MSTORE PUSH1 0x24 PUSH1 0x0 REVERT JUMPDEST PUSH1 0x0 DUP1 REVERT JUMPDEST PUSH32 0x4F79756E206269746D6973000000000000000000000000000000000000000000 PUSH1 0x0 DUP3 ADD MSTORE POP JUMP JUMPDEST PUSH32 0x42656C697274696C656E206B6F6E756D20646F6C750000000000000000000000 PUSH1 0x0 DUP3 ADD MSTORE POP JUMP JUMPDEST PUSH2 0x95E DUP2 PUSH2 0x816 JUMP JUMPDEST DUP2 EQ PUSH2 0x969 JUMPI PUSH1 0x0 DUP1 REVERT JUMPDEST POP JUMP JUMPDEST PUSH2 0x975 DUP2 PUSH2 0x820 JUMP JUMPDEST DUP2 EQ PUSH2 0x980 JUMPI PUSH1 0x0 DUP1 REVERT JUMPDEST POP JUMP INVALID LOG2 PUSH5 0x6970667358 0x22 SLT KECCAK256 0xDA PUSH18 0xAE93CE7C39821589C421BC27EA18CD43B306 0xD9 0x2D 0xA6 0xC9 DUP8 DUP1 DUP15 0xBD 0xFC 0xEA PUSH8 0x464736F6C634300 ADDMOD SMOD STOP CALLER "
		},
		"gasEstimates": {
			"creation": {
				"codeDepositCost": "497800",
				"executionCost": "infinite",
				"totalCost": "infinite"
			},
			"external": {
				"board(uint256,uint256)": "infinite",
				"lastPlayer()": "2519",
				"move(uint8,uint8)": "infinite",
				"winner()": "2547"
			},
			"internal": {
				"checkWin(uint8,uint8)": "infinite"
			}
		},
		"methodIdentifiers": {
			"board(uint256,uint256)": "8086a92a",
			"lastPlayer()": "e3450e13",
			"move(uint8,uint8)": "701bd985",
			"winner()": "dfbf53ae"
		}
	},
	"abi": [
		{
			"inputs": [],
			"stateMutability": "nonpayable",
			"type": "constructor"
		},
		{
			"inputs": [
				{
					"internalType": "uint256",
					"name": "",
					"type": "uint256"
				},
				{
					"internalType": "uint256",
					"name": "",
					"type": "uint256"
				}
			],
			"name": "board",
			"outputs": [
				{
					"internalType": "int8",
					"name": "",
					"type": "int8"
				}
			],
			"stateMutability": "view",
			"type": "function"
		},
		{
			"inputs": [],
			"name": "lastPlayer",
			"outputs": [
				{
					"internalType": "int8",
					"name": "",
					"type": "int8"
				}
			],
			"stateMutability": "view",
			"type": "function"
		},
		{
			"inputs": [
				{
					"internalType": "uint8",
					"name": "x",
					"type": "uint8"
				},
				{
					"internalType": "uint8",
					"name": "y",
					"type": "uint8"
				}
			],
			"name": "move",
			"outputs": [],
			"stateMutability": "nonpayable",
			"type": "function"
		},
		{
			"inputs": [],
			"name": "winner",
			"outputs": [
				{
					"internalType": "int8",
					"name": "",
					"type": "int8"
				}
			],
			"stateMutability": "view",
			"type": "function"
		}
	]
}