{
	"contract/tic_tac_toe.sol": {
		"TicTacToe": {
			"abi": [
				{
					"inputs": [],
					"stateMutability": "nonpayable",
					"type": "constructor"
				},
				{
					"inputs": [],
					"name": "getBoard",
					"outputs": [
						{
							"internalType": "uint8[3][3]",
							"name": "",
							"type": "uint8[3][3]"
						}
					],
					"stateMutability": "view",
					"type": "function"
				},
				{
					"inputs": [
						{
							"internalType": "uint8",
							"name": "x",
							"type": "uint8"
						},
						{
							"internalType": "uint8",
							"name": "y",
							"type": "uint8"
						}
					],
					"name": "move",
					"outputs": [],
					"stateMutability": "payable",
					"type": "function"
				},
				{
					"inputs": [
						{
							"internalType": "uint8",
							"name": "x",
							"type": "uint8"
						},
						{
							"internalType": "uint8",
							"name": "y",
							"type": "uint8"
						}
					],
					"name": "play",
					"outputs": [],
					"stateMutability": "nonpayable",
					"type": "function"
				},
				{
					"inputs": [],
					"name": "startGame",
					"outputs": [],
					"stateMutability": "nonpayable",
					"type": "function"
				},
				{
					"inputs": [],
					"name": "winnerPlayer",
					"outputs": [
						{
							"internalType": "uint256",
							"name": "",
							"type": "uint256"
						}
					],
					"stateMutability": "view",
					"type": "function"
				}
			],
			"devdoc": {
				"kind": "dev",
				"methods": {},
				"version": 1
			},
			"evm": {
				"assembly": "    /* \"contract/tic_tac_toe.sol\":62:4219  contract TicTacToe {... */\n  mstore(0x40, 0x80)\n    /* \"contract/tic_tac_toe.sol\":247:610  constructor() public {... */\n  callvalue\n  dup1\n  iszero\n  tag_1\n  jumpi\n  0x00\n  dup1\n  revert\ntag_1:\n  pop\n    /* \"contract/tic_tac_toe.sol\":323:330  uint8 i */\n  0x00\n    /* \"contract/tic_tac_toe.sol\":318:472  for (uint8 i = 0; i < BOARD_SIZE; i++) {... */\ntag_4:\n    /* \"contract/tic_tac_toe.sol\":116:117  3 */\n  0x03\n    /* \"contract/tic_tac_toe.sol\":336:350  i < BOARD_SIZE */\n  0xff\n  and\n    /* \"contract/tic_tac_toe.sol\":336:337  i */\n  dup2\n    /* \"contract/tic_tac_toe.sol\":336:350  i < BOARD_SIZE */\n  0xff\n  and\n  lt\n    /* \"contract/tic_tac_toe.sol\":318:472  for (uint8 i = 0; i < BOARD_SIZE; i++) {... */\n  iszero\n  tag_5\n  jumpi\n    /* \"contract/tic_tac_toe.sol\":377:384  uint8 j */\n  0x00\n    /* \"contract/tic_tac_toe.sol\":372:461  for (uint8 j = 0; j < BOARD_SIZE; j++) {... */\ntag_7:\n    /* \"contract/tic_tac_toe.sol\":116:117  3 */\n  0x03\n    /* \"contract/tic_tac_toe.sol\":390:404  j < BOARD_SIZE */\n  0xff\n  and\n    /* \"contract/tic_tac_toe.sol\":390:391  j */\n  dup2\n    /* \"contract/tic_tac_toe.sol\":390:404  j < BOARD_SIZE */\n  0xff\n  and\n  lt\n    /* \"contract/tic_tac_toe.sol\":372:461  for (uint8 j = 0; j < BOARD_SIZE; j++) {... */\n  iszero\n  tag_8\n  jumpi\n    /* \"contract/tic_tac_toe.sol\":444:445  0 */\n  0x00\n    /* \"contract/tic_tac_toe.sol\":430:435  board */\n  dup1\n    /* \"contract/tic_tac_toe.sol\":436:437  i */\n  dup4\n    /* \"contract/tic_tac_toe.sol\":430:438  board[i] */\n  0xff\n  and\n  0x03\n  dup2\n  lt\n  tag_10\n  jumpi\n  tag_11\n  tag_12\n  jump\t// in\ntag_11:\ntag_10:\n  add\n    /* \"contract/tic_tac_toe.sol\":439:440  j */\n  dup3\n    /* \"contract/tic_tac_toe.sol\":430:441  board[i][j] */\n  0xff\n  and\n  0x03\n  dup2\n  lt\n  tag_14\n  jumpi\n  tag_15\n  tag_12\n  jump\t// in\ntag_15:\ntag_14:\n  0x20\n  swap2\n  dup3\n  dup3\n  div\n  add\n  swap2\n  swap1\n  mod\n    /* \"contract/tic_tac_toe.sol\":430:445  board[i][j] = 0 */\n  0x0100\n  exp\n  dup2\n  sload\n  dup2\n  0xff\n  mul\n  not\n  and\n  swap1\n  dup4\n  0xff\n  and\n  mul\n  or\n  swap1\n  sstore\n  pop\n    /* \"contract/tic_tac_toe.sol\":406:409  j++ */\n  dup1\n  dup1\n  tag_17\n  swap1\n  tag_18\n  jump\t// in\ntag_17:\n  swap2\n  pop\n  pop\n    /* \"contract/tic_tac_toe.sol\":372:461  for (uint8 j = 0; j < BOARD_SIZE; j++) {... */\n  jump(tag_7)\ntag_8:\n  pop\n    /* \"contract/tic_tac_toe.sol\":352:355  i++ */\n  dup1\n  dup1\n  tag_19\n  swap1\n  tag_18\n  jump\t// in\ntag_19:\n  swap2\n  pop\n  pop\n    /* \"contract/tic_tac_toe.sol\":318:472  for (uint8 i = 0; i < BOARD_SIZE; i++) {... */\n  jump(tag_4)\ntag_5:\n  pop\n    /* \"contract/tic_tac_toe.sol\":545:546  1 */\n  0x01\n    /* \"contract/tic_tac_toe.sol\":532:542  lastPlayer */\n  0x03\n  0x00\n    /* \"contract/tic_tac_toe.sol\":532:546  lastPlayer = 1 */\n  0x0100\n  exp\n  dup2\n  sload\n  dup2\n  0xff\n  mul\n  not\n  and\n  swap1\n  dup4\n  0xff\n  and\n  mul\n  or\n  swap1\n  sstore\n  pop\n    /* \"contract/tic_tac_toe.sol\":601:602  0 */\n  0x00\n    /* \"contract/tic_tac_toe.sol\":592:598  winner */\n  0x03\n  0x02\n    /* \"contract/tic_tac_toe.sol\":592:602  winner = 0 */\n  0x0100\n  exp\n  dup2\n  sload\n  dup2\n  0xff\n  mul\n  not\n  and\n  swap1\n  dup4\n  0xff\n  and\n  mul\n  or\n  swap1\n  sstore\n  pop\n    /* \"contract/tic_tac_toe.sol\":62:4219  contract TicTacToe {... */\n  jump(tag_20)\n    /* \"#utility.yul\":7:187   */\ntag_12:\n    /* \"#utility.yul\":55:132   */\n  0x4e487b7100000000000000000000000000000000000000000000000000000000\n    /* \"#utility.yul\":52:53   */\n  0x00\n    /* \"#utility.yul\":45:133   */\n  mstore\n    /* \"#utility.yul\":152:156   */\n  0x32\n    /* \"#utility.yul\":149:150   */\n  0x04\n    /* \"#utility.yul\":142:157   */\n  mstore\n    /* \"#utility.yul\":176:180   */\n  0x24\n    /* \"#utility.yul\":173:174   */\n  0x00\n    /* \"#utility.yul\":166:181   */\n  revert\n    /* \"#utility.yul\":193:373   */\ntag_21:\n    /* \"#utility.yul\":241:318   */\n  0x4e487b7100000000000000000000000000000000000000000000000000000000\n    /* \"#utility.yul\":238:239   */\n  0x00\n    /* \"#utility.yul\":231:319   */\n  mstore\n    /* \"#utility.yul\":338:342   */\n  0x11\n    /* \"#utility.yul\":335:336   */\n  0x04\n    /* \"#utility.yul\":328:343   */\n  mstore\n    /* \"#utility.yul\":362:366   */\n  0x24\n    /* \"#utility.yul\":359:360   */\n  0x00\n    /* \"#utility.yul\":352:367   */\n  revert\n    /* \"#utility.yul\":379:465   */\ntag_22:\n    /* \"#utility.yul\":414:421   */\n  0x00\n    /* \"#utility.yul\":454:458   */\n  0xff\n    /* \"#utility.yul\":447:452   */\n  dup3\n    /* \"#utility.yul\":443:459   */\n  and\n    /* \"#utility.yul\":432:459   */\n  swap1\n  pop\n    /* \"#utility.yul\":379:465   */\n  swap2\n  swap1\n  pop\n  jump\t// out\n    /* \"#utility.yul\":471:638   */\ntag_18:\n    /* \"#utility.yul\":508:511   */\n  0x00\n    /* \"#utility.yul\":531:553   */\n  tag_28\n    /* \"#utility.yul\":547:552   */\n  dup3\n    /* \"#utility.yul\":531:553   */\n  tag_22\n  jump\t// in\ntag_28:\n    /* \"#utility.yul\":522:553   */\n  swap2\n  pop\n    /* \"#utility.yul\":575:579   */\n  0xff\n    /* \"#utility.yul\":568:573   */\n  dup3\n    /* \"#utility.yul\":565:580   */\n  sub\n    /* \"#utility.yul\":562:603   */\n  tag_29\n  jumpi\n    /* \"#utility.yul\":583:601   */\n  tag_30\n  tag_21\n  jump\t// in\ntag_30:\n    /* \"#utility.yul\":562:603   */\ntag_29:\n    /* \"#utility.yul\":630:631   */\n  0x01\n    /* \"#utility.yul\":623:628   */\n  dup3\n    /* \"#utility.yul\":619:632   */\n  add\n    /* \"#utility.yul\":612:632   */\n  swap1\n  pop\n    /* \"#utility.yul\":471:638   */\n  swap2\n  swap1\n  pop\n  jump\t// out\n    /* \"contract/tic_tac_toe.sol\":62:4219  contract TicTacToe {... */\ntag_20:\n  dataSize(sub_0)\n  dup1\n  dataOffset(sub_0)\n  0x00\n  codecopy\n  0x00\n  return\nstop\n\nsub_0: assembly {\n        /* \"contract/tic_tac_toe.sol\":62:4219  contract TicTacToe {... */\n      mstore(0x40, 0x80)\n      jumpi(tag_1, lt(calldatasize, 0x04))\n      shr(0xe0, calldataload(0x00))\n      dup1\n      0x3264a34b\n      eq\n      tag_2\n      jumpi\n      dup1\n      0x654b878d\n      eq\n      tag_3\n      jumpi\n      dup1\n      0x701bd985\n      eq\n      tag_4\n      jumpi\n      dup1\n      0xd65ab5f2\n      eq\n      tag_5\n      jumpi\n      dup1\n      0xe802c36f\n      eq\n      tag_6\n      jumpi\n    tag_1:\n      0x00\n      dup1\n      revert\n        /* \"contract/tic_tac_toe.sol\":1935:2045  function getBoard() public view returns (uint8[BOARD_SIZE][BOARD_SIZE] memory) {... */\n    tag_2:\n      callvalue\n      dup1\n      iszero\n      tag_7\n      jumpi\n      0x00\n      dup1\n      revert\n    tag_7:\n      pop\n      tag_8\n      tag_9\n      jump\t// in\n    tag_8:\n      mload(0x40)\n      tag_10\n      swap2\n      swap1\n      tag_11\n      jump\t// in\n    tag_10:\n      mload(0x40)\n      dup1\n      swap2\n      sub\n      swap1\n      return\n        /* \"contract/tic_tac_toe.sol\":4051:4216  function winnerPlayer() public view returns(uint){... */\n    tag_3:\n      callvalue\n      dup1\n      iszero\n      tag_12\n      jumpi\n      0x00\n      dup1\n      revert\n    tag_12:\n      pop\n      tag_13\n      tag_14\n      jump\t// in\n    tag_13:\n      mload(0x40)\n      tag_15\n      swap2\n      swap1\n      tag_16\n      jump\t// in\n    tag_15:\n      mload(0x40)\n      dup1\n      swap2\n      sub\n      swap1\n      return\n        /* \"contract/tic_tac_toe.sol\":2053:2637  function move(uint8 x, uint8 y) public payable {... */\n    tag_4:\n      tag_17\n      0x04\n      dup1\n      calldatasize\n      sub\n      dup2\n      add\n      swap1\n      tag_18\n      swap2\n      swap1\n      tag_19\n      jump\t// in\n    tag_18:\n      tag_20\n      jump\t// in\n    tag_17:\n      stop\n        /* \"contract/tic_tac_toe.sol\":618:857  function startGame() public {... */\n    tag_5:\n      callvalue\n      dup1\n      iszero\n      tag_21\n      jumpi\n      0x00\n      dup1\n      revert\n    tag_21:\n      pop\n      tag_22\n      tag_23\n      jump\t// in\n    tag_22:\n      stop\n        /* \"contract/tic_tac_toe.sol\":865:1924  function play(uint8 x, uint8 y) public {... */\n    tag_6:\n      callvalue\n      dup1\n      iszero\n      tag_24\n      jumpi\n      0x00\n      dup1\n      revert\n    tag_24:\n      pop\n      tag_25\n      0x04\n      dup1\n      calldatasize\n      sub\n      dup2\n      add\n      swap1\n      tag_26\n      swap2\n      swap1\n      tag_19\n      jump\t// in\n    tag_26:\n      tag_27\n      jump\t// in\n    tag_25:\n      stop\n        /* \"contract/tic_tac_toe.sol\":1935:2045  function getBoard() public view returns (uint8[BOARD_SIZE][BOARD_SIZE] memory) {... */\n    tag_9:\n        /* \"contract/tic_tac_toe.sol\":1976:2012  uint8[BOARD_SIZE][BOARD_SIZE] memory */\n      tag_28\n      tag_29\n      jump\t// in\n    tag_28:\n        /* \"contract/tic_tac_toe.sol\":2032:2037  board */\n      0x00\n        /* \"contract/tic_tac_toe.sol\":2025:2037  return board */\n      0x03\n      dup1\n      0x20\n      mul\n      mload(0x40)\n      swap1\n      dup2\n      add\n      0x40\n      mstore\n      dup1\n      swap3\n      swap2\n      swap1\n      0x00\n      swap1\n    tag_31:\n      dup3\n      dup3\n      lt\n      iszero\n      tag_32\n      jumpi\n      dup4\n      dup3\n      add\n      0x03\n      dup1\n      0x20\n      mul\n      mload(0x40)\n      swap1\n      dup2\n      add\n      0x40\n      mstore\n      dup1\n      swap3\n      swap2\n      swap1\n      dup3\n      0x03\n      dup1\n      iszero\n      tag_34\n      jumpi\n      0x20\n      mul\n      dup3\n      add\n      swap2\n      0x00\n      swap1\n    tag_35:\n      dup3\n      dup3\n      swap1\n      sload\n      swap1\n      0x0100\n      exp\n      swap1\n      div\n      0xff\n      and\n      0xff\n      and\n      dup2\n      mstore\n      0x20\n      add\n      swap1\n      0x01\n      add\n      swap1\n      0x20\n      dup3\n      0x00\n      add\n      div\n      swap3\n      dup4\n      add\n      swap3\n      0x01\n      sub\n      dup3\n      mul\n      swap2\n      pop\n      dup1\n      dup5\n      gt\n      tag_35\n      jumpi\n      swap1\n      pop\n    tag_34:\n      pop\n      pop\n      pop\n      pop\n      pop\n      dup2\n      mstore\n      0x20\n      add\n      swap1\n      0x01\n      add\n      swap1\n      jump(tag_31)\n    tag_32:\n      pop\n      pop\n      pop\n      pop\n      swap1\n      pop\n        /* \"contract/tic_tac_toe.sol\":1935:2045  function getBoard() public view returns (uint8[BOARD_SIZE][BOARD_SIZE] memory) {... */\n      swap1\n      jump\t// out\n        /* \"contract/tic_tac_toe.sol\":4051:4216  function winnerPlayer() public view returns(uint){... */\n    tag_14:\n        /* \"contract/tic_tac_toe.sol\":4095:4099  uint */\n      0x00\n        /* \"contract/tic_tac_toe.sol\":4200:4206  winner */\n      0x03\n      0x02\n      swap1\n      sload\n      swap1\n      0x0100\n      exp\n      swap1\n      div\n      0xff\n      and\n        /* \"contract/tic_tac_toe.sol\":4193:4206  return winner */\n      0xff\n      and\n      swap1\n      pop\n        /* \"contract/tic_tac_toe.sol\":4051:4216  function winnerPlayer() public view returns(uint){... */\n      swap1\n      jump\t// out\n        /* \"contract/tic_tac_toe.sol\":2053:2637  function move(uint8 x, uint8 y) public payable {... */\n    tag_20:\n        /* \"contract/tic_tac_toe.sol\":2129:2130  0 */\n      0x00\n        /* \"contract/tic_tac_toe.sol\":2119:2125  winner */\n      0x03\n      0x02\n      swap1\n      sload\n      swap1\n      0x0100\n      exp\n      swap1\n      div\n      0xff\n      and\n        /* \"contract/tic_tac_toe.sol\":2119:2130  winner == 0 */\n      0xff\n      and\n      eq\n        /* \"contract/tic_tac_toe.sol\":2111:2146  require(winner == 0, \"Oyun bitti.\") */\n      tag_38\n      jumpi\n      mload(0x40)\n      0x08c379a000000000000000000000000000000000000000000000000000000000\n      dup2\n      mstore\n      0x04\n      add\n      tag_39\n      swap1\n      tag_40\n      jump\t// in\n    tag_39:\n      mload(0x40)\n      dup1\n      swap2\n      sub\n      swap1\n      revert\n    tag_38:\n        /* \"contract/tic_tac_toe.sol\":2170:2171  0 */\n      0x00\n        /* \"contract/tic_tac_toe.sol\":2165:2166  x */\n      dup3\n        /* \"contract/tic_tac_toe.sol\":2165:2171  x >= 0 */\n      0xff\n      and\n      lt\n      iszero\n        /* \"contract/tic_tac_toe.sol\":2165:2189  x >= 0 && x < BOARD_SIZE */\n      dup1\n      iszero\n      tag_41\n      jumpi\n      pop\n        /* \"contract/tic_tac_toe.sol\":116:117  3 */\n      0x03\n        /* \"contract/tic_tac_toe.sol\":2175:2189  x < BOARD_SIZE */\n      0xff\n      and\n        /* \"contract/tic_tac_toe.sol\":2175:2176  x */\n      dup3\n        /* \"contract/tic_tac_toe.sol\":2175:2189  x < BOARD_SIZE */\n      0xff\n      and\n      lt\n        /* \"contract/tic_tac_toe.sol\":2165:2189  x >= 0 && x < BOARD_SIZE */\n    tag_41:\n        /* \"contract/tic_tac_toe.sol\":2157:2215  require(x >= 0 && x < BOARD_SIZE, \"X pozisyonu gecersiz.\") */\n      tag_42\n      jumpi\n      mload(0x40)\n      0x08c379a000000000000000000000000000000000000000000000000000000000\n      dup2\n      mstore\n      0x04\n      add\n      tag_43\n      swap1\n      tag_44\n      jump\t// in\n    tag_43:\n      mload(0x40)\n      dup1\n      swap2\n      sub\n      swap1\n      revert\n    tag_42:\n        /* \"contract/tic_tac_toe.sol\":2239:2240  0 */\n      0x00\n        /* \"contract/tic_tac_toe.sol\":2234:2235  y */\n      dup2\n        /* \"contract/tic_tac_toe.sol\":2234:2240  y >= 0 */\n      0xff\n      and\n      lt\n      iszero\n        /* \"contract/tic_tac_toe.sol\":2234:2258  y >= 0 && y < BOARD_SIZE */\n      dup1\n      iszero\n      tag_45\n      jumpi\n      pop\n        /* \"contract/tic_tac_toe.sol\":116:117  3 */\n      0x03\n        /* \"contract/tic_tac_toe.sol\":2244:2258  y < BOARD_SIZE */\n      0xff\n      and\n        /* \"contract/tic_tac_toe.sol\":2244:2245  y */\n      dup2\n        /* \"contract/tic_tac_toe.sol\":2244:2258  y < BOARD_SIZE */\n      0xff\n      and\n      lt\n        /* \"contract/tic_tac_toe.sol\":2234:2258  y >= 0 && y < BOARD_SIZE */\n    tag_45:\n        /* \"contract/tic_tac_toe.sol\":2226:2284  require(y >= 0 && y < BOARD_SIZE, \"Y pozisyonu gecersiz.\") */\n      tag_46\n      jumpi\n      mload(0x40)\n      0x08c379a000000000000000000000000000000000000000000000000000000000\n      dup2\n      mstore\n      0x04\n      add\n      tag_47\n      swap1\n      tag_48\n      jump\t// in\n    tag_47:\n      mload(0x40)\n      dup1\n      swap2\n      sub\n      swap1\n      revert\n    tag_46:\n        /* \"contract/tic_tac_toe.sol\":2318:2319  0 */\n      0x00\n        /* \"contract/tic_tac_toe.sol\":2303:2308  board */\n      dup1\n        /* \"contract/tic_tac_toe.sol\":2309:2310  x */\n      dup4\n        /* \"contract/tic_tac_toe.sol\":2303:2311  board[x] */\n      0xff\n      and\n      0x03\n      dup2\n      lt\n      tag_49\n      jumpi\n      tag_50\n      tag_51\n      jump\t// in\n    tag_50:\n    tag_49:\n      add\n        /* \"contract/tic_tac_toe.sol\":2312:2313  y */\n      dup3\n        /* \"contract/tic_tac_toe.sol\":2303:2314  board[x][y] */\n      0xff\n      and\n      0x03\n      dup2\n      lt\n      tag_53\n      jumpi\n      tag_54\n      tag_51\n      jump\t// in\n    tag_54:\n    tag_53:\n      0x20\n      swap2\n      dup3\n      dup3\n      div\n      add\n      swap2\n      swap1\n      mod\n      swap1\n      sload\n      swap1\n      0x0100\n      exp\n      swap1\n      div\n      0xff\n      and\n        /* \"contract/tic_tac_toe.sol\":2303:2319  board[x][y] == 0 */\n      0xff\n      and\n      eq\n        /* \"contract/tic_tac_toe.sol\":2295:2337  require(board[x][y] == 0, \"Bu kare dolu.\") */\n      tag_56\n      jumpi\n      mload(0x40)\n      0x08c379a000000000000000000000000000000000000000000000000000000000\n      dup2\n      mstore\n      0x04\n      add\n      tag_57\n      swap1\n      tag_58\n      jump\t// in\n    tag_57:\n      mload(0x40)\n      dup1\n      swap2\n      sub\n      swap1\n      revert\n    tag_56:\n        /* \"contract/tic_tac_toe.sol\":2370:2376  player */\n      0x03\n      0x01\n      swap1\n      sload\n      swap1\n      0x0100\n      exp\n      swap1\n      div\n      0xff\n      and\n        /* \"contract/tic_tac_toe.sol\":2356:2376  lastPlayer == player */\n      0xff\n      and\n        /* \"contract/tic_tac_toe.sol\":2356:2366  lastPlayer */\n      0x03\n      0x00\n      swap1\n      sload\n      swap1\n      0x0100\n      exp\n      swap1\n      div\n      0xff\n      and\n        /* \"contract/tic_tac_toe.sol\":2356:2376  lastPlayer == player */\n      0xff\n      and\n      eq\n        /* \"contract/tic_tac_toe.sol\":2348:2415  require(lastPlayer == player, \"Bu siradaki oyuncu siz degilsiniz.\") */\n      tag_59\n      jumpi\n      mload(0x40)\n      0x08c379a000000000000000000000000000000000000000000000000000000000\n      dup2\n      mstore\n      0x04\n      add\n      tag_60\n      swap1\n      tag_61\n      jump\t// in\n    tag_60:\n      mload(0x40)\n      dup1\n      swap2\n      sub\n      swap1\n      revert\n    tag_59:\n        /* \"contract/tic_tac_toe.sol\":2447:2450  bid */\n      0x03\n      dup1\n      sload\n      swap1\n      0x0100\n      exp\n      swap1\n      div\n      0xff\n      and\n        /* \"contract/tic_tac_toe.sol\":2434:2450  msg.value == bid */\n      0xff\n      and\n        /* \"contract/tic_tac_toe.sol\":2434:2443  msg.value */\n      callvalue\n        /* \"contract/tic_tac_toe.sol\":2434:2450  msg.value == bid */\n      eq\n        /* \"contract/tic_tac_toe.sol\":2426:2480  require(msg.value == bid, \"Yeterli odeme yapilmamis.\") */\n      tag_62\n      jumpi\n      mload(0x40)\n      0x08c379a000000000000000000000000000000000000000000000000000000000\n      dup2\n      mstore\n      0x04\n      add\n      tag_63\n      swap1\n      tag_64\n      jump\t// in\n    tag_63:\n      mload(0x40)\n      dup1\n      swap2\n      sub\n      swap1\n      revert\n    tag_62:\n        /* \"contract/tic_tac_toe.sol\":2507:2517  lastPlayer */\n      0x03\n      0x00\n      swap1\n      sload\n      swap1\n      0x0100\n      exp\n      swap1\n      div\n      0xff\n      and\n        /* \"contract/tic_tac_toe.sol\":2493:2498  board */\n      0x00\n        /* \"contract/tic_tac_toe.sol\":2499:2500  x */\n      dup4\n        /* \"contract/tic_tac_toe.sol\":2493:2501  board[x] */\n      0xff\n      and\n      0x03\n      dup2\n      lt\n      tag_65\n      jumpi\n      tag_66\n      tag_51\n      jump\t// in\n    tag_66:\n    tag_65:\n      add\n        /* \"contract/tic_tac_toe.sol\":2502:2503  y */\n      dup3\n        /* \"contract/tic_tac_toe.sol\":2493:2504  board[x][y] */\n      0xff\n      and\n      0x03\n      dup2\n      lt\n      tag_68\n      jumpi\n      tag_69\n      tag_51\n      jump\t// in\n    tag_69:\n    tag_68:\n      0x20\n      swap2\n      dup3\n      dup3\n      div\n      add\n      swap2\n      swap1\n      mod\n        /* \"contract/tic_tac_toe.sol\":2493:2517  board[x][y] = lastPlayer */\n      0x0100\n      exp\n      dup2\n      sload\n      dup2\n      0xff\n      mul\n      not\n      and\n      swap1\n      dup4\n      0xff\n      and\n      mul\n      or\n      swap1\n      sstore\n      pop\n        /* \"contract/tic_tac_toe.sol\":2547:2548  1 */\n      0x01\n        /* \"contract/tic_tac_toe.sol\":2537:2543  player */\n      0x03\n      0x01\n      swap1\n      sload\n      swap1\n      0x0100\n      exp\n      swap1\n      div\n      0xff\n      and\n        /* \"contract/tic_tac_toe.sol\":2537:2548  player == 1 */\n      0xff\n      and\n      eq\n        /* \"contract/tic_tac_toe.sol\":2537:2556  player == 1 ? 2 : 1 */\n      tag_71\n      jumpi\n        /* \"contract/tic_tac_toe.sol\":2555:2556  1 */\n      0x01\n        /* \"contract/tic_tac_toe.sol\":2537:2556  player == 1 ? 2 : 1 */\n      jump(tag_72)\n    tag_71:\n        /* \"contract/tic_tac_toe.sol\":2551:2552  2 */\n      0x02\n        /* \"contract/tic_tac_toe.sol\":2537:2556  player == 1 ? 2 : 1 */\n    tag_72:\n        /* \"contract/tic_tac_toe.sol\":2528:2534  player */\n      0x03\n      0x01\n        /* \"contract/tic_tac_toe.sol\":2528:2556  player = player == 1 ? 2 : 1 */\n      0x0100\n      exp\n      dup2\n      sload\n      dup2\n      0xff\n      mul\n      not\n      and\n      swap1\n      dup4\n      0xff\n      and\n      mul\n      or\n      swap1\n      sstore\n      pop\n        /* \"contract/tic_tac_toe.sol\":2594:2595  1 */\n      0x01\n        /* \"contract/tic_tac_toe.sol\":2580:2590  lastPlayer */\n      0x03\n      0x00\n      swap1\n      sload\n      swap1\n      0x0100\n      exp\n      swap1\n      div\n      0xff\n      and\n        /* \"contract/tic_tac_toe.sol\":2580:2595  lastPlayer == 1 */\n      0xff\n      and\n      eq\n        /* \"contract/tic_tac_toe.sol\":2580:2603  lastPlayer == 1 ? 2 : 1 */\n      tag_73\n      jumpi\n        /* \"contract/tic_tac_toe.sol\":2602:2603  1 */\n      0x01\n        /* \"contract/tic_tac_toe.sol\":2580:2603  lastPlayer == 1 ? 2 : 1 */\n      jump(tag_74)\n    tag_73:\n        /* \"contract/tic_tac_toe.sol\":2598:2599  2 */\n      0x02\n        /* \"contract/tic_tac_toe.sol\":2580:2603  lastPlayer == 1 ? 2 : 1 */\n    tag_74:\n        /* \"contract/tic_tac_toe.sol\":2567:2577  lastPlayer */\n      0x03\n      0x00\n        /* \"contract/tic_tac_toe.sol\":2567:2603  lastPlayer = lastPlayer == 1 ? 2 : 1 */\n      0x0100\n      exp\n      dup2\n      sload\n      dup2\n      0xff\n      mul\n      not\n      and\n      swap1\n      dup4\n      0xff\n      and\n      mul\n      or\n      swap1\n      sstore\n      pop\n        /* \"contract/tic_tac_toe.sol\":2616:2629  checkForWin() */\n      tag_75\n        /* \"contract/tic_tac_toe.sol\":2616:2627  checkForWin */\n      tag_76\n        /* \"contract/tic_tac_toe.sol\":2616:2629  checkForWin() */\n      jump\t// in\n    tag_75:\n        /* \"contract/tic_tac_toe.sol\":2053:2637  function move(uint8 x, uint8 y) public payable {... */\n      pop\n      pop\n      jump\t// out\n        /* \"contract/tic_tac_toe.sol\":618:857  function startGame() public {... */\n    tag_23:\n        /* \"contract/tic_tac_toe.sol\":701:708  uint8 i */\n      0x00\n        /* \"contract/tic_tac_toe.sol\":696:850  for (uint8 i = 0; i < BOARD_SIZE; i++) {... */\n    tag_78:\n        /* \"contract/tic_tac_toe.sol\":116:117  3 */\n      0x03\n        /* \"contract/tic_tac_toe.sol\":714:728  i < BOARD_SIZE */\n      0xff\n      and\n        /* \"contract/tic_tac_toe.sol\":714:715  i */\n      dup2\n        /* \"contract/tic_tac_toe.sol\":714:728  i < BOARD_SIZE */\n      0xff\n      and\n      lt\n        /* \"contract/tic_tac_toe.sol\":696:850  for (uint8 i = 0; i < BOARD_SIZE; i++) {... */\n      iszero\n      tag_79\n      jumpi\n        /* \"contract/tic_tac_toe.sol\":755:762  uint8 j */\n      0x00\n        /* \"contract/tic_tac_toe.sol\":750:839  for (uint8 j = 0; j < BOARD_SIZE; j++) {... */\n    tag_81:\n        /* \"contract/tic_tac_toe.sol\":116:117  3 */\n      0x03\n        /* \"contract/tic_tac_toe.sol\":768:782  j < BOARD_SIZE */\n      0xff\n      and\n        /* \"contract/tic_tac_toe.sol\":768:769  j */\n      dup2\n        /* \"contract/tic_tac_toe.sol\":768:782  j < BOARD_SIZE */\n      0xff\n      and\n      lt\n        /* \"contract/tic_tac_toe.sol\":750:839  for (uint8 j = 0; j < BOARD_SIZE; j++) {... */\n      iszero\n      tag_82\n      jumpi\n        /* \"contract/tic_tac_toe.sol\":822:823  0 */\n      0x00\n        /* \"contract/tic_tac_toe.sol\":808:813  board */\n      dup1\n        /* \"contract/tic_tac_toe.sol\":814:815  i */\n      dup4\n        /* \"contract/tic_tac_toe.sol\":808:816  board[i] */\n      0xff\n      and\n      0x03\n      dup2\n      lt\n      tag_84\n      jumpi\n      tag_85\n      tag_51\n      jump\t// in\n    tag_85:\n    tag_84:\n      add\n        /* \"contract/tic_tac_toe.sol\":817:818  j */\n      dup3\n        /* \"contract/tic_tac_toe.sol\":808:819  board[i][j] */\n      0xff\n      and\n      0x03\n      dup2\n      lt\n      tag_87\n      jumpi\n      tag_88\n      tag_51\n      jump\t// in\n    tag_88:\n    tag_87:\n      0x20\n      swap2\n      dup3\n      dup3\n      div\n      add\n      swap2\n      swap1\n      mod\n        /* \"contract/tic_tac_toe.sol\":808:823  board[i][j] = 0 */\n      0x0100\n      exp\n      dup2\n      sload\n      dup2\n      0xff\n      mul\n      not\n      and\n      swap1\n      dup4\n      0xff\n      and\n      mul\n      or\n      swap1\n      sstore\n      pop\n        /* \"contract/tic_tac_toe.sol\":784:787  j++ */\n      dup1\n      dup1\n      tag_90\n      swap1\n      tag_91\n      jump\t// in\n    tag_90:\n      swap2\n      pop\n      pop\n        /* \"contract/tic_tac_toe.sol\":750:839  for (uint8 j = 0; j < BOARD_SIZE; j++) {... */\n      jump(tag_81)\n    tag_82:\n      pop\n        /* \"contract/tic_tac_toe.sol\":730:733  i++ */\n      dup1\n      dup1\n      tag_92\n      swap1\n      tag_91\n      jump\t// in\n    tag_92:\n      swap2\n      pop\n      pop\n        /* \"contract/tic_tac_toe.sol\":696:850  for (uint8 i = 0; i < BOARD_SIZE; i++) {... */\n      jump(tag_78)\n    tag_79:\n      pop\n        /* \"contract/tic_tac_toe.sol\":618:857  function startGame() public {... */\n      jump\t// out\n        /* \"contract/tic_tac_toe.sol\":865:1924  function play(uint8 x, uint8 y) public {... */\n    tag_27:\n        /* \"contract/tic_tac_toe.sol\":938:939  0 */\n      0x00\n        /* \"contract/tic_tac_toe.sol\":923:928  board */\n      dup1\n        /* \"contract/tic_tac_toe.sol\":929:930  x */\n      dup4\n        /* \"contract/tic_tac_toe.sol\":923:931  board[x] */\n      0xff\n      and\n      0x03\n      dup2\n      lt\n      tag_94\n      jumpi\n      tag_95\n      tag_51\n      jump\t// in\n    tag_95:\n    tag_94:\n      add\n        /* \"contract/tic_tac_toe.sol\":932:933  y */\n      dup3\n        /* \"contract/tic_tac_toe.sol\":923:934  board[x][y] */\n      0xff\n      and\n      0x03\n      dup2\n      lt\n      tag_97\n      jumpi\n      tag_98\n      tag_51\n      jump\t// in\n    tag_98:\n    tag_97:\n      0x20\n      swap2\n      dup3\n      dup3\n      div\n      add\n      swap2\n      swap1\n      mod\n      swap1\n      sload\n      swap1\n      0x0100\n      exp\n      swap1\n      div\n      0xff\n      and\n        /* \"contract/tic_tac_toe.sol\":923:939  board[x][y] == 0 */\n      0xff\n      and\n      eq\n        /* \"contract/tic_tac_toe.sol\":915:962  require(board[x][y] == 0, \"Bu alan zaten dolu\") */\n      tag_100\n      jumpi\n      mload(0x40)\n      0x08c379a000000000000000000000000000000000000000000000000000000000\n      dup2\n      mstore\n      0x04\n      add\n      tag_101\n      swap1\n      tag_102\n      jump\t// in\n    tag_101:\n      mload(0x40)\n      dup1\n      swap2\n      sub\n      swap1\n      revert\n    tag_100:\n        /* \"contract/tic_tac_toe.sol\":991:992  0 */\n      0x00\n        /* \"contract/tic_tac_toe.sol\":981:987  winner */\n      0x03\n      0x02\n      swap1\n      sload\n      swap1\n      0x0100\n      exp\n      swap1\n      div\n      0xff\n      and\n        /* \"contract/tic_tac_toe.sol\":981:992  winner == 0 */\n      0xff\n      and\n      eq\n        /* \"contract/tic_tac_toe.sol\":973:1013  require(winner == 0, \"Oyun zaten bitti\") */\n      tag_103\n      jumpi\n      mload(0x40)\n      0x08c379a000000000000000000000000000000000000000000000000000000000\n      dup2\n      mstore\n      0x04\n      add\n      tag_104\n      swap1\n      tag_105\n      jump\t// in\n    tag_104:\n      mload(0x40)\n      dup1\n      swap2\n      sub\n      swap1\n      revert\n    tag_103:\n        /* \"contract/tic_tac_toe.sol\":1040:1050  lastPlayer */\n      0x03\n      0x00\n      swap1\n      sload\n      swap1\n      0x0100\n      exp\n      swap1\n      div\n      0xff\n      and\n        /* \"contract/tic_tac_toe.sol\":1026:1031  board */\n      0x00\n        /* \"contract/tic_tac_toe.sol\":1032:1033  x */\n      dup4\n        /* \"contract/tic_tac_toe.sol\":1026:1034  board[x] */\n      0xff\n      and\n      0x03\n      dup2\n      lt\n      tag_106\n      jumpi\n      tag_107\n      tag_51\n      jump\t// in\n    tag_107:\n    tag_106:\n      add\n        /* \"contract/tic_tac_toe.sol\":1035:1036  y */\n      dup3\n        /* \"contract/tic_tac_toe.sol\":1026:1037  board[x][y] */\n      0xff\n      and\n      0x03\n      dup2\n      lt\n      tag_109\n      jumpi\n      tag_110\n      tag_51\n      jump\t// in\n    tag_110:\n    tag_109:\n      0x20\n      swap2\n      dup3\n      dup3\n      div\n      add\n      swap2\n      swap1\n      mod\n        /* \"contract/tic_tac_toe.sol\":1026:1050  board[x][y] = lastPlayer */\n      0x0100\n      exp\n      dup2\n      sload\n      dup2\n      0xff\n      mul\n      not\n      and\n      swap1\n      dup4\n      0xff\n      and\n      mul\n      or\n      swap1\n      sstore\n      pop\n        /* \"contract/tic_tac_toe.sol\":1128:1129  1 */\n      0x01\n        /* \"contract/tic_tac_toe.sol\":1114:1124  lastPlayer */\n      0x03\n      0x00\n      swap1\n      sload\n      swap1\n      0x0100\n      exp\n      swap1\n      div\n      0xff\n      and\n        /* \"contract/tic_tac_toe.sol\":1114:1129  lastPlayer == 1 */\n      0xff\n      and\n      eq\n        /* \"contract/tic_tac_toe.sol\":1113:1138  (lastPlayer == 1) ? 2 : 1 */\n      tag_112\n      jumpi\n        /* \"contract/tic_tac_toe.sol\":1137:1138  1 */\n      0x01\n        /* \"contract/tic_tac_toe.sol\":1113:1138  (lastPlayer == 1) ? 2 : 1 */\n      jump(tag_113)\n    tag_112:\n        /* \"contract/tic_tac_toe.sol\":1133:1134  2 */\n      0x02\n        /* \"contract/tic_tac_toe.sol\":1113:1138  (lastPlayer == 1) ? 2 : 1 */\n    tag_113:\n        /* \"contract/tic_tac_toe.sol\":1100:1110  lastPlayer */\n      0x03\n      0x00\n        /* \"contract/tic_tac_toe.sol\":1100:1138  lastPlayer = (lastPlayer == 1) ? 2 : 1 */\n      0x0100\n      exp\n      dup2\n      sload\n      dup2\n      0xff\n      mul\n      not\n      and\n      swap1\n      dup4\n      0xff\n      and\n      mul\n      or\n      swap1\n      sstore\n      pop\n        /* \"contract/tic_tac_toe.sol\":1194:1201  uint8 i */\n      0x00\n        /* \"contract/tic_tac_toe.sol\":1189:1390  for (uint8 i = 0; i < BOARD_SIZE; i++) {... */\n    tag_114:\n        /* \"contract/tic_tac_toe.sol\":116:117  3 */\n      0x03\n        /* \"contract/tic_tac_toe.sol\":1207:1221  i < BOARD_SIZE */\n      0xff\n      and\n        /* \"contract/tic_tac_toe.sol\":1207:1208  i */\n      dup2\n        /* \"contract/tic_tac_toe.sol\":1207:1221  i < BOARD_SIZE */\n      0xff\n      and\n      lt\n        /* \"contract/tic_tac_toe.sol\":1189:1390  for (uint8 i = 0; i < BOARD_SIZE; i++) {... */\n      iszero\n      tag_115\n      jumpi\n        /* \"contract/tic_tac_toe.sol\":1262:1267  board */\n      0x00\n        /* \"contract/tic_tac_toe.sol\":1268:1269  i */\n      dup2\n        /* \"contract/tic_tac_toe.sol\":1262:1270  board[i] */\n      0xff\n      and\n      0x03\n      dup2\n      lt\n      tag_117\n      jumpi\n      tag_118\n      tag_51\n      jump\t// in\n    tag_118:\n    tag_117:\n      add\n        /* \"contract/tic_tac_toe.sol\":1271:1272  1 */\n      0x01\n        /* \"contract/tic_tac_toe.sol\":1262:1273  board[i][1] */\n      0x03\n      dup2\n      lt\n      tag_120\n      jumpi\n      tag_121\n      tag_51\n      jump\t// in\n    tag_121:\n    tag_120:\n      0x20\n      swap2\n      dup3\n      dup3\n      div\n      add\n      swap2\n      swap1\n      mod\n      swap1\n      sload\n      swap1\n      0x0100\n      exp\n      swap1\n      div\n      0xff\n      and\n        /* \"contract/tic_tac_toe.sol\":1247:1273  board[i][0] == board[i][1] */\n      0xff\n      and\n        /* \"contract/tic_tac_toe.sol\":1247:1252  board */\n      0x00\n        /* \"contract/tic_tac_toe.sol\":1253:1254  i */\n      dup3\n        /* \"contract/tic_tac_toe.sol\":1247:1255  board[i] */\n      0xff\n      and\n      0x03\n      dup2\n      lt\n      tag_123\n      jumpi\n      tag_124\n      tag_51\n      jump\t// in\n    tag_124:\n    tag_123:\n      add\n        /* \"contract/tic_tac_toe.sol\":1256:1257  0 */\n      0x00\n        /* \"contract/tic_tac_toe.sol\":1247:1258  board[i][0] */\n      0x03\n      dup2\n      lt\n      tag_126\n      jumpi\n      tag_127\n      tag_51\n      jump\t// in\n    tag_127:\n    tag_126:\n      0x20\n      swap2\n      dup3\n      dup3\n      div\n      add\n      swap2\n      swap1\n      mod\n      swap1\n      sload\n      swap1\n      0x0100\n      exp\n      swap1\n      div\n      0xff\n      and\n        /* \"contract/tic_tac_toe.sol\":1247:1273  board[i][0] == board[i][1] */\n      0xff\n      and\n      eq\n        /* \"contract/tic_tac_toe.sol\":1247:1303  board[i][0] == board[i][1] && board[i][1] == board[i][2] */\n      dup1\n      iszero\n      tag_129\n      jumpi\n      pop\n        /* \"contract/tic_tac_toe.sol\":1292:1297  board */\n      0x00\n        /* \"contract/tic_tac_toe.sol\":1298:1299  i */\n      dup2\n        /* \"contract/tic_tac_toe.sol\":1292:1300  board[i] */\n      0xff\n      and\n      0x03\n      dup2\n      lt\n      tag_130\n      jumpi\n      tag_131\n      tag_51\n      jump\t// in\n    tag_131:\n    tag_130:\n      add\n        /* \"contract/tic_tac_toe.sol\":1301:1302  2 */\n      0x02\n        /* \"contract/tic_tac_toe.sol\":1292:1303  board[i][2] */\n      0x03\n      dup2\n      lt\n      tag_133\n      jumpi\n      tag_134\n      tag_51\n      jump\t// in\n    tag_134:\n    tag_133:\n      0x20\n      swap2\n      dup3\n      dup3\n      div\n      add\n      swap2\n      swap1\n      mod\n      swap1\n      sload\n      swap1\n      0x0100\n      exp\n      swap1\n      div\n      0xff\n      and\n        /* \"contract/tic_tac_toe.sol\":1277:1303  board[i][1] == board[i][2] */\n      0xff\n      and\n        /* \"contract/tic_tac_toe.sol\":1277:1282  board */\n      0x00\n        /* \"contract/tic_tac_toe.sol\":1283:1284  i */\n      dup3\n        /* \"contract/tic_tac_toe.sol\":1277:1285  board[i] */\n      0xff\n      and\n      0x03\n      dup2\n      lt\n      tag_136\n      jumpi\n      tag_137\n      tag_51\n      jump\t// in\n    tag_137:\n    tag_136:\n      add\n        /* \"contract/tic_tac_toe.sol\":1286:1287  1 */\n      0x01\n        /* \"contract/tic_tac_toe.sol\":1277:1288  board[i][1] */\n      0x03\n      dup2\n      lt\n      tag_139\n      jumpi\n      tag_140\n      tag_51\n      jump\t// in\n    tag_140:\n    tag_139:\n      0x20\n      swap2\n      dup3\n      dup3\n      div\n      add\n      swap2\n      swap1\n      mod\n      swap1\n      sload\n      swap1\n      0x0100\n      exp\n      swap1\n      div\n      0xff\n      and\n        /* \"contract/tic_tac_toe.sol\":1277:1303  board[i][1] == board[i][2] */\n      0xff\n      and\n      eq\n        /* \"contract/tic_tac_toe.sol\":1247:1303  board[i][0] == board[i][1] && board[i][1] == board[i][2] */\n    tag_129:\n        /* \"contract/tic_tac_toe.sol\":1247:1323  board[i][0] == board[i][1] && board[i][1] == board[i][2] && board[i][2] != 0 */\n      dup1\n      iszero\n      tag_142\n      jumpi\n      pop\n        /* \"contract/tic_tac_toe.sol\":1322:1323  0 */\n      0x00\n        /* \"contract/tic_tac_toe.sol\":1307:1312  board */\n      dup1\n        /* \"contract/tic_tac_toe.sol\":1313:1314  i */\n      dup3\n        /* \"contract/tic_tac_toe.sol\":1307:1315  board[i] */\n      0xff\n      and\n      0x03\n      dup2\n      lt\n      tag_143\n      jumpi\n      tag_144\n      tag_51\n      jump\t// in\n    tag_144:\n    tag_143:\n      add\n        /* \"contract/tic_tac_toe.sol\":1316:1317  2 */\n      0x02\n        /* \"contract/tic_tac_toe.sol\":1307:1318  board[i][2] */\n      0x03\n      dup2\n      lt\n      tag_146\n      jumpi\n      tag_147\n      tag_51\n      jump\t// in\n    tag_147:\n    tag_146:\n      0x20\n      swap2\n      dup3\n      dup3\n      div\n      add\n      swap2\n      swap1\n      mod\n      swap1\n      sload\n      swap1\n      0x0100\n      exp\n      swap1\n      div\n      0xff\n      and\n        /* \"contract/tic_tac_toe.sol\":1307:1323  board[i][2] != 0 */\n      0xff\n      and\n      eq\n      iszero\n        /* \"contract/tic_tac_toe.sol\":1247:1323  board[i][0] == board[i][1] && board[i][1] == board[i][2] && board[i][2] != 0 */\n    tag_142:\n        /* \"contract/tic_tac_toe.sol\":1243:1379  if (board[i][0] == board[i][1] && board[i][1] == board[i][2] && board[i][2] != 0) {... */\n      iszero\n      tag_149\n      jumpi\n        /* \"contract/tic_tac_toe.sol\":1353:1363  lastPlayer */\n      0x03\n      0x00\n      swap1\n      sload\n      swap1\n      0x0100\n      exp\n      swap1\n      div\n      0xff\n      and\n        /* \"contract/tic_tac_toe.sol\":1344:1350  winner */\n      0x03\n      0x02\n        /* \"contract/tic_tac_toe.sol\":1344:1363  winner = lastPlayer */\n      0x0100\n      exp\n      dup2\n      sload\n      dup2\n      0xff\n      mul\n      not\n      and\n      swap1\n      dup4\n      0xff\n      and\n      mul\n      or\n      swap1\n      sstore\n      pop\n        /* \"contract/tic_tac_toe.sol\":1243:1379  if (board[i][0] == board[i][1] && board[i][1] == board[i][2] && board[i][2] != 0) {... */\n    tag_149:\n        /* \"contract/tic_tac_toe.sol\":1223:1226  i++ */\n      dup1\n      dup1\n      tag_150\n      swap1\n      tag_91\n      jump\t// in\n    tag_150:\n      swap2\n      pop\n      pop\n        /* \"contract/tic_tac_toe.sol\":1189:1390  for (uint8 i = 0; i < BOARD_SIZE; i++) {... */\n      jump(tag_114)\n    tag_115:\n      pop\n        /* \"contract/tic_tac_toe.sol\":1445:1452  uint8 i */\n      0x00\n        /* \"contract/tic_tac_toe.sol\":1440:1641  for (uint8 i = 0; i < BOARD_SIZE; i++) {... */\n    tag_151:\n        /* \"contract/tic_tac_toe.sol\":116:117  3 */\n      0x03\n        /* \"contract/tic_tac_toe.sol\":1458:1472  i < BOARD_SIZE */\n      0xff\n      and\n        /* \"contract/tic_tac_toe.sol\":1458:1459  i */\n      dup2\n        /* \"contract/tic_tac_toe.sol\":1458:1472  i < BOARD_SIZE */\n      0xff\n      and\n      lt\n        /* \"contract/tic_tac_toe.sol\":1440:1641  for (uint8 i = 0; i < BOARD_SIZE; i++) {... */\n      iszero\n      tag_152\n      jumpi\n        /* \"contract/tic_tac_toe.sol\":1513:1518  board */\n      0x00\n        /* \"contract/tic_tac_toe.sol\":1519:1520  1 */\n      0x01\n        /* \"contract/tic_tac_toe.sol\":1513:1521  board[1] */\n      0x03\n      dup2\n      lt\n      tag_154\n      jumpi\n      tag_155\n      tag_51\n      jump\t// in\n    tag_155:\n    tag_154:\n      add\n        /* \"contract/tic_tac_toe.sol\":1522:1523  i */\n      dup2\n        /* \"contract/tic_tac_toe.sol\":1513:1524  board[1][i] */\n      0xff\n      and\n      0x03\n      dup2\n      lt\n      tag_157\n      jumpi\n      tag_158\n      tag_51\n      jump\t// in\n    tag_158:\n    tag_157:\n      0x20\n      swap2\n      dup3\n      dup3\n      div\n      add\n      swap2\n      swap1\n      mod\n      swap1\n      sload\n      swap1\n      0x0100\n      exp\n      swap1\n      div\n      0xff\n      and\n        /* \"contract/tic_tac_toe.sol\":1498:1524  board[0][i] == board[1][i] */\n      0xff\n      and\n        /* \"contract/tic_tac_toe.sol\":1498:1503  board */\n      0x00\n        /* \"contract/tic_tac_toe.sol\":1504:1505  0 */\n      dup1\n        /* \"contract/tic_tac_toe.sol\":1498:1506  board[0] */\n      0x03\n      dup2\n      lt\n      tag_160\n      jumpi\n      tag_161\n      tag_51\n      jump\t// in\n    tag_161:\n    tag_160:\n      add\n        /* \"contract/tic_tac_toe.sol\":1507:1508  i */\n      dup3\n        /* \"contract/tic_tac_toe.sol\":1498:1509  board[0][i] */\n      0xff\n      and\n      0x03\n      dup2\n      lt\n      tag_163\n      jumpi\n      tag_164\n      tag_51\n      jump\t// in\n    tag_164:\n    tag_163:\n      0x20\n      swap2\n      dup3\n      dup3\n      div\n      add\n      swap2\n      swap1\n      mod\n      swap1\n      sload\n      swap1\n      0x0100\n      exp\n      swap1\n      div\n      0xff\n      and\n        /* \"contract/tic_tac_toe.sol\":1498:1524  board[0][i] == board[1][i] */\n      0xff\n      and\n      eq\n        /* \"contract/tic_tac_toe.sol\":1498:1554  board[0][i] == board[1][i] && board[1][i] == board[2][i] */\n      dup1\n      iszero\n      tag_166\n      jumpi\n      pop\n        /* \"contract/tic_tac_toe.sol\":1543:1548  board */\n      0x00\n        /* \"contract/tic_tac_toe.sol\":1549:1550  2 */\n      0x02\n        /* \"contract/tic_tac_toe.sol\":1543:1551  board[2] */\n      0x03\n      dup2\n      lt\n      tag_167\n      jumpi\n      tag_168\n      tag_51\n      jump\t// in\n    tag_168:\n    tag_167:\n      add\n        /* \"contract/tic_tac_toe.sol\":1552:1553  i */\n      dup2\n        /* \"contract/tic_tac_toe.sol\":1543:1554  board[2][i] */\n      0xff\n      and\n      0x03\n      dup2\n      lt\n      tag_170\n      jumpi\n      tag_171\n      tag_51\n      jump\t// in\n    tag_171:\n    tag_170:\n      0x20\n      swap2\n      dup3\n      dup3\n      div\n      add\n      swap2\n      swap1\n      mod\n      swap1\n      sload\n      swap1\n      0x0100\n      exp\n      swap1\n      div\n      0xff\n      and\n        /* \"contract/tic_tac_toe.sol\":1528:1554  board[1][i] == board[2][i] */\n      0xff\n      and\n        /* \"contract/tic_tac_toe.sol\":1528:1533  board */\n      0x00\n        /* \"contract/tic_tac_toe.sol\":1534:1535  1 */\n      0x01\n        /* \"contract/tic_tac_toe.sol\":1528:1536  board[1] */\n      0x03\n      dup2\n      lt\n      tag_173\n      jumpi\n      tag_174\n      tag_51\n      jump\t// in\n    tag_174:\n    tag_173:\n      add\n        /* \"contract/tic_tac_toe.sol\":1537:1538  i */\n      dup3\n        /* \"contract/tic_tac_toe.sol\":1528:1539  board[1][i] */\n      0xff\n      and\n      0x03\n      dup2\n      lt\n      tag_176\n      jumpi\n      tag_177\n      tag_51\n      jump\t// in\n    tag_177:\n    tag_176:\n      0x20\n      swap2\n      dup3\n      dup3\n      div\n      add\n      swap2\n      swap1\n      mod\n      swap1\n      sload\n      swap1\n      0x0100\n      exp\n      swap1\n      div\n      0xff\n      and\n        /* \"contract/tic_tac_toe.sol\":1528:1554  board[1][i] == board[2][i] */\n      0xff\n      and\n      eq\n        /* \"contract/tic_tac_toe.sol\":1498:1554  board[0][i] == board[1][i] && board[1][i] == board[2][i] */\n    tag_166:\n        /* \"contract/tic_tac_toe.sol\":1498:1574  board[0][i] == board[1][i] && board[1][i] == board[2][i] && board[2][i] != 0 */\n      dup1\n      iszero\n      tag_179\n      jumpi\n      pop\n        /* \"contract/tic_tac_toe.sol\":1573:1574  0 */\n      0x00\n        /* \"contract/tic_tac_toe.sol\":1558:1563  board */\n      dup1\n        /* \"contract/tic_tac_toe.sol\":1564:1565  2 */\n      0x02\n        /* \"contract/tic_tac_toe.sol\":1558:1566  board[2] */\n      0x03\n      dup2\n      lt\n      tag_180\n      jumpi\n      tag_181\n      tag_51\n      jump\t// in\n    tag_181:\n    tag_180:\n      add\n        /* \"contract/tic_tac_toe.sol\":1567:1568  i */\n      dup3\n        /* \"contract/tic_tac_toe.sol\":1558:1569  board[2][i] */\n      0xff\n      and\n      0x03\n      dup2\n      lt\n      tag_183\n      jumpi\n      tag_184\n      tag_51\n      jump\t// in\n    tag_184:\n    tag_183:\n      0x20\n      swap2\n      dup3\n      dup3\n      div\n      add\n      swap2\n      swap1\n      mod\n      swap1\n      sload\n      swap1\n      0x0100\n      exp\n      swap1\n      div\n      0xff\n      and\n        /* \"contract/tic_tac_toe.sol\":1558:1574  board[2][i] != 0 */\n      0xff\n      and\n      eq\n      iszero\n        /* \"contract/tic_tac_toe.sol\":1498:1574  board[0][i] == board[1][i] && board[1][i] == board[2][i] && board[2][i] != 0 */\n    tag_179:\n        /* \"contract/tic_tac_toe.sol\":1494:1630  if (board[0][i] == board[1][i] && board[1][i] == board[2][i] && board[2][i] != 0) {... */\n      iszero\n      tag_186\n      jumpi\n        /* \"contract/tic_tac_toe.sol\":1604:1614  lastPlayer */\n      0x03\n      0x00\n      swap1\n      sload\n      swap1\n      0x0100\n      exp\n      swap1\n      div\n      0xff\n      and\n        /* \"contract/tic_tac_toe.sol\":1595:1601  winner */\n      0x03\n      0x02\n        /* \"contract/tic_tac_toe.sol\":1595:1614  winner = lastPlayer */\n      0x0100\n      exp\n      dup2\n      sload\n      dup2\n      0xff\n      mul\n      not\n      and\n      swap1\n      dup4\n      0xff\n      and\n      mul\n      or\n      swap1\n      sstore\n      pop\n        /* \"contract/tic_tac_toe.sol\":1494:1630  if (board[0][i] == board[1][i] && board[1][i] == board[2][i] && board[2][i] != 0) {... */\n    tag_186:\n        /* \"contract/tic_tac_toe.sol\":1474:1477  i++ */\n      dup1\n      dup1\n      tag_187\n      swap1\n      tag_91\n      jump\t// in\n    tag_187:\n      swap2\n      pop\n      pop\n        /* \"contract/tic_tac_toe.sol\":1440:1641  for (uint8 i = 0; i < BOARD_SIZE; i++) {... */\n      jump(tag_151)\n    tag_152:\n      pop\n        /* \"contract/tic_tac_toe.sol\":1712:1717  board */\n      0x00\n        /* \"contract/tic_tac_toe.sol\":1718:1719  1 */\n      0x01\n        /* \"contract/tic_tac_toe.sol\":1712:1720  board[1] */\n      0x03\n      dup2\n      lt\n      tag_188\n      jumpi\n      tag_189\n      tag_51\n      jump\t// in\n    tag_189:\n    tag_188:\n      add\n        /* \"contract/tic_tac_toe.sol\":1721:1722  1 */\n      0x01\n        /* \"contract/tic_tac_toe.sol\":1712:1723  board[1][1] */\n      0x03\n      dup2\n      lt\n      tag_191\n      jumpi\n      tag_192\n      tag_51\n      jump\t// in\n    tag_192:\n    tag_191:\n      0x20\n      swap2\n      dup3\n      dup3\n      div\n      add\n      swap2\n      swap1\n      mod\n      swap1\n      sload\n      swap1\n      0x0100\n      exp\n      swap1\n      div\n      0xff\n      and\n        /* \"contract/tic_tac_toe.sol\":1697:1723  board[0][0] == board[1][1] */\n      0xff\n      and\n        /* \"contract/tic_tac_toe.sol\":1697:1702  board */\n      0x00\n        /* \"contract/tic_tac_toe.sol\":1703:1704  0 */\n      dup1\n        /* \"contract/tic_tac_toe.sol\":1697:1705  board[0] */\n      0x03\n      dup2\n      lt\n      tag_194\n      jumpi\n      tag_195\n      tag_51\n      jump\t// in\n    tag_195:\n    tag_194:\n      add\n        /* \"contract/tic_tac_toe.sol\":1706:1707  0 */\n      0x00\n        /* \"contract/tic_tac_toe.sol\":1697:1708  board[0][0] */\n      0x03\n      dup2\n      lt\n      tag_197\n      jumpi\n      tag_198\n      tag_51\n      jump\t// in\n    tag_198:\n    tag_197:\n      0x20\n      swap2\n      dup3\n      dup3\n      div\n      add\n      swap2\n      swap1\n      mod\n      swap1\n      sload\n      swap1\n      0x0100\n      exp\n      swap1\n      div\n      0xff\n      and\n        /* \"contract/tic_tac_toe.sol\":1697:1723  board[0][0] == board[1][1] */\n      0xff\n      and\n      eq\n        /* \"contract/tic_tac_toe.sol\":1697:1753  board[0][0] == board[1][1] && board[1][1] == board[2][2] */\n      dup1\n      iszero\n      tag_200\n      jumpi\n      pop\n        /* \"contract/tic_tac_toe.sol\":1742:1747  board */\n      0x00\n        /* \"contract/tic_tac_toe.sol\":1748:1749  2 */\n      0x02\n        /* \"contract/tic_tac_toe.sol\":1742:1750  board[2] */\n      0x03\n      dup2\n      lt\n      tag_201\n      jumpi\n      tag_202\n      tag_51\n      jump\t// in\n    tag_202:\n    tag_201:\n      add\n        /* \"contract/tic_tac_toe.sol\":1751:1752  2 */\n      0x02\n        /* \"contract/tic_tac_toe.sol\":1742:1753  board[2][2] */\n      0x03\n      dup2\n      lt\n      tag_204\n      jumpi\n      tag_205\n      tag_51\n      jump\t// in\n    tag_205:\n    tag_204:\n      0x20\n      swap2\n      dup3\n      dup3\n      div\n      add\n      swap2\n      swap1\n      mod\n      swap1\n      sload\n      swap1\n      0x0100\n      exp\n      swap1\n      div\n      0xff\n      and\n        /* \"contract/tic_tac_toe.sol\":1727:1753  board[1][1] == board[2][2] */\n      0xff\n      and\n        /* \"contract/tic_tac_toe.sol\":1727:1732  board */\n      0x00\n        /* \"contract/tic_tac_toe.sol\":1733:1734  1 */\n      0x01\n        /* \"contract/tic_tac_toe.sol\":1727:1735  board[1] */\n      0x03\n      dup2\n      lt\n      tag_207\n      jumpi\n      tag_208\n      tag_51\n      jump\t// in\n    tag_208:\n    tag_207:\n      add\n        /* \"contract/tic_tac_toe.sol\":1736:1737  1 */\n      0x01\n        /* \"contract/tic_tac_toe.sol\":1727:1738  board[1][1] */\n      0x03\n      dup2\n      lt\n      tag_210\n      jumpi\n      tag_211\n      tag_51\n      jump\t// in\n    tag_211:\n    tag_210:\n      0x20\n      swap2\n      dup3\n      dup3\n      div\n      add\n      swap2\n      swap1\n      mod\n      swap1\n      sload\n      swap1\n      0x0100\n      exp\n      swap1\n      div\n      0xff\n      and\n        /* \"contract/tic_tac_toe.sol\":1727:1753  board[1][1] == board[2][2] */\n      0xff\n      and\n      eq\n        /* \"contract/tic_tac_toe.sol\":1697:1753  board[0][0] == board[1][1] && board[1][1] == board[2][2] */\n    tag_200:\n        /* \"contract/tic_tac_toe.sol\":1697:1773  board[0][0] == board[1][1] && board[1][1] == board[2][2] && board[2][2] != 0 */\n      dup1\n      iszero\n      tag_213\n      jumpi\n      pop\n        /* \"contract/tic_tac_toe.sol\":1772:1773  0 */\n      0x00\n        /* \"contract/tic_tac_toe.sol\":1757:1762  board */\n      dup1\n        /* \"contract/tic_tac_toe.sol\":1763:1764  2 */\n      0x02\n        /* \"contract/tic_tac_toe.sol\":1757:1765  board[2] */\n      0x03\n      dup2\n      lt\n      tag_214\n      jumpi\n      tag_215\n      tag_51\n      jump\t// in\n    tag_215:\n    tag_214:\n      add\n        /* \"contract/tic_tac_toe.sol\":1766:1767  2 */\n      0x02\n        /* \"contract/tic_tac_toe.sol\":1757:1768  board[2][2] */\n      0x03\n      dup2\n      lt\n      tag_217\n      jumpi\n      tag_218\n      tag_51\n      jump\t// in\n    tag_218:\n    tag_217:\n      0x20\n      swap2\n      dup3\n      dup3\n      div\n      add\n      swap2\n      swap1\n      mod\n      swap1\n      sload\n      swap1\n      0x0100\n      exp\n      swap1\n      div\n      0xff\n      and\n        /* \"contract/tic_tac_toe.sol\":1757:1773  board[2][2] != 0 */\n      0xff\n      and\n      eq\n      iszero\n        /* \"contract/tic_tac_toe.sol\":1697:1773  board[0][0] == board[1][1] && board[1][1] == board[2][2] && board[2][2] != 0 */\n    tag_213:\n        /* \"contract/tic_tac_toe.sol\":1696:1869  (board[0][0] == board[1][1] && board[1][1] == board[2][2] && board[2][2] != 0) ||... */\n      dup1\n      tag_220\n      jumpi\n      pop\n        /* \"contract/tic_tac_toe.sol\":1807:1812  board */\n      0x00\n        /* \"contract/tic_tac_toe.sol\":1813:1814  1 */\n      0x01\n        /* \"contract/tic_tac_toe.sol\":1807:1815  board[1] */\n      0x03\n      dup2\n      lt\n      tag_221\n      jumpi\n      tag_222\n      tag_51\n      jump\t// in\n    tag_222:\n    tag_221:\n      add\n        /* \"contract/tic_tac_toe.sol\":1816:1817  1 */\n      0x01\n        /* \"contract/tic_tac_toe.sol\":1807:1818  board[1][1] */\n      0x03\n      dup2\n      lt\n      tag_224\n      jumpi\n      tag_225\n      tag_51\n      jump\t// in\n    tag_225:\n    tag_224:\n      0x20\n      swap2\n      dup3\n      dup3\n      div\n      add\n      swap2\n      swap1\n      mod\n      swap1\n      sload\n      swap1\n      0x0100\n      exp\n      swap1\n      div\n      0xff\n      and\n        /* \"contract/tic_tac_toe.sol\":1792:1818  board[0][2] == board[1][1] */\n      0xff\n      and\n        /* \"contract/tic_tac_toe.sol\":1792:1797  board */\n      0x00\n        /* \"contract/tic_tac_toe.sol\":1798:1799  0 */\n      dup1\n        /* \"contract/tic_tac_toe.sol\":1792:1800  board[0] */\n      0x03\n      dup2\n      lt\n      tag_227\n      jumpi\n      tag_228\n      tag_51\n      jump\t// in\n    tag_228:\n    tag_227:\n      add\n        /* \"contract/tic_tac_toe.sol\":1801:1802  2 */\n      0x02\n        /* \"contract/tic_tac_toe.sol\":1792:1803  board[0][2] */\n      0x03\n      dup2\n      lt\n      tag_230\n      jumpi\n      tag_231\n      tag_51\n      jump\t// in\n    tag_231:\n    tag_230:\n      0x20\n      swap2\n      dup3\n      dup3\n      div\n      add\n      swap2\n      swap1\n      mod\n      swap1\n      sload\n      swap1\n      0x0100\n      exp\n      swap1\n      div\n      0xff\n      and\n        /* \"contract/tic_tac_toe.sol\":1792:1818  board[0][2] == board[1][1] */\n      0xff\n      and\n      eq\n        /* \"contract/tic_tac_toe.sol\":1792:1848  board[0][2] == board[1][1] && board[1][1] == board[2][0] */\n      dup1\n      iszero\n      tag_233\n      jumpi\n      pop\n        /* \"contract/tic_tac_toe.sol\":1837:1842  board */\n      0x00\n        /* \"contract/tic_tac_toe.sol\":1843:1844  2 */\n      0x02\n        /* \"contract/tic_tac_toe.sol\":1837:1845  board[2] */\n      0x03\n      dup2\n      lt\n      tag_234\n      jumpi\n      tag_235\n      tag_51\n      jump\t// in\n    tag_235:\n    tag_234:\n      add\n        /* \"contract/tic_tac_toe.sol\":1846:1847  0 */\n      0x00\n        /* \"contract/tic_tac_toe.sol\":1837:1848  board[2][0] */\n      0x03\n      dup2\n      lt\n      tag_237\n      jumpi\n      tag_238\n      tag_51\n      jump\t// in\n    tag_238:\n    tag_237:\n      0x20\n      swap2\n      dup3\n      dup3\n      div\n      add\n      swap2\n      swap1\n      mod\n      swap1\n      sload\n      swap1\n      0x0100\n      exp\n      swap1\n      div\n      0xff\n      and\n        /* \"contract/tic_tac_toe.sol\":1822:1848  board[1][1] == board[2][0] */\n      0xff\n      and\n        /* \"contract/tic_tac_toe.sol\":1822:1827  board */\n      0x00\n        /* \"contract/tic_tac_toe.sol\":1828:1829  1 */\n      0x01\n        /* \"contract/tic_tac_toe.sol\":1822:1830  board[1] */\n      0x03\n      dup2\n      lt\n      tag_240\n      jumpi\n      tag_241\n      tag_51\n      jump\t// in\n    tag_241:\n    tag_240:\n      add\n        /* \"contract/tic_tac_toe.sol\":1831:1832  1 */\n      0x01\n        /* \"contract/tic_tac_toe.sol\":1822:1833  board[1][1] */\n      0x03\n      dup2\n      lt\n      tag_243\n      jumpi\n      tag_244\n      tag_51\n      jump\t// in\n    tag_244:\n    tag_243:\n      0x20\n      swap2\n      dup3\n      dup3\n      div\n      add\n      swap2\n      swap1\n      mod\n      swap1\n      sload\n      swap1\n      0x0100\n      exp\n      swap1\n      div\n      0xff\n      and\n        /* \"contract/tic_tac_toe.sol\":1822:1848  board[1][1] == board[2][0] */\n      0xff\n      and\n      eq\n        /* \"contract/tic_tac_toe.sol\":1792:1848  board[0][2] == board[1][1] && board[1][1] == board[2][0] */\n    tag_233:\n        /* \"contract/tic_tac_toe.sol\":1792:1868  board[0][2] == board[1][1] && board[1][1] == board[2][0] && board[2][0] != 0 */\n      dup1\n      iszero\n      tag_246\n      jumpi\n      pop\n        /* \"contract/tic_tac_toe.sol\":1867:1868  0 */\n      0x00\n        /* \"contract/tic_tac_toe.sol\":1852:1857  board */\n      dup1\n        /* \"contract/tic_tac_toe.sol\":1858:1859  2 */\n      0x02\n        /* \"contract/tic_tac_toe.sol\":1852:1860  board[2] */\n      0x03\n      dup2\n      lt\n      tag_247\n      jumpi\n      tag_248\n      tag_51\n      jump\t// in\n    tag_248:\n    tag_247:\n      add\n        /* \"contract/tic_tac_toe.sol\":1861:1862  0 */\n      0x00\n        /* \"contract/tic_tac_toe.sol\":1852:1863  board[2][0] */\n      0x03\n      dup2\n      lt\n      tag_250\n      jumpi\n      tag_251\n      tag_51\n      jump\t// in\n    tag_251:\n    tag_250:\n      0x20\n      swap2\n      dup3\n      dup3\n      div\n      add\n      swap2\n      swap1\n      mod\n      swap1\n      sload\n      swap1\n      0x0100\n      exp\n      swap1\n      div\n      0xff\n      and\n        /* \"contract/tic_tac_toe.sol\":1852:1868  board[2][0] != 0 */\n      0xff\n      and\n      eq\n      iszero\n        /* \"contract/tic_tac_toe.sol\":1792:1868  board[0][2] == board[1][1] && board[1][1] == board[2][0] && board[2][0] != 0 */\n    tag_246:\n        /* \"contract/tic_tac_toe.sol\":1696:1869  (board[0][0] == board[1][1] && board[1][1] == board[2][2] && board[2][2] != 0) ||... */\n    tag_220:\n        /* \"contract/tic_tac_toe.sol\":1692:1917  if ((board[0][0] == board[1][1] && board[1][1] == board[2][2] && board[2][2] != 0) ||... */\n      iszero\n      tag_253\n      jumpi\n        /* \"contract/tic_tac_toe.sol\":1895:1905  lastPlayer */\n      0x03\n      0x00\n      swap1\n      sload\n      swap1\n      0x0100\n      exp\n      swap1\n      div\n      0xff\n      and\n        /* \"contract/tic_tac_toe.sol\":1886:1892  winner */\n      0x03\n      0x02\n        /* \"contract/tic_tac_toe.sol\":1886:1905  winner = lastPlayer */\n      0x0100\n      exp\n      dup2\n      sload\n      dup2\n      0xff\n      mul\n      not\n      and\n      swap1\n      dup4\n      0xff\n      and\n      mul\n      or\n      swap1\n      sstore\n      pop\n        /* \"contract/tic_tac_toe.sol\":1692:1917  if ((board[0][0] == board[1][1] && board[1][1] == board[2][2] && board[2][2] != 0) ||... */\n    tag_253:\n        /* \"contract/tic_tac_toe.sol\":865:1924  function play(uint8 x, uint8 y) public {... */\n      pop\n      pop\n      jump\t// out\n        /* \"contract/tic_tac_toe.sol\":2645:4043  function checkForWin() private {... */\n    tag_76:\n        /* \"contract/tic_tac_toe.sol\":2687:2706  uint8 winLineLength */\n      0x00\n        /* \"contract/tic_tac_toe.sol\":116:117  3 */\n      0x03\n        /* \"contract/tic_tac_toe.sol\":2687:2719  uint8 winLineLength = BOARD_SIZE */\n      swap1\n      pop\n        /* \"contract/tic_tac_toe.sol\":2757:2764  uint8 i */\n      0x00\n        /* \"contract/tic_tac_toe.sol\":2752:3100  for (uint8 i = 0; i < BOARD_SIZE; i++) {... */\n    tag_255:\n        /* \"contract/tic_tac_toe.sol\":116:117  3 */\n      0x03\n        /* \"contract/tic_tac_toe.sol\":2770:2784  i < BOARD_SIZE */\n      0xff\n      and\n        /* \"contract/tic_tac_toe.sol\":2770:2771  i */\n      dup2\n        /* \"contract/tic_tac_toe.sol\":2770:2784  i < BOARD_SIZE */\n      0xff\n      and\n      lt\n        /* \"contract/tic_tac_toe.sol\":2752:3100  for (uint8 i = 0; i < BOARD_SIZE; i++) {... */\n      iszero\n      tag_256\n      jumpi\n        /* \"contract/tic_tac_toe.sol\":2806:2818  uint8 counts */\n      0x00\n        /* \"contract/tic_tac_toe.sol\":2842:2849  uint8 j */\n      dup1\n        /* \"contract/tic_tac_toe.sol\":2837:2992  for (uint8 j = 0; j < BOARD_SIZE; j++) {... */\n    tag_258:\n        /* \"contract/tic_tac_toe.sol\":116:117  3 */\n      0x03\n        /* \"contract/tic_tac_toe.sol\":2855:2869  j < BOARD_SIZE */\n      0xff\n      and\n        /* \"contract/tic_tac_toe.sol\":2855:2856  j */\n      dup2\n        /* \"contract/tic_tac_toe.sol\":2855:2869  j < BOARD_SIZE */\n      0xff\n      and\n      lt\n        /* \"contract/tic_tac_toe.sol\":2837:2992  for (uint8 j = 0; j < BOARD_SIZE; j++) {... */\n      iszero\n      tag_259\n      jumpi\n        /* \"contract/tic_tac_toe.sol\":2914:2924  lastPlayer */\n      0x03\n      0x00\n      swap1\n      sload\n      swap1\n      0x0100\n      exp\n      swap1\n      div\n      0xff\n      and\n        /* \"contract/tic_tac_toe.sol\":2899:2924  board[i][j] == lastPlayer */\n      0xff\n      and\n        /* \"contract/tic_tac_toe.sol\":2899:2904  board */\n      0x00\n        /* \"contract/tic_tac_toe.sol\":2905:2906  i */\n      dup5\n        /* \"contract/tic_tac_toe.sol\":2899:2907  board[i] */\n      0xff\n      and\n      0x03\n      dup2\n      lt\n      tag_261\n      jumpi\n      tag_262\n      tag_51\n      jump\t// in\n    tag_262:\n    tag_261:\n      add\n        /* \"contract/tic_tac_toe.sol\":2908:2909  j */\n      dup3\n        /* \"contract/tic_tac_toe.sol\":2899:2910  board[i][j] */\n      0xff\n      and\n      0x03\n      dup2\n      lt\n      tag_264\n      jumpi\n      tag_265\n      tag_51\n      jump\t// in\n    tag_265:\n    tag_264:\n      0x20\n      swap2\n      dup3\n      dup3\n      div\n      add\n      swap2\n      swap1\n      mod\n      swap1\n      sload\n      swap1\n      0x0100\n      exp\n      swap1\n      div\n      0xff\n      and\n        /* \"contract/tic_tac_toe.sol\":2899:2924  board[i][j] == lastPlayer */\n      0xff\n      and\n      sub\n        /* \"contract/tic_tac_toe.sol\":2895:2977  if (board[i][j] == lastPlayer) {... */\n      tag_267\n      jumpi\n        /* \"contract/tic_tac_toe.sol\":2949:2957  counts++ */\n      dup2\n      dup1\n      tag_268\n      swap1\n      tag_91\n      jump\t// in\n    tag_268:\n      swap3\n      pop\n      pop\n        /* \"contract/tic_tac_toe.sol\":2895:2977  if (board[i][j] == lastPlayer) {... */\n    tag_267:\n        /* \"contract/tic_tac_toe.sol\":2871:2874  j++ */\n      dup1\n      dup1\n      tag_269\n      swap1\n      tag_91\n      jump\t// in\n    tag_269:\n      swap2\n      pop\n      pop\n        /* \"contract/tic_tac_toe.sol\":2837:2992  for (uint8 j = 0; j < BOARD_SIZE; j++) {... */\n      jump(tag_258)\n    tag_259:\n      pop\n        /* \"contract/tic_tac_toe.sol\":3020:3033  winLineLength */\n      dup3\n        /* \"contract/tic_tac_toe.sol\":3010:3033  counts == winLineLength */\n      0xff\n      and\n        /* \"contract/tic_tac_toe.sol\":3010:3016  counts */\n      dup2\n        /* \"contract/tic_tac_toe.sol\":3010:3033  counts == winLineLength */\n      0xff\n      and\n      sub\n        /* \"contract/tic_tac_toe.sol\":3006:3089  if (counts == winLineLength) {... */\n      tag_270\n      jumpi\n        /* \"contract/tic_tac_toe.sol\":3063:3073  lastPlayer */\n      0x03\n      0x00\n      swap1\n      sload\n      swap1\n      0x0100\n      exp\n      swap1\n      div\n      0xff\n      and\n        /* \"contract/tic_tac_toe.sol\":3054:3060  winner */\n      0x03\n      0x02\n        /* \"contract/tic_tac_toe.sol\":3054:3073  winner = lastPlayer */\n      0x0100\n      exp\n      dup2\n      sload\n      dup2\n      0xff\n      mul\n      not\n      and\n      swap1\n      dup4\n      0xff\n      and\n      mul\n      or\n      swap1\n      sstore\n      pop\n        /* \"contract/tic_tac_toe.sol\":3006:3089  if (counts == winLineLength) {... */\n    tag_270:\n        /* \"contract/tic_tac_toe.sol\":2791:3100  {... */\n      pop\n        /* \"contract/tic_tac_toe.sol\":2786:2789  i++ */\n      dup1\n      dup1\n      tag_271\n      swap1\n      tag_91\n      jump\t// in\n    tag_271:\n      swap2\n      pop\n      pop\n        /* \"contract/tic_tac_toe.sol\":2752:3100  for (uint8 i = 0; i < BOARD_SIZE; i++) {... */\n      jump(tag_255)\n    tag_256:\n      pop\n        /* \"contract/tic_tac_toe.sol\":3139:3146  uint8 j */\n      0x00\n        /* \"contract/tic_tac_toe.sol\":3134:3482  for (uint8 j = 0; j < BOARD_SIZE; j++) {... */\n    tag_272:\n        /* \"contract/tic_tac_toe.sol\":116:117  3 */\n      0x03\n        /* \"contract/tic_tac_toe.sol\":3152:3166  j < BOARD_SIZE */\n      0xff\n      and\n        /* \"contract/tic_tac_toe.sol\":3152:3153  j */\n      dup2\n        /* \"contract/tic_tac_toe.sol\":3152:3166  j < BOARD_SIZE */\n      0xff\n      and\n      lt\n        /* \"contract/tic_tac_toe.sol\":3134:3482  for (uint8 j = 0; j < BOARD_SIZE; j++) {... */\n      iszero\n      tag_273\n      jumpi\n        /* \"contract/tic_tac_toe.sol\":3188:3200  uint8 countx */\n      0x00\n        /* \"contract/tic_tac_toe.sol\":3224:3231  uint8 i */\n      dup1\n        /* \"contract/tic_tac_toe.sol\":3219:3374  for (uint8 i = 0; i < BOARD_SIZE; i++) {... */\n    tag_275:\n        /* \"contract/tic_tac_toe.sol\":116:117  3 */\n      0x03\n        /* \"contract/tic_tac_toe.sol\":3237:3251  i < BOARD_SIZE */\n      0xff\n      and\n        /* \"contract/tic_tac_toe.sol\":3237:3238  i */\n      dup2\n        /* \"contract/tic_tac_toe.sol\":3237:3251  i < BOARD_SIZE */\n      0xff\n      and\n      lt\n        /* \"contract/tic_tac_toe.sol\":3219:3374  for (uint8 i = 0; i < BOARD_SIZE; i++) {... */\n      iszero\n      tag_276\n      jumpi\n        /* \"contract/tic_tac_toe.sol\":3296:3306  lastPlayer */\n      0x03\n      0x00\n      swap1\n      sload\n      swap1\n      0x0100\n      exp\n      swap1\n      div\n      0xff\n      and\n        /* \"contract/tic_tac_toe.sol\":3281:3306  board[i][j] == lastPlayer */\n      0xff\n      and\n        /* \"contract/tic_tac_toe.sol\":3281:3286  board */\n      0x00\n        /* \"contract/tic_tac_toe.sol\":3287:3288  i */\n      dup3\n        /* \"contract/tic_tac_toe.sol\":3281:3289  board[i] */\n      0xff\n      and\n      0x03\n      dup2\n      lt\n      tag_278\n      jumpi\n      tag_279\n      tag_51\n      jump\t// in\n    tag_279:\n    tag_278:\n      add\n        /* \"contract/tic_tac_toe.sol\":3290:3291  j */\n      dup5\n        /* \"contract/tic_tac_toe.sol\":3281:3292  board[i][j] */\n      0xff\n      and\n      0x03\n      dup2\n      lt\n      tag_281\n      jumpi\n      tag_282\n      tag_51\n      jump\t// in\n    tag_282:\n    tag_281:\n      0x20\n      swap2\n      dup3\n      dup3\n      div\n      add\n      swap2\n      swap1\n      mod\n      swap1\n      sload\n      swap1\n      0x0100\n      exp\n      swap1\n      div\n      0xff\n      and\n        /* \"contract/tic_tac_toe.sol\":3281:3306  board[i][j] == lastPlayer */\n      0xff\n      and\n      sub\n        /* \"contract/tic_tac_toe.sol\":3277:3359  if (board[i][j] == lastPlayer) {... */\n      tag_284\n      jumpi\n        /* \"contract/tic_tac_toe.sol\":3331:3339  countx++ */\n      dup2\n      dup1\n      tag_285\n      swap1\n      tag_91\n      jump\t// in\n    tag_285:\n      swap3\n      pop\n      pop\n        /* \"contract/tic_tac_toe.sol\":3277:3359  if (board[i][j] == lastPlayer) {... */\n    tag_284:\n        /* \"contract/tic_tac_toe.sol\":3253:3256  i++ */\n      dup1\n      dup1\n      tag_286\n      swap1\n      tag_91\n      jump\t// in\n    tag_286:\n      swap2\n      pop\n      pop\n        /* \"contract/tic_tac_toe.sol\":3219:3374  for (uint8 i = 0; i < BOARD_SIZE; i++) {... */\n      jump(tag_275)\n    tag_276:\n      pop\n        /* \"contract/tic_tac_toe.sol\":3402:3415  winLineLength */\n      dup3\n        /* \"contract/tic_tac_toe.sol\":3392:3415  countx == winLineLength */\n      0xff\n      and\n        /* \"contract/tic_tac_toe.sol\":3392:3398  countx */\n      dup2\n        /* \"contract/tic_tac_toe.sol\":3392:3415  countx == winLineLength */\n      0xff\n      and\n      sub\n        /* \"contract/tic_tac_toe.sol\":3388:3471  if (countx == winLineLength) {... */\n      tag_287\n      jumpi\n        /* \"contract/tic_tac_toe.sol\":3445:3455  lastPlayer */\n      0x03\n      0x00\n      swap1\n      sload\n      swap1\n      0x0100\n      exp\n      swap1\n      div\n      0xff\n      and\n        /* \"contract/tic_tac_toe.sol\":3436:3442  winner */\n      0x03\n      0x02\n        /* \"contract/tic_tac_toe.sol\":3436:3455  winner = lastPlayer */\n      0x0100\n      exp\n      dup2\n      sload\n      dup2\n      0xff\n      mul\n      not\n      and\n      swap1\n      dup4\n      0xff\n      and\n      mul\n      or\n      swap1\n      sstore\n      pop\n        /* \"contract/tic_tac_toe.sol\":3388:3471  if (countx == winLineLength) {... */\n    tag_287:\n        /* \"contract/tic_tac_toe.sol\":3173:3482  {... */\n      pop\n        /* \"contract/tic_tac_toe.sol\":3168:3171  j++ */\n      dup1\n      dup1\n      tag_288\n      swap1\n      tag_91\n      jump\t// in\n    tag_288:\n      swap2\n      pop\n      pop\n        /* \"contract/tic_tac_toe.sol\":3134:3482  for (uint8 j = 0; j < BOARD_SIZE; j++) {... */\n      jump(tag_272)\n    tag_273:\n      pop\n        /* \"contract/tic_tac_toe.sol\":3517:3528  uint8 count */\n      0x00\n        /* \"contract/tic_tac_toe.sol\":3548:3555  uint8 i */\n      dup1\n        /* \"contract/tic_tac_toe.sol\":3543:3681  for (uint8 i = 0; i < BOARD_SIZE; i++) {... */\n    tag_289:\n        /* \"contract/tic_tac_toe.sol\":116:117  3 */\n      0x03\n        /* \"contract/tic_tac_toe.sol\":3561:3575  i < BOARD_SIZE */\n      0xff\n      and\n        /* \"contract/tic_tac_toe.sol\":3561:3562  i */\n      dup2\n        /* \"contract/tic_tac_toe.sol\":3561:3575  i < BOARD_SIZE */\n      0xff\n      and\n      lt\n        /* \"contract/tic_tac_toe.sol\":3543:3681  for (uint8 i = 0; i < BOARD_SIZE; i++) {... */\n      iszero\n      tag_290\n      jumpi\n        /* \"contract/tic_tac_toe.sol\":3616:3626  lastPlayer */\n      0x03\n      0x00\n      swap1\n      sload\n      swap1\n      0x0100\n      exp\n      swap1\n      div\n      0xff\n      and\n        /* \"contract/tic_tac_toe.sol\":3601:3626  board[i][i] == lastPlayer */\n      0xff\n      and\n        /* \"contract/tic_tac_toe.sol\":3601:3606  board */\n      0x00\n        /* \"contract/tic_tac_toe.sol\":3607:3608  i */\n      dup3\n        /* \"contract/tic_tac_toe.sol\":3601:3609  board[i] */\n      0xff\n      and\n      0x03\n      dup2\n      lt\n      tag_292\n      jumpi\n      tag_293\n      tag_51\n      jump\t// in\n    tag_293:\n    tag_292:\n      add\n        /* \"contract/tic_tac_toe.sol\":3610:3611  i */\n      dup3\n        /* \"contract/tic_tac_toe.sol\":3601:3612  board[i][i] */\n      0xff\n      and\n      0x03\n      dup2\n      lt\n      tag_295\n      jumpi\n      tag_296\n      tag_51\n      jump\t// in\n    tag_296:\n    tag_295:\n      0x20\n      swap2\n      dup3\n      dup3\n      div\n      add\n      swap2\n      swap1\n      mod\n      swap1\n      sload\n      swap1\n      0x0100\n      exp\n      swap1\n      div\n      0xff\n      and\n        /* \"contract/tic_tac_toe.sol\":3601:3626  board[i][i] == lastPlayer */\n      0xff\n      and\n      sub\n        /* \"contract/tic_tac_toe.sol\":3597:3670  if (board[i][i] == lastPlayer) {... */\n      tag_298\n      jumpi\n        /* \"contract/tic_tac_toe.sol\":3647:3654  count++ */\n      dup2\n      dup1\n      tag_299\n      swap1\n      tag_91\n      jump\t// in\n    tag_299:\n      swap3\n      pop\n      pop\n        /* \"contract/tic_tac_toe.sol\":3597:3670  if (board[i][i] == lastPlayer) {... */\n    tag_298:\n        /* \"contract/tic_tac_toe.sol\":3577:3580  i++ */\n      dup1\n      dup1\n      tag_300\n      swap1\n      tag_91\n      jump\t// in\n    tag_300:\n      swap2\n      pop\n      pop\n        /* \"contract/tic_tac_toe.sol\":3543:3681  for (uint8 i = 0; i < BOARD_SIZE; i++) {... */\n      jump(tag_289)\n    tag_290:\n      pop\n        /* \"contract/tic_tac_toe.sol\":3704:3717  winLineLength */\n      dup2\n        /* \"contract/tic_tac_toe.sol\":3695:3717  count == winLineLength */\n      0xff\n      and\n        /* \"contract/tic_tac_toe.sol\":3695:3700  count */\n      dup2\n        /* \"contract/tic_tac_toe.sol\":3695:3717  count == winLineLength */\n      0xff\n      and\n      sub\n        /* \"contract/tic_tac_toe.sol\":3691:3765  if (count == winLineLength) {... */\n      tag_301\n      jumpi\n        /* \"contract/tic_tac_toe.sol\":3743:3753  lastPlayer */\n      0x03\n      0x00\n      swap1\n      sload\n      swap1\n      0x0100\n      exp\n      swap1\n      div\n      0xff\n      and\n        /* \"contract/tic_tac_toe.sol\":3734:3740  winner */\n      0x03\n      0x02\n        /* \"contract/tic_tac_toe.sol\":3734:3753  winner = lastPlayer */\n      0x0100\n      exp\n      dup2\n      sload\n      dup2\n      0xff\n      mul\n      not\n      and\n      swap1\n      dup4\n      0xff\n      and\n      mul\n      or\n      swap1\n      sstore\n      pop\n        /* \"contract/tic_tac_toe.sol\":3691:3765  if (count == winLineLength) {... */\n    tag_301:\n        /* \"contract/tic_tac_toe.sol\":3785:3786  0 */\n      0x00\n        /* \"contract/tic_tac_toe.sol\":3777:3786  count = 0 */\n      swap1\n      pop\n        /* \"contract/tic_tac_toe.sol\":3802:3809  uint8 i */\n      0x00\n        /* \"contract/tic_tac_toe.sol\":3797:3952  for (uint8 i = 0; i < BOARD_SIZE; i++) {... */\n    tag_302:\n        /* \"contract/tic_tac_toe.sol\":116:117  3 */\n      0x03\n        /* \"contract/tic_tac_toe.sol\":3815:3829  i < BOARD_SIZE */\n      0xff\n      and\n        /* \"contract/tic_tac_toe.sol\":3815:3816  i */\n      dup2\n        /* \"contract/tic_tac_toe.sol\":3815:3829  i < BOARD_SIZE */\n      0xff\n      and\n      lt\n        /* \"contract/tic_tac_toe.sol\":3797:3952  for (uint8 i = 0; i < BOARD_SIZE; i++) {... */\n      iszero\n      tag_303\n      jumpi\n        /* \"contract/tic_tac_toe.sol\":3887:3897  lastPlayer */\n      0x03\n      0x00\n      swap1\n      sload\n      swap1\n      0x0100\n      exp\n      swap1\n      div\n      0xff\n      and\n        /* \"contract/tic_tac_toe.sol\":3855:3897  board[i][BOARD_SIZE - i - 1] == lastPlayer */\n      0xff\n      and\n        /* \"contract/tic_tac_toe.sol\":3855:3860  board */\n      0x00\n        /* \"contract/tic_tac_toe.sol\":3861:3862  i */\n      dup3\n        /* \"contract/tic_tac_toe.sol\":3855:3863  board[i] */\n      0xff\n      and\n      0x03\n      dup2\n      lt\n      tag_305\n      jumpi\n      tag_306\n      tag_51\n      jump\t// in\n    tag_306:\n    tag_305:\n      add\n        /* \"contract/tic_tac_toe.sol\":3881:3882  1 */\n      0x01\n        /* \"contract/tic_tac_toe.sol\":3877:3878  i */\n      dup4\n        /* \"contract/tic_tac_toe.sol\":116:117  3 */\n      0x03\n        /* \"contract/tic_tac_toe.sol\":3864:3878  BOARD_SIZE - i */\n      tag_308\n      swap2\n      swap1\n      tag_309\n      jump\t// in\n    tag_308:\n        /* \"contract/tic_tac_toe.sol\":3864:3882  BOARD_SIZE - i - 1 */\n      tag_310\n      swap2\n      swap1\n      tag_309\n      jump\t// in\n    tag_310:\n        /* \"contract/tic_tac_toe.sol\":3855:3883  board[i][BOARD_SIZE - i - 1] */\n      0xff\n      and\n      0x03\n      dup2\n      lt\n      tag_311\n      jumpi\n      tag_312\n      tag_51\n      jump\t// in\n    tag_312:\n    tag_311:\n      0x20\n      swap2\n      dup3\n      dup3\n      div\n      add\n      swap2\n      swap1\n      mod\n      swap1\n      sload\n      swap1\n      0x0100\n      exp\n      swap1\n      div\n      0xff\n      and\n        /* \"contract/tic_tac_toe.sol\":3855:3897  board[i][BOARD_SIZE - i - 1] == lastPlayer */\n      0xff\n      and\n      sub\n        /* \"contract/tic_tac_toe.sol\":3851:3941  if (board[i][BOARD_SIZE - i - 1] == lastPlayer) {... */\n      tag_314\n      jumpi\n        /* \"contract/tic_tac_toe.sol\":3918:3925  count++ */\n      dup2\n      dup1\n      tag_315\n      swap1\n      tag_91\n      jump\t// in\n    tag_315:\n      swap3\n      pop\n      pop\n        /* \"contract/tic_tac_toe.sol\":3851:3941  if (board[i][BOARD_SIZE - i - 1] == lastPlayer) {... */\n    tag_314:\n        /* \"contract/tic_tac_toe.sol\":3831:3834  i++ */\n      dup1\n      dup1\n      tag_316\n      swap1\n      tag_91\n      jump\t// in\n    tag_316:\n      swap2\n      pop\n      pop\n        /* \"contract/tic_tac_toe.sol\":3797:3952  for (uint8 i = 0; i < BOARD_SIZE; i++) {... */\n      jump(tag_302)\n    tag_303:\n      pop\n        /* \"contract/tic_tac_toe.sol\":3975:3988  winLineLength */\n      dup2\n        /* \"contract/tic_tac_toe.sol\":3966:3988  count == winLineLength */\n      0xff\n      and\n        /* \"contract/tic_tac_toe.sol\":3966:3971  count */\n      dup2\n        /* \"contract/tic_tac_toe.sol\":3966:3988  count == winLineLength */\n      0xff\n      and\n      sub\n        /* \"contract/tic_tac_toe.sol\":3962:4036  if (count == winLineLength) {... */\n      tag_317\n      jumpi\n        /* \"contract/tic_tac_toe.sol\":4014:4024  lastPlayer */\n      0x03\n      0x00\n      swap1\n      sload\n      swap1\n      0x0100\n      exp\n      swap1\n      div\n      0xff\n      and\n        /* \"contract/tic_tac_toe.sol\":4005:4011  winner */\n      0x03\n      0x02\n        /* \"contract/tic_tac_toe.sol\":4005:4024  winner = lastPlayer */\n      0x0100\n      exp\n      dup2\n      sload\n      dup2\n      0xff\n      mul\n      not\n      and\n      swap1\n      dup4\n      0xff\n      and\n      mul\n      or\n      swap1\n      sstore\n      pop\n        /* \"contract/tic_tac_toe.sol\":3962:4036  if (count == winLineLength) {... */\n    tag_317:\n        /* \"contract/tic_tac_toe.sol\":2676:4043  {... */\n      pop\n      pop\n        /* \"contract/tic_tac_toe.sol\":2645:4043  function checkForWin() private {... */\n      jump\t// out\n    tag_29:\n      mload(0x40)\n      dup1\n      0x60\n      add\n      0x40\n      mstore\n      dup1\n      0x03\n      swap1\n    tag_318:\n      tag_319\n      tag_320\n      jump\t// in\n    tag_319:\n      dup2\n      mstore\n      0x20\n      add\n      swap1\n      0x01\n      swap1\n      sub\n      swap1\n      dup2\n      tag_318\n      jumpi\n      swap1\n      pop\n      pop\n      swap1\n      jump\t// out\n    tag_320:\n      mload(0x40)\n      dup1\n      0x60\n      add\n      0x40\n      mstore\n      dup1\n      0x03\n      swap1\n      0x20\n      dup3\n      mul\n      dup1\n      calldatasize\n      dup4\n      calldatacopy\n      dup1\n      dup3\n      add\n      swap2\n      pop\n      pop\n      swap1\n      pop\n      pop\n      swap1\n      jump\t// out\n        /* \"#utility.yul\":7:132   */\n    tag_321:\n        /* \"#utility.yul\":93:99   */\n      0x00\n        /* \"#utility.yul\":121:125   */\n      0x03\n        /* \"#utility.yul\":111:125   */\n      swap1\n      pop\n        /* \"#utility.yul\":7:132   */\n      swap2\n      swap1\n      pop\n      jump\t// out\n        /* \"#utility.yul\":138:302   */\n    tag_322:\n        /* \"#utility.yul\":256:267   */\n      0x00\n        /* \"#utility.yul\":293:296   */\n      dup2\n        /* \"#utility.yul\":278:296   */\n      swap1\n      pop\n        /* \"#utility.yul\":138:302   */\n      swap3\n      swap2\n      pop\n      pop\n      jump\t// out\n        /* \"#utility.yul\":308:427   */\n    tag_323:\n        /* \"#utility.yul\":394:398   */\n      0x00\n        /* \"#utility.yul\":417:420   */\n      dup2\n        /* \"#utility.yul\":409:420   */\n      swap1\n      pop\n        /* \"#utility.yul\":308:427   */\n      swap2\n      swap1\n      pop\n      jump\t// out\n        /* \"#utility.yul\":433:535   */\n    tag_324:\n        /* \"#utility.yul\":496:502   */\n      0x00\n        /* \"#utility.yul\":524:528   */\n      0x03\n        /* \"#utility.yul\":514:528   */\n      swap1\n      pop\n        /* \"#utility.yul\":433:535   */\n      swap2\n      swap1\n      pop\n      jump\t// out\n        /* \"#utility.yul\":541:672   */\n    tag_325:\n        /* \"#utility.yul\":626:637   */\n      0x00\n        /* \"#utility.yul\":663:666   */\n      dup2\n        /* \"#utility.yul\":648:666   */\n      swap1\n      pop\n        /* \"#utility.yul\":541:672   */\n      swap3\n      swap2\n      pop\n      pop\n      jump\t// out\n        /* \"#utility.yul\":678:774   */\n    tag_326:\n        /* \"#utility.yul\":741:745   */\n      0x00\n        /* \"#utility.yul\":764:767   */\n      dup2\n        /* \"#utility.yul\":756:767   */\n      swap1\n      pop\n        /* \"#utility.yul\":678:774   */\n      swap2\n      swap1\n      pop\n      jump\t// out\n        /* \"#utility.yul\":780:866   */\n    tag_327:\n        /* \"#utility.yul\":815:822   */\n      0x00\n        /* \"#utility.yul\":855:859   */\n      0xff\n        /* \"#utility.yul\":848:853   */\n      dup3\n        /* \"#utility.yul\":844:860   */\n      and\n        /* \"#utility.yul\":833:860   */\n      swap1\n      pop\n        /* \"#utility.yul\":780:866   */\n      swap2\n      swap1\n      pop\n      jump\t// out\n        /* \"#utility.yul\":872:974   */\n    tag_328:\n        /* \"#utility.yul\":945:967   */\n      tag_369\n        /* \"#utility.yul\":961:966   */\n      dup2\n        /* \"#utility.yul\":945:967   */\n      tag_327\n      jump\t// in\n    tag_369:\n        /* \"#utility.yul\":940:943   */\n      dup3\n        /* \"#utility.yul\":933:968   */\n      mstore\n        /* \"#utility.yul\":872:974   */\n      pop\n      pop\n      jump\t// out\n        /* \"#utility.yul\":980:1151   */\n    tag_329:\n        /* \"#utility.yul\":1045:1055   */\n      0x00\n        /* \"#utility.yul\":1066:1108   */\n      tag_371\n        /* \"#utility.yul\":1104:1107   */\n      dup4\n        /* \"#utility.yul\":1096:1102   */\n      dup4\n        /* \"#utility.yul\":1066:1108   */\n      tag_328\n      jump\t// in\n    tag_371:\n        /* \"#utility.yul\":1140:1144   */\n      0x20\n        /* \"#utility.yul\":1135:1138   */\n      dup4\n        /* \"#utility.yul\":1131:1145   */\n      add\n        /* \"#utility.yul\":1117:1145   */\n      swap1\n      pop\n        /* \"#utility.yul\":980:1151   */\n      swap3\n      swap2\n      pop\n      pop\n      jump\t// out\n        /* \"#utility.yul\":1157:1266   */\n    tag_330:\n        /* \"#utility.yul\":1223:1227   */\n      0x00\n        /* \"#utility.yul\":1255:1259   */\n      0x20\n        /* \"#utility.yul\":1250:1253   */\n      dup3\n        /* \"#utility.yul\":1246:1260   */\n      add\n        /* \"#utility.yul\":1238:1260   */\n      swap1\n      pop\n        /* \"#utility.yul\":1157:1266   */\n      swap2\n      swap1\n      pop\n      jump\t// out\n        /* \"#utility.yul\":1300:1958   */\n    tag_331:\n        /* \"#utility.yul\":1422:1472   */\n      tag_374\n        /* \"#utility.yul\":1466:1471   */\n      dup2\n        /* \"#utility.yul\":1422:1472   */\n      tag_324\n      jump\t// in\n    tag_374:\n        /* \"#utility.yul\":1488:1560   */\n      tag_375\n        /* \"#utility.yul\":1553:1559   */\n      dup2\n        /* \"#utility.yul\":1548:1551   */\n      dup5\n        /* \"#utility.yul\":1488:1560   */\n      tag_325\n      jump\t// in\n    tag_375:\n        /* \"#utility.yul\":1481:1560   */\n      swap3\n      pop\n        /* \"#utility.yul\":1584:1636   */\n      tag_376\n        /* \"#utility.yul\":1630:1635   */\n      dup3\n        /* \"#utility.yul\":1584:1636   */\n      tag_326\n      jump\t// in\n    tag_376:\n        /* \"#utility.yul\":1659:1666   */\n      dup1\n        /* \"#utility.yul\":1690:1691   */\n      0x00\n        /* \"#utility.yul\":1675:1951   */\n    tag_377:\n        /* \"#utility.yul\":1700:1706   */\n      dup4\n        /* \"#utility.yul\":1697:1698   */\n      dup2\n        /* \"#utility.yul\":1694:1707   */\n      lt\n        /* \"#utility.yul\":1675:1951   */\n      iszero\n      tag_379\n      jumpi\n        /* \"#utility.yul\":1776:1782   */\n      dup2\n        /* \"#utility.yul\":1770:1783   */\n      mload\n        /* \"#utility.yul\":1803:1862   */\n      tag_380\n        /* \"#utility.yul\":1858:1861   */\n      dup8\n        /* \"#utility.yul\":1843:1856   */\n      dup3\n        /* \"#utility.yul\":1803:1862   */\n      tag_329\n      jump\t// in\n    tag_380:\n        /* \"#utility.yul\":1796:1862   */\n      swap7\n      pop\n        /* \"#utility.yul\":1885:1941   */\n      tag_381\n        /* \"#utility.yul\":1934:1940   */\n      dup4\n        /* \"#utility.yul\":1885:1941   */\n      tag_330\n      jump\t// in\n    tag_381:\n        /* \"#utility.yul\":1875:1941   */\n      swap3\n      pop\n        /* \"#utility.yul\":1735:1951   */\n      pop\n        /* \"#utility.yul\":1722:1723   */\n      0x01\n        /* \"#utility.yul\":1719:1720   */\n      dup2\n        /* \"#utility.yul\":1715:1724   */\n      add\n        /* \"#utility.yul\":1710:1724   */\n      swap1\n      pop\n        /* \"#utility.yul\":1675:1951   */\n      jump(tag_377)\n    tag_379:\n        /* \"#utility.yul\":1679:1693   */\n      pop\n        /* \"#utility.yul\":1398:1958   */\n      pop\n      pop\n      pop\n        /* \"#utility.yul\":1300:1958   */\n      pop\n      pop\n      jump\t// out\n        /* \"#utility.yul\":1964:2227   */\n    tag_332:\n        /* \"#utility.yul\":2075:2085   */\n      0x00\n        /* \"#utility.yul\":2096:2184   */\n      tag_383\n        /* \"#utility.yul\":2180:2183   */\n      dup4\n        /* \"#utility.yul\":2172:2178   */\n      dup4\n        /* \"#utility.yul\":2096:2184   */\n      tag_331\n      jump\t// in\n    tag_383:\n        /* \"#utility.yul\":2216:2220   */\n      0x60\n        /* \"#utility.yul\":2211:2214   */\n      dup4\n        /* \"#utility.yul\":2207:2221   */\n      add\n        /* \"#utility.yul\":2193:2221   */\n      swap1\n      pop\n        /* \"#utility.yul\":1964:2227   */\n      swap3\n      swap2\n      pop\n      pop\n      jump\t// out\n        /* \"#utility.yul\":2233:2365   */\n    tag_333:\n        /* \"#utility.yul\":2322:2326   */\n      0x00\n        /* \"#utility.yul\":2354:2358   */\n      0x20\n        /* \"#utility.yul\":2349:2352   */\n      dup3\n        /* \"#utility.yul\":2345:2359   */\n      add\n        /* \"#utility.yul\":2337:2359   */\n      swap1\n      pop\n        /* \"#utility.yul\":2233:2365   */\n      swap2\n      swap1\n      pop\n      jump\t// out\n        /* \"#utility.yul\":2405:3267   */\n    tag_334:\n        /* \"#utility.yul\":2583:2656   */\n      tag_386\n        /* \"#utility.yul\":2650:2655   */\n      dup2\n        /* \"#utility.yul\":2583:2656   */\n      tag_321\n      jump\t// in\n    tag_386:\n        /* \"#utility.yul\":2672:2777   */\n      tag_387\n        /* \"#utility.yul\":2770:2776   */\n      dup2\n        /* \"#utility.yul\":2765:2768   */\n      dup5\n        /* \"#utility.yul\":2672:2777   */\n      tag_322\n      jump\t// in\n    tag_387:\n        /* \"#utility.yul\":2665:2777   */\n      swap3\n      pop\n        /* \"#utility.yul\":2801:2876   */\n      tag_388\n        /* \"#utility.yul\":2870:2875   */\n      dup3\n        /* \"#utility.yul\":2801:2876   */\n      tag_323\n      jump\t// in\n    tag_388:\n        /* \"#utility.yul\":2899:2906   */\n      dup1\n        /* \"#utility.yul\":2930:2931   */\n      0x00\n        /* \"#utility.yul\":2915:3260   */\n    tag_389:\n        /* \"#utility.yul\":2940:2946   */\n      dup4\n        /* \"#utility.yul\":2937:2938   */\n      dup2\n        /* \"#utility.yul\":2934:2947   */\n      lt\n        /* \"#utility.yul\":2915:3260   */\n      iszero\n      tag_391\n      jumpi\n        /* \"#utility.yul\":3016:3022   */\n      dup2\n        /* \"#utility.yul\":3010:3023   */\n      mload\n        /* \"#utility.yul\":3043:3148   */\n      tag_392\n        /* \"#utility.yul\":3144:3147   */\n      dup8\n        /* \"#utility.yul\":3129:3142   */\n      dup3\n        /* \"#utility.yul\":3043:3148   */\n      tag_332\n      jump\t// in\n    tag_392:\n        /* \"#utility.yul\":3036:3148   */\n      swap7\n      pop\n        /* \"#utility.yul\":3171:3250   */\n      tag_393\n        /* \"#utility.yul\":3243:3249   */\n      dup4\n        /* \"#utility.yul\":3171:3250   */\n      tag_333\n      jump\t// in\n    tag_393:\n        /* \"#utility.yul\":3161:3250   */\n      swap3\n      pop\n        /* \"#utility.yul\":2975:3260   */\n      pop\n        /* \"#utility.yul\":2962:2963   */\n      0x01\n        /* \"#utility.yul\":2959:2960   */\n      dup2\n        /* \"#utility.yul\":2955:2964   */\n      add\n        /* \"#utility.yul\":2950:2964   */\n      swap1\n      pop\n        /* \"#utility.yul\":2915:3260   */\n      jump(tag_389)\n    tag_391:\n        /* \"#utility.yul\":2919:2933   */\n      pop\n        /* \"#utility.yul\":2559:3267   */\n      pop\n      pop\n      pop\n        /* \"#utility.yul\":2405:3267   */\n      pop\n      pop\n      jump\t// out\n        /* \"#utility.yul\":3273:3672   */\n    tag_11:\n        /* \"#utility.yul\":3454:3458   */\n      0x00\n        /* \"#utility.yul\":3492:3495   */\n      0x0120\n        /* \"#utility.yul\":3481:3490   */\n      dup3\n        /* \"#utility.yul\":3477:3496   */\n      add\n        /* \"#utility.yul\":3469:3496   */\n      swap1\n      pop\n        /* \"#utility.yul\":3506:3665   */\n      tag_395\n        /* \"#utility.yul\":3662:3663   */\n      0x00\n        /* \"#utility.yul\":3651:3660   */\n      dup4\n        /* \"#utility.yul\":3647:3664   */\n      add\n        /* \"#utility.yul\":3638:3644   */\n      dup5\n        /* \"#utility.yul\":3506:3665   */\n      tag_334\n      jump\t// in\n    tag_395:\n        /* \"#utility.yul\":3273:3672   */\n      swap3\n      swap2\n      pop\n      pop\n      jump\t// out\n        /* \"#utility.yul\":3678:3755   */\n    tag_335:\n        /* \"#utility.yul\":3715:3722   */\n      0x00\n        /* \"#utility.yul\":3744:3749   */\n      dup2\n        /* \"#utility.yul\":3733:3749   */\n      swap1\n      pop\n        /* \"#utility.yul\":3678:3755   */\n      swap2\n      swap1\n      pop\n      jump\t// out\n        /* \"#utility.yul\":3761:3879   */\n    tag_336:\n        /* \"#utility.yul\":3848:3872   */\n      tag_398\n        /* \"#utility.yul\":3866:3871   */\n      dup2\n        /* \"#utility.yul\":3848:3872   */\n      tag_335\n      jump\t// in\n    tag_398:\n        /* \"#utility.yul\":3843:3846   */\n      dup3\n        /* \"#utility.yul\":3836:3873   */\n      mstore\n        /* \"#utility.yul\":3761:3879   */\n      pop\n      pop\n      jump\t// out\n        /* \"#utility.yul\":3885:4107   */\n    tag_16:\n        /* \"#utility.yul\":3978:3982   */\n      0x00\n        /* \"#utility.yul\":4016:4018   */\n      0x20\n        /* \"#utility.yul\":4005:4014   */\n      dup3\n        /* \"#utility.yul\":4001:4019   */\n      add\n        /* \"#utility.yul\":3993:4019   */\n      swap1\n      pop\n        /* \"#utility.yul\":4029:4100   */\n      tag_400\n        /* \"#utility.yul\":4097:4098   */\n      0x00\n        /* \"#utility.yul\":4086:4095   */\n      dup4\n        /* \"#utility.yul\":4082:4099   */\n      add\n        /* \"#utility.yul\":4073:4079   */\n      dup5\n        /* \"#utility.yul\":4029:4100   */\n      tag_336\n      jump\t// in\n    tag_400:\n        /* \"#utility.yul\":3885:4107   */\n      swap3\n      swap2\n      pop\n      pop\n      jump\t// out\n        /* \"#utility.yul\":4194:4311   */\n    tag_338:\n        /* \"#utility.yul\":4303:4304   */\n      0x00\n        /* \"#utility.yul\":4300:4301   */\n      dup1\n        /* \"#utility.yul\":4293:4305   */\n      revert\n        /* \"#utility.yul\":4440:4558   */\n    tag_340:\n        /* \"#utility.yul\":4511:4533   */\n      tag_405\n        /* \"#utility.yul\":4527:4532   */\n      dup2\n        /* \"#utility.yul\":4511:4533   */\n      tag_327\n      jump\t// in\n    tag_405:\n        /* \"#utility.yul\":4504:4509   */\n      dup2\n        /* \"#utility.yul\":4501:4534   */\n      eq\n        /* \"#utility.yul\":4491:4552   */\n      tag_406\n      jumpi\n        /* \"#utility.yul\":4548:4549   */\n      0x00\n        /* \"#utility.yul\":4545:4546   */\n      dup1\n        /* \"#utility.yul\":4538:4550   */\n      revert\n        /* \"#utility.yul\":4491:4552   */\n    tag_406:\n        /* \"#utility.yul\":4440:4558   */\n      pop\n      jump\t// out\n        /* \"#utility.yul\":4564:4699   */\n    tag_341:\n        /* \"#utility.yul\":4608:4613   */\n      0x00\n        /* \"#utility.yul\":4646:4652   */\n      dup2\n        /* \"#utility.yul\":4633:4653   */\n      calldataload\n        /* \"#utility.yul\":4624:4653   */\n      swap1\n      pop\n        /* \"#utility.yul\":4662:4693   */\n      tag_408\n        /* \"#utility.yul\":4687:4692   */\n      dup2\n        /* \"#utility.yul\":4662:4693   */\n      tag_340\n      jump\t// in\n    tag_408:\n        /* \"#utility.yul\":4564:4699   */\n      swap3\n      swap2\n      pop\n      pop\n      jump\t// out\n        /* \"#utility.yul\":4705:5171   */\n    tag_19:\n        /* \"#utility.yul\":4769:4775   */\n      0x00\n        /* \"#utility.yul\":4777:4783   */\n      dup1\n        /* \"#utility.yul\":4826:4828   */\n      0x40\n        /* \"#utility.yul\":4814:4823   */\n      dup4\n        /* \"#utility.yul\":4805:4812   */\n      dup6\n        /* \"#utility.yul\":4801:4824   */\n      sub\n        /* \"#utility.yul\":4797:4829   */\n      slt\n        /* \"#utility.yul\":4794:4913   */\n      iszero\n      tag_410\n      jumpi\n        /* \"#utility.yul\":4832:4911   */\n      tag_411\n      tag_338\n      jump\t// in\n    tag_411:\n        /* \"#utility.yul\":4794:4913   */\n    tag_410:\n        /* \"#utility.yul\":4952:4953   */\n      0x00\n        /* \"#utility.yul\":4977:5028   */\n      tag_412\n        /* \"#utility.yul\":5020:5027   */\n      dup6\n        /* \"#utility.yul\":5011:5017   */\n      dup3\n        /* \"#utility.yul\":5000:5009   */\n      dup7\n        /* \"#utility.yul\":4996:5018   */\n      add\n        /* \"#utility.yul\":4977:5028   */\n      tag_341\n      jump\t// in\n    tag_412:\n        /* \"#utility.yul\":4967:5028   */\n      swap3\n      pop\n        /* \"#utility.yul\":4923:5038   */\n      pop\n        /* \"#utility.yul\":5077:5079   */\n      0x20\n        /* \"#utility.yul\":5103:5154   */\n      tag_413\n        /* \"#utility.yul\":5146:5153   */\n      dup6\n        /* \"#utility.yul\":5137:5143   */\n      dup3\n        /* \"#utility.yul\":5126:5135   */\n      dup7\n        /* \"#utility.yul\":5122:5144   */\n      add\n        /* \"#utility.yul\":5103:5154   */\n      tag_341\n      jump\t// in\n    tag_413:\n        /* \"#utility.yul\":5093:5154   */\n      swap2\n      pop\n        /* \"#utility.yul\":5048:5164   */\n      pop\n        /* \"#utility.yul\":4705:5171   */\n      swap3\n      pop\n      swap3\n      swap1\n      pop\n      jump\t// out\n        /* \"#utility.yul\":5177:5346   */\n    tag_342:\n        /* \"#utility.yul\":5261:5272   */\n      0x00\n        /* \"#utility.yul\":5295:5301   */\n      dup3\n        /* \"#utility.yul\":5290:5293   */\n      dup3\n        /* \"#utility.yul\":5283:5302   */\n      mstore\n        /* \"#utility.yul\":5335:5339   */\n      0x20\n        /* \"#utility.yul\":5330:5333   */\n      dup3\n        /* \"#utility.yul\":5326:5340   */\n      add\n        /* \"#utility.yul\":5311:5340   */\n      swap1\n      pop\n        /* \"#utility.yul\":5177:5346   */\n      swap3\n      swap2\n      pop\n      pop\n      jump\t// out\n        /* \"#utility.yul\":5352:5513   */\n    tag_343:\n        /* \"#utility.yul\":5492:5505   */\n      0x4f79756e2062697474692e000000000000000000000000000000000000000000\n        /* \"#utility.yul\":5488:5489   */\n      0x00\n        /* \"#utility.yul\":5480:5486   */\n      dup3\n        /* \"#utility.yul\":5476:5490   */\n      add\n        /* \"#utility.yul\":5469:5506   */\n      mstore\n        /* \"#utility.yul\":5352:5513   */\n      pop\n      jump\t// out\n        /* \"#utility.yul\":5519:5885   */\n    tag_344:\n        /* \"#utility.yul\":5661:5664   */\n      0x00\n        /* \"#utility.yul\":5682:5749   */\n      tag_417\n        /* \"#utility.yul\":5746:5748   */\n      0x0b\n        /* \"#utility.yul\":5741:5744   */\n      dup4\n        /* \"#utility.yul\":5682:5749   */\n      tag_342\n      jump\t// in\n    tag_417:\n        /* \"#utility.yul\":5675:5749   */\n      swap2\n      pop\n        /* \"#utility.yul\":5758:5851   */\n      tag_418\n        /* \"#utility.yul\":5847:5850   */\n      dup3\n        /* \"#utility.yul\":5758:5851   */\n      tag_343\n      jump\t// in\n    tag_418:\n        /* \"#utility.yul\":5876:5878   */\n      0x20\n        /* \"#utility.yul\":5871:5874   */\n      dup3\n        /* \"#utility.yul\":5867:5879   */\n      add\n        /* \"#utility.yul\":5860:5879   */\n      swap1\n      pop\n        /* \"#utility.yul\":5519:5885   */\n      swap2\n      swap1\n      pop\n      jump\t// out\n        /* \"#utility.yul\":5891:6310   */\n    tag_40:\n        /* \"#utility.yul\":6057:6061   */\n      0x00\n        /* \"#utility.yul\":6095:6097   */\n      0x20\n        /* \"#utility.yul\":6084:6093   */\n      dup3\n        /* \"#utility.yul\":6080:6098   */\n      add\n        /* \"#utility.yul\":6072:6098   */\n      swap1\n      pop\n        /* \"#utility.yul\":6144:6153   */\n      dup2\n        /* \"#utility.yul\":6138:6142   */\n      dup2\n        /* \"#utility.yul\":6134:6154   */\n      sub\n        /* \"#utility.yul\":6130:6131   */\n      0x00\n        /* \"#utility.yul\":6119:6128   */\n      dup4\n        /* \"#utility.yul\":6115:6132   */\n      add\n        /* \"#utility.yul\":6108:6155   */\n      mstore\n        /* \"#utility.yul\":6172:6303   */\n      tag_420\n        /* \"#utility.yul\":6298:6302   */\n      dup2\n        /* \"#utility.yul\":6172:6303   */\n      tag_344\n      jump\t// in\n    tag_420:\n        /* \"#utility.yul\":6164:6303   */\n      swap1\n      pop\n        /* \"#utility.yul\":5891:6310   */\n      swap2\n      swap1\n      pop\n      jump\t// out\n        /* \"#utility.yul\":6316:6487   */\n    tag_345:\n        /* \"#utility.yul\":6456:6479   */\n      0x5820706f7a6973796f6e7520676563657273697a2e0000000000000000000000\n        /* \"#utility.yul\":6452:6453   */\n      0x00\n        /* \"#utility.yul\":6444:6450   */\n      dup3\n        /* \"#utility.yul\":6440:6454   */\n      add\n        /* \"#utility.yul\":6433:6480   */\n      mstore\n        /* \"#utility.yul\":6316:6487   */\n      pop\n      jump\t// out\n        /* \"#utility.yul\":6493:6859   */\n    tag_346:\n        /* \"#utility.yul\":6635:6638   */\n      0x00\n        /* \"#utility.yul\":6656:6723   */\n      tag_423\n        /* \"#utility.yul\":6720:6722   */\n      0x15\n        /* \"#utility.yul\":6715:6718   */\n      dup4\n        /* \"#utility.yul\":6656:6723   */\n      tag_342\n      jump\t// in\n    tag_423:\n        /* \"#utility.yul\":6649:6723   */\n      swap2\n      pop\n        /* \"#utility.yul\":6732:6825   */\n      tag_424\n        /* \"#utility.yul\":6821:6824   */\n      dup3\n        /* \"#utility.yul\":6732:6825   */\n      tag_345\n      jump\t// in\n    tag_424:\n        /* \"#utility.yul\":6850:6852   */\n      0x20\n        /* \"#utility.yul\":6845:6848   */\n      dup3\n        /* \"#utility.yul\":6841:6853   */\n      add\n        /* \"#utility.yul\":6834:6853   */\n      swap1\n      pop\n        /* \"#utility.yul\":6493:6859   */\n      swap2\n      swap1\n      pop\n      jump\t// out\n        /* \"#utility.yul\":6865:7284   */\n    tag_44:\n        /* \"#utility.yul\":7031:7035   */\n      0x00\n        /* \"#utility.yul\":7069:7071   */\n      0x20\n        /* \"#utility.yul\":7058:7067   */\n      dup3\n        /* \"#utility.yul\":7054:7072   */\n      add\n        /* \"#utility.yul\":7046:7072   */\n      swap1\n      pop\n        /* \"#utility.yul\":7118:7127   */\n      dup2\n        /* \"#utility.yul\":7112:7116   */\n      dup2\n        /* \"#utility.yul\":7108:7128   */\n      sub\n        /* \"#utility.yul\":7104:7105   */\n      0x00\n        /* \"#utility.yul\":7093:7102   */\n      dup4\n        /* \"#utility.yul\":7089:7106   */\n      add\n        /* \"#utility.yul\":7082:7129   */\n      mstore\n        /* \"#utility.yul\":7146:7277   */\n      tag_426\n        /* \"#utility.yul\":7272:7276   */\n      dup2\n        /* \"#utility.yul\":7146:7277   */\n      tag_346\n      jump\t// in\n    tag_426:\n        /* \"#utility.yul\":7138:7277   */\n      swap1\n      pop\n        /* \"#utility.yul\":6865:7284   */\n      swap2\n      swap1\n      pop\n      jump\t// out\n        /* \"#utility.yul\":7290:7461   */\n    tag_347:\n        /* \"#utility.yul\":7430:7453   */\n      0x5920706f7a6973796f6e7520676563657273697a2e0000000000000000000000\n        /* \"#utility.yul\":7426:7427   */\n      0x00\n        /* \"#utility.yul\":7418:7424   */\n      dup3\n        /* \"#utility.yul\":7414:7428   */\n      add\n        /* \"#utility.yul\":7407:7454   */\n      mstore\n        /* \"#utility.yul\":7290:7461   */\n      pop\n      jump\t// out\n        /* \"#utility.yul\":7467:7833   */\n    tag_348:\n        /* \"#utility.yul\":7609:7612   */\n      0x00\n        /* \"#utility.yul\":7630:7697   */\n      tag_429\n        /* \"#utility.yul\":7694:7696   */\n      0x15\n        /* \"#utility.yul\":7689:7692   */\n      dup4\n        /* \"#utility.yul\":7630:7697   */\n      tag_342\n      jump\t// in\n    tag_429:\n        /* \"#utility.yul\":7623:7697   */\n      swap2\n      pop\n        /* \"#utility.yul\":7706:7799   */\n      tag_430\n        /* \"#utility.yul\":7795:7798   */\n      dup3\n        /* \"#utility.yul\":7706:7799   */\n      tag_347\n      jump\t// in\n    tag_430:\n        /* \"#utility.yul\":7824:7826   */\n      0x20\n        /* \"#utility.yul\":7819:7822   */\n      dup3\n        /* \"#utility.yul\":7815:7827   */\n      add\n        /* \"#utility.yul\":7808:7827   */\n      swap1\n      pop\n        /* \"#utility.yul\":7467:7833   */\n      swap2\n      swap1\n      pop\n      jump\t// out\n        /* \"#utility.yul\":7839:8258   */\n    tag_48:\n        /* \"#utility.yul\":8005:8009   */\n      0x00\n        /* \"#utility.yul\":8043:8045   */\n      0x20\n        /* \"#utility.yul\":8032:8041   */\n      dup3\n        /* \"#utility.yul\":8028:8046   */\n      add\n        /* \"#utility.yul\":8020:8046   */\n      swap1\n      pop\n        /* \"#utility.yul\":8092:8101   */\n      dup2\n        /* \"#utility.yul\":8086:8090   */\n      dup2\n        /* \"#utility.yul\":8082:8102   */\n      sub\n        /* \"#utility.yul\":8078:8079   */\n      0x00\n        /* \"#utility.yul\":8067:8076   */\n      dup4\n        /* \"#utility.yul\":8063:8080   */\n      add\n        /* \"#utility.yul\":8056:8103   */\n      mstore\n        /* \"#utility.yul\":8120:8251   */\n      tag_432\n        /* \"#utility.yul\":8246:8250   */\n      dup2\n        /* \"#utility.yul\":8120:8251   */\n      tag_348\n      jump\t// in\n    tag_432:\n        /* \"#utility.yul\":8112:8251   */\n      swap1\n      pop\n        /* \"#utility.yul\":7839:8258   */\n      swap2\n      swap1\n      pop\n      jump\t// out\n        /* \"#utility.yul\":8264:8444   */\n    tag_51:\n        /* \"#utility.yul\":8312:8389   */\n      0x4e487b7100000000000000000000000000000000000000000000000000000000\n        /* \"#utility.yul\":8309:8310   */\n      0x00\n        /* \"#utility.yul\":8302:8390   */\n      mstore\n        /* \"#utility.yul\":8409:8413   */\n      0x32\n        /* \"#utility.yul\":8406:8407   */\n      0x04\n        /* \"#utility.yul\":8399:8414   */\n      mstore\n        /* \"#utility.yul\":8433:8437   */\n      0x24\n        /* \"#utility.yul\":8430:8431   */\n      0x00\n        /* \"#utility.yul\":8423:8438   */\n      revert\n        /* \"#utility.yul\":8450:8613   */\n    tag_349:\n        /* \"#utility.yul\":8590:8605   */\n      0x4275206b61726520646f6c752e00000000000000000000000000000000000000\n        /* \"#utility.yul\":8586:8587   */\n      0x00\n        /* \"#utility.yul\":8578:8584   */\n      dup3\n        /* \"#utility.yul\":8574:8588   */\n      add\n        /* \"#utility.yul\":8567:8606   */\n      mstore\n        /* \"#utility.yul\":8450:8613   */\n      pop\n      jump\t// out\n        /* \"#utility.yul\":8619:8985   */\n    tag_350:\n        /* \"#utility.yul\":8761:8764   */\n      0x00\n        /* \"#utility.yul\":8782:8849   */\n      tag_436\n        /* \"#utility.yul\":8846:8848   */\n      0x0d\n        /* \"#utility.yul\":8841:8844   */\n      dup4\n        /* \"#utility.yul\":8782:8849   */\n      tag_342\n      jump\t// in\n    tag_436:\n        /* \"#utility.yul\":8775:8849   */\n      swap2\n      pop\n        /* \"#utility.yul\":8858:8951   */\n      tag_437\n        /* \"#utility.yul\":8947:8950   */\n      dup3\n        /* \"#utility.yul\":8858:8951   */\n      tag_349\n      jump\t// in\n    tag_437:\n        /* \"#utility.yul\":8976:8978   */\n      0x20\n        /* \"#utility.yul\":8971:8974   */\n      dup3\n        /* \"#utility.yul\":8967:8979   */\n      add\n        /* \"#utility.yul\":8960:8979   */\n      swap1\n      pop\n        /* \"#utility.yul\":8619:8985   */\n      swap2\n      swap1\n      pop\n      jump\t// out\n        /* \"#utility.yul\":8991:9410   */\n    tag_58:\n        /* \"#utility.yul\":9157:9161   */\n      0x00\n        /* \"#utility.yul\":9195:9197   */\n      0x20\n        /* \"#utility.yul\":9184:9193   */\n      dup3\n        /* \"#utility.yul\":9180:9198   */\n      add\n        /* \"#utility.yul\":9172:9198   */\n      swap1\n      pop\n        /* \"#utility.yul\":9244:9253   */\n      dup2\n        /* \"#utility.yul\":9238:9242   */\n      dup2\n        /* \"#utility.yul\":9234:9254   */\n      sub\n        /* \"#utility.yul\":9230:9231   */\n      0x00\n        /* \"#utility.yul\":9219:9228   */\n      dup4\n        /* \"#utility.yul\":9215:9232   */\n      add\n        /* \"#utility.yul\":9208:9255   */\n      mstore\n        /* \"#utility.yul\":9272:9403   */\n      tag_439\n        /* \"#utility.yul\":9398:9402   */\n      dup2\n        /* \"#utility.yul\":9272:9403   */\n      tag_350\n      jump\t// in\n    tag_439:\n        /* \"#utility.yul\":9264:9403   */\n      swap1\n      pop\n        /* \"#utility.yul\":8991:9410   */\n      swap2\n      swap1\n      pop\n      jump\t// out\n        /* \"#utility.yul\":9416:9637   */\n    tag_351:\n        /* \"#utility.yul\":9556:9590   */\n      0x4275207369726164616b69206f79756e63752073697a20646567696c73696e69\n        /* \"#utility.yul\":9552:9553   */\n      0x00\n        /* \"#utility.yul\":9544:9550   */\n      dup3\n        /* \"#utility.yul\":9540:9554   */\n      add\n        /* \"#utility.yul\":9533:9591   */\n      mstore\n        /* \"#utility.yul\":9625:9629   */\n      0x7a2e000000000000000000000000000000000000000000000000000000000000\n        /* \"#utility.yul\":9620:9622   */\n      0x20\n        /* \"#utility.yul\":9612:9618   */\n      dup3\n        /* \"#utility.yul\":9608:9623   */\n      add\n        /* \"#utility.yul\":9601:9630   */\n      mstore\n        /* \"#utility.yul\":9416:9637   */\n      pop\n      jump\t// out\n        /* \"#utility.yul\":9643:10009   */\n    tag_352:\n        /* \"#utility.yul\":9785:9788   */\n      0x00\n        /* \"#utility.yul\":9806:9873   */\n      tag_442\n        /* \"#utility.yul\":9870:9872   */\n      0x22\n        /* \"#utility.yul\":9865:9868   */\n      dup4\n        /* \"#utility.yul\":9806:9873   */\n      tag_342\n      jump\t// in\n    tag_442:\n        /* \"#utility.yul\":9799:9873   */\n      swap2\n      pop\n        /* \"#utility.yul\":9882:9975   */\n      tag_443\n        /* \"#utility.yul\":9971:9974   */\n      dup3\n        /* \"#utility.yul\":9882:9975   */\n      tag_351\n      jump\t// in\n    tag_443:\n        /* \"#utility.yul\":10000:10002   */\n      0x40\n        /* \"#utility.yul\":9995:9998   */\n      dup3\n        /* \"#utility.yul\":9991:10003   */\n      add\n        /* \"#utility.yul\":9984:10003   */\n      swap1\n      pop\n        /* \"#utility.yul\":9643:10009   */\n      swap2\n      swap1\n      pop\n      jump\t// out\n        /* \"#utility.yul\":10015:10434   */\n    tag_61:\n        /* \"#utility.yul\":10181:10185   */\n      0x00\n        /* \"#utility.yul\":10219:10221   */\n      0x20\n        /* \"#utility.yul\":10208:10217   */\n      dup3\n        /* \"#utility.yul\":10204:10222   */\n      add\n        /* \"#utility.yul\":10196:10222   */\n      swap1\n      pop\n        /* \"#utility.yul\":10268:10277   */\n      dup2\n        /* \"#utility.yul\":10262:10266   */\n      dup2\n        /* \"#utility.yul\":10258:10278   */\n      sub\n        /* \"#utility.yul\":10254:10255   */\n      0x00\n        /* \"#utility.yul\":10243:10252   */\n      dup4\n        /* \"#utility.yul\":10239:10256   */\n      add\n        /* \"#utility.yul\":10232:10279   */\n      mstore\n        /* \"#utility.yul\":10296:10427   */\n      tag_445\n        /* \"#utility.yul\":10422:10426   */\n      dup2\n        /* \"#utility.yul\":10296:10427   */\n      tag_352\n      jump\t// in\n    tag_445:\n        /* \"#utility.yul\":10288:10427   */\n      swap1\n      pop\n        /* \"#utility.yul\":10015:10434   */\n      swap2\n      swap1\n      pop\n      jump\t// out\n        /* \"#utility.yul\":10440:10615   */\n    tag_353:\n        /* \"#utility.yul\":10580:10607   */\n      0x59657465726c69206f64656d6520796170696c6d616d69732e00000000000000\n        /* \"#utility.yul\":10576:10577   */\n      0x00\n        /* \"#utility.yul\":10568:10574   */\n      dup3\n        /* \"#utility.yul\":10564:10578   */\n      add\n        /* \"#utility.yul\":10557:10608   */\n      mstore\n        /* \"#utility.yul\":10440:10615   */\n      pop\n      jump\t// out\n        /* \"#utility.yul\":10621:10987   */\n    tag_354:\n        /* \"#utility.yul\":10763:10766   */\n      0x00\n        /* \"#utility.yul\":10784:10851   */\n      tag_448\n        /* \"#utility.yul\":10848:10850   */\n      0x19\n        /* \"#utility.yul\":10843:10846   */\n      dup4\n        /* \"#utility.yul\":10784:10851   */\n      tag_342\n      jump\t// in\n    tag_448:\n        /* \"#utility.yul\":10777:10851   */\n      swap2\n      pop\n        /* \"#utility.yul\":10860:10953   */\n      tag_449\n        /* \"#utility.yul\":10949:10952   */\n      dup3\n        /* \"#utility.yul\":10860:10953   */\n      tag_353\n      jump\t// in\n    tag_449:\n        /* \"#utility.yul\":10978:10980   */\n      0x20\n        /* \"#utility.yul\":10973:10976   */\n      dup3\n        /* \"#utility.yul\":10969:10981   */\n      add\n        /* \"#utility.yul\":10962:10981   */\n      swap1\n      pop\n        /* \"#utility.yul\":10621:10987   */\n      swap2\n      swap1\n      pop\n      jump\t// out\n        /* \"#utility.yul\":10993:11412   */\n    tag_64:\n        /* \"#utility.yul\":11159:11163   */\n      0x00\n        /* \"#utility.yul\":11197:11199   */\n      0x20\n        /* \"#utility.yul\":11186:11195   */\n      dup3\n        /* \"#utility.yul\":11182:11200   */\n      add\n        /* \"#utility.yul\":11174:11200   */\n      swap1\n      pop\n        /* \"#utility.yul\":11246:11255   */\n      dup2\n        /* \"#utility.yul\":11240:11244   */\n      dup2\n        /* \"#utility.yul\":11236:11256   */\n      sub\n        /* \"#utility.yul\":11232:11233   */\n      0x00\n        /* \"#utility.yul\":11221:11230   */\n      dup4\n        /* \"#utility.yul\":11217:11234   */\n      add\n        /* \"#utility.yul\":11210:11257   */\n      mstore\n        /* \"#utility.yul\":11274:11405   */\n      tag_451\n        /* \"#utility.yul\":11400:11404   */\n      dup2\n        /* \"#utility.yul\":11274:11405   */\n      tag_354\n      jump\t// in\n    tag_451:\n        /* \"#utility.yul\":11266:11405   */\n      swap1\n      pop\n        /* \"#utility.yul\":10993:11412   */\n      swap2\n      swap1\n      pop\n      jump\t// out\n        /* \"#utility.yul\":11418:11598   */\n    tag_355:\n        /* \"#utility.yul\":11466:11543   */\n      0x4e487b7100000000000000000000000000000000000000000000000000000000\n        /* \"#utility.yul\":11463:11464   */\n      0x00\n        /* \"#utility.yul\":11456:11544   */\n      mstore\n        /* \"#utility.yul\":11563:11567   */\n      0x11\n        /* \"#utility.yul\":11560:11561   */\n      0x04\n        /* \"#utility.yul\":11553:11568   */\n      mstore\n        /* \"#utility.yul\":11587:11591   */\n      0x24\n        /* \"#utility.yul\":11584:11585   */\n      0x00\n        /* \"#utility.yul\":11577:11592   */\n      revert\n        /* \"#utility.yul\":11604:11771   */\n    tag_91:\n        /* \"#utility.yul\":11641:11644   */\n      0x00\n        /* \"#utility.yul\":11664:11686   */\n      tag_454\n        /* \"#utility.yul\":11680:11685   */\n      dup3\n        /* \"#utility.yul\":11664:11686   */\n      tag_327\n      jump\t// in\n    tag_454:\n        /* \"#utility.yul\":11655:11686   */\n      swap2\n      pop\n        /* \"#utility.yul\":11708:11712   */\n      0xff\n        /* \"#utility.yul\":11701:11706   */\n      dup3\n        /* \"#utility.yul\":11698:11713   */\n      sub\n        /* \"#utility.yul\":11695:11736   */\n      tag_455\n      jumpi\n        /* \"#utility.yul\":11716:11734   */\n      tag_456\n      tag_355\n      jump\t// in\n    tag_456:\n        /* \"#utility.yul\":11695:11736   */\n    tag_455:\n        /* \"#utility.yul\":11763:11764   */\n      0x01\n        /* \"#utility.yul\":11756:11761   */\n      dup3\n        /* \"#utility.yul\":11752:11765   */\n      add\n        /* \"#utility.yul\":11745:11765   */\n      swap1\n      pop\n        /* \"#utility.yul\":11604:11771   */\n      swap2\n      swap1\n      pop\n      jump\t// out\n        /* \"#utility.yul\":11777:11945   */\n    tag_356:\n        /* \"#utility.yul\":11917:11937   */\n      0x427520616c616e207a6174656e20646f6c750000000000000000000000000000\n        /* \"#utility.yul\":11913:11914   */\n      0x00\n        /* \"#utility.yul\":11905:11911   */\n      dup3\n        /* \"#utility.yul\":11901:11915   */\n      add\n        /* \"#utility.yul\":11894:11938   */\n      mstore\n        /* \"#utility.yul\":11777:11945   */\n      pop\n      jump\t// out\n        /* \"#utility.yul\":11951:12317   */\n    tag_357:\n        /* \"#utility.yul\":12093:12096   */\n      0x00\n        /* \"#utility.yul\":12114:12181   */\n      tag_459\n        /* \"#utility.yul\":12178:12180   */\n      0x12\n        /* \"#utility.yul\":12173:12176   */\n      dup4\n        /* \"#utility.yul\":12114:12181   */\n      tag_342\n      jump\t// in\n    tag_459:\n        /* \"#utility.yul\":12107:12181   */\n      swap2\n      pop\n        /* \"#utility.yul\":12190:12283   */\n      tag_460\n        /* \"#utility.yul\":12279:12282   */\n      dup3\n        /* \"#utility.yul\":12190:12283   */\n      tag_356\n      jump\t// in\n    tag_460:\n        /* \"#utility.yul\":12308:12310   */\n      0x20\n        /* \"#utility.yul\":12303:12306   */\n      dup3\n        /* \"#utility.yul\":12299:12311   */\n      add\n        /* \"#utility.yul\":12292:12311   */\n      swap1\n      pop\n        /* \"#utility.yul\":11951:12317   */\n      swap2\n      swap1\n      pop\n      jump\t// out\n        /* \"#utility.yul\":12323:12742   */\n    tag_102:\n        /* \"#utility.yul\":12489:12493   */\n      0x00\n        /* \"#utility.yul\":12527:12529   */\n      0x20\n        /* \"#utility.yul\":12516:12525   */\n      dup3\n        /* \"#utility.yul\":12512:12530   */\n      add\n        /* \"#utility.yul\":12504:12530   */\n      swap1\n      pop\n        /* \"#utility.yul\":12576:12585   */\n      dup2\n        /* \"#utility.yul\":12570:12574   */\n      dup2\n        /* \"#utility.yul\":12566:12586   */\n      sub\n        /* \"#utility.yul\":12562:12563   */\n      0x00\n        /* \"#utility.yul\":12551:12560   */\n      dup4\n        /* \"#utility.yul\":12547:12564   */\n      add\n        /* \"#utility.yul\":12540:12587   */\n      mstore\n        /* \"#utility.yul\":12604:12735   */\n      tag_462\n        /* \"#utility.yul\":12730:12734   */\n      dup2\n        /* \"#utility.yul\":12604:12735   */\n      tag_357\n      jump\t// in\n    tag_462:\n        /* \"#utility.yul\":12596:12735   */\n      swap1\n      pop\n        /* \"#utility.yul\":12323:12742   */\n      swap2\n      swap1\n      pop\n      jump\t// out\n        /* \"#utility.yul\":12748:12914   */\n    tag_358:\n        /* \"#utility.yul\":12888:12906   */\n      0x4f79756e207a6174656e20626974746900000000000000000000000000000000\n        /* \"#utility.yul\":12884:12885   */\n      0x00\n        /* \"#utility.yul\":12876:12882   */\n      dup3\n        /* \"#utility.yul\":12872:12886   */\n      add\n        /* \"#utility.yul\":12865:12907   */\n      mstore\n        /* \"#utility.yul\":12748:12914   */\n      pop\n      jump\t// out\n        /* \"#utility.yul\":12920:13286   */\n    tag_359:\n        /* \"#utility.yul\":13062:13065   */\n      0x00\n        /* \"#utility.yul\":13083:13150   */\n      tag_465\n        /* \"#utility.yul\":13147:13149   */\n      0x10\n        /* \"#utility.yul\":13142:13145   */\n      dup4\n        /* \"#utility.yul\":13083:13150   */\n      tag_342\n      jump\t// in\n    tag_465:\n        /* \"#utility.yul\":13076:13150   */\n      swap2\n      pop\n        /* \"#utility.yul\":13159:13252   */\n      tag_466\n        /* \"#utility.yul\":13248:13251   */\n      dup3\n        /* \"#utility.yul\":13159:13252   */\n      tag_358\n      jump\t// in\n    tag_466:\n        /* \"#utility.yul\":13277:13279   */\n      0x20\n        /* \"#utility.yul\":13272:13275   */\n      dup3\n        /* \"#utility.yul\":13268:13280   */\n      add\n        /* \"#utility.yul\":13261:13280   */\n      swap1\n      pop\n        /* \"#utility.yul\":12920:13286   */\n      swap2\n      swap1\n      pop\n      jump\t// out\n        /* \"#utility.yul\":13292:13711   */\n    tag_105:\n        /* \"#utility.yul\":13458:13462   */\n      0x00\n        /* \"#utility.yul\":13496:13498   */\n      0x20\n        /* \"#utility.yul\":13485:13494   */\n      dup3\n        /* \"#utility.yul\":13481:13499   */\n      add\n        /* \"#utility.yul\":13473:13499   */\n      swap1\n      pop\n        /* \"#utility.yul\":13545:13554   */\n      dup2\n        /* \"#utility.yul\":13539:13543   */\n      dup2\n        /* \"#utility.yul\":13535:13555   */\n      sub\n        /* \"#utility.yul\":13531:13532   */\n      0x00\n        /* \"#utility.yul\":13520:13529   */\n      dup4\n        /* \"#utility.yul\":13516:13533   */\n      add\n        /* \"#utility.yul\":13509:13556   */\n      mstore\n        /* \"#utility.yul\":13573:13704   */\n      tag_468\n        /* \"#utility.yul\":13699:13703   */\n      dup2\n        /* \"#utility.yul\":13573:13704   */\n      tag_359\n      jump\t// in\n    tag_468:\n        /* \"#utility.yul\":13565:13704   */\n      swap1\n      pop\n        /* \"#utility.yul\":13292:13711   */\n      swap2\n      swap1\n      pop\n      jump\t// out\n        /* \"#utility.yul\":13717:13908   */\n    tag_309:\n        /* \"#utility.yul\":13755:13759   */\n      0x00\n        /* \"#utility.yul\":13775:13793   */\n      tag_470\n        /* \"#utility.yul\":13791:13792   */\n      dup3\n        /* \"#utility.yul\":13775:13793   */\n      tag_327\n      jump\t// in\n    tag_470:\n        /* \"#utility.yul\":13770:13793   */\n      swap2\n      pop\n        /* \"#utility.yul\":13807:13825   */\n      tag_471\n        /* \"#utility.yul\":13823:13824   */\n      dup4\n        /* \"#utility.yul\":13807:13825   */\n      tag_327\n      jump\t// in\n    tag_471:\n        /* \"#utility.yul\":13802:13825   */\n      swap3\n      pop\n        /* \"#utility.yul\":13849:13850   */\n      dup3\n        /* \"#utility.yul\":13846:13847   */\n      dup3\n        /* \"#utility.yul\":13842:13851   */\n      sub\n        /* \"#utility.yul\":13834:13851   */\n      swap1\n      pop\n        /* \"#utility.yul\":13873:13877   */\n      0xff\n        /* \"#utility.yul\":13867:13871   */\n      dup2\n        /* \"#utility.yul\":13864:13878   */\n      gt\n        /* \"#utility.yul\":13861:13901   */\n      iszero\n      tag_472\n      jumpi\n        /* \"#utility.yul\":13881:13899   */\n      tag_473\n      tag_355\n      jump\t// in\n    tag_473:\n        /* \"#utility.yul\":13861:13901   */\n    tag_472:\n        /* \"#utility.yul\":13717:13908   */\n      swap3\n      swap2\n      pop\n      pop\n      jump\t// out\n\n    auxdata: 0xa264697066735822122099da8d64ac053fb0738b5cbeed4474892689515c92fcbfef238faba514e0cad164736f6c63430008110033\n}\n",
				"bytecode": {
					"linkReferences": {},
					"object": "60806040523480156200001157600080fd5b5060005b600360ff168160ff161015620000b95760005b600360ff168160ff161015620000a2576000808360ff1660038110620000535762000052620000f8565b5b018260ff16600381106200006c576200006b620000f8565b5b602091828204019190066101000a81548160ff021916908360ff1602179055508080620000999062000163565b91505062000028565b508080620000b09062000163565b91505062000015565b506001600360006101000a81548160ff021916908360ff1602179055506000600360026101000a81548160ff021916908360ff16021790555062000191565b7f4e487b7100000000000000000000000000000000000000000000000000000000600052603260045260246000fd5b7f4e487b7100000000000000000000000000000000000000000000000000000000600052601160045260246000fd5b600060ff82169050919050565b6000620001708262000156565b915060ff820362000186576200018562000127565b5b600182019050919050565b61180380620001a16000396000f3fe60806040526004361061004a5760003560e01c80633264a34b1461004f578063654b878d1461007a578063701bd985146100a5578063d65ab5f2146100c1578063e802c36f146100d8575b600080fd5b34801561005b57600080fd5b50610064610101565b60405161007191906112b9565b60405180910390f35b34801561008657600080fd5b5061008f6101a7565b60405161009c91906112ee565b60405180910390f35b6100bf60048036038101906100ba919061133a565b6101c1565b005b3480156100cd57600080fd5b506100d66104ec565b005b3480156100e457600080fd5b506100ff60048036038101906100fa919061133a565b610588565b005b610109611116565b6000600380602002604051908101604052809291906000905b8282101561019e5783820160038060200260405190810160405280929190826003801561018a576020028201916000905b82829054906101000a900460ff1660ff16815260200190600101906020826000010492830192600103820291508084116101535790505b505050505081526020019060010190610122565b50505050905090565b6000600360029054906101000a900460ff1660ff16905090565b6000600360029054906101000a900460ff1660ff1614610216576040517f08c379a000000000000000000000000000000000000000000000000000000000815260040161020d906113d7565b60405180910390fd5b60008260ff16101580156102305750600360ff168260ff16105b61026f576040517f08c379a000000000000000000000000000000000000000000000000000000000815260040161026690611443565b60405180910390fd5b60008160ff16101580156102895750600360ff168160ff16105b6102c8576040517f08c379a00000000000000000000000000000000000000000000000000000000081526004016102bf906114af565b60405180910390fd5b6000808360ff16600381106102e0576102df6114cf565b5b018260ff16600381106102f6576102f56114cf565b5b602091828204019190069054906101000a900460ff1660ff161461034f576040517f08c379a00000000000000000000000000000000000000000000000000000000081526004016103469061154a565b60405180910390fd5b600360019054906101000a900460ff1660ff16600360009054906101000a900460ff1660ff16146103b5576040517f08c379a00000000000000000000000000000000000000000000000000000000081526004016103ac906115dc565b60405180910390fd5b60038054906101000a900460ff1660ff163414610407576040517f08c379a00000000000000000000000000000000000000000000000000000000081526004016103fe90611648565b60405180910390fd5b600360009054906101000a900460ff1660008360ff166003811061042e5761042d6114cf565b5b018260ff1660038110610444576104436114cf565b5b602091828204019190066101000a81548160ff021916908360ff1602179055506001600360019054906101000a900460ff1660ff1614610485576001610488565b60025b600360016101000a81548160ff021916908360ff1602179055506001600360009054906101000a900460ff1660ff16146104c35760016104c6565b60025b600360006101000a81548160ff021916908360ff1602179055506104e8610d73565b5050565b60005b600360ff168160ff1610156105855760005b600360ff168160ff161015610571576000808360ff1660038110610528576105276114cf565b5b018260ff166003811061053e5761053d6114cf565b5b602091828204019190066101000a81548160ff021916908360ff160217905550808061056990611697565b915050610501565b50808061057d90611697565b9150506104ef565b50565b6000808360ff16600381106105a05761059f6114cf565b5b018260ff16600381106105b6576105b56114cf565b5b602091828204019190069054906101000a900460ff1660ff161461060f576040517f08c379a00000000000000000000000000000000000000000000000000000000081526004016106069061170c565b60405180910390fd5b6000600360029054906101000a900460ff1660ff1614610664576040517f08c379a000000000000000000000000000000000000000000000000000000000815260040161065b90611778565b60405180910390fd5b600360009054906101000a900460ff1660008360ff166003811061068b5761068a6114cf565b5b018260ff16600381106106a1576106a06114cf565b5b602091828204019190066101000a81548160ff021916908360ff1602179055506001600360009054906101000a900460ff1660ff16146106e25760016106e5565b60025b600360006101000a81548160ff021916908360ff16021790555060005b600360ff168160ff1610156108bd5760008160ff1660038110610728576107276114cf565b5b0160016003811061073c5761073b6114cf565b5b602091828204019190069054906101000a900460ff1660ff1660008260ff166003811061076c5761076b6114cf565b5b016000600381106107805761077f6114cf565b5b602091828204019190069054906101000a900460ff1660ff1614801561082b575060008160ff16600381106107b8576107b76114cf565b5b016002600381106107cc576107cb6114cf565b5b602091828204019190069054906101000a900460ff1660ff1660008260ff16600381106107fc576107fb6114cf565b5b016001600381106108105761080f6114cf565b5b602091828204019190069054906101000a900460ff1660ff16145b801561087a57506000808260ff166003811061084a576108496114cf565b5b0160026003811061085e5761085d6114cf565b5b602091828204019190069054906101000a900460ff1660ff1614155b156108aa57600360009054906101000a900460ff16600360026101000a81548160ff021916908360ff1602179055505b80806108b590611697565b915050610702565b5060005b600360ff168160ff161015610a7b5760006001600381106108e5576108e46114cf565b5b018160ff16600381106108fb576108fa6114cf565b5b602091828204019190069054906101000a900460ff1660ff1660008060038110610928576109276114cf565b5b018260ff166003811061093e5761093d6114cf565b5b602091828204019190069054906101000a900460ff1660ff161480156109e957506000600260038110610974576109736114cf565b5b018160ff166003811061098a576109896114cf565b5b602091828204019190069054906101000a900460ff1660ff1660006001600381106109b8576109b76114cf565b5b018260ff16600381106109ce576109cd6114cf565b5b602091828204019190069054906101000a900460ff1660ff16145b8015610a385750600080600260038110610a0657610a056114cf565b5b018260ff1660038110610a1c57610a1b6114cf565b5b602091828204019190069054906101000a900460ff1660ff1614155b15610a6857600360009054906101000a900460ff16600360026101000a81548160ff021916908360ff1602179055505b8080610a7390611697565b9150506108c1565b506000600160038110610a9157610a906114cf565b5b01600160038110610aa557610aa46114cf565b5b602091828204019190069054906101000a900460ff1660ff1660008060038110610ad257610ad16114cf565b5b01600060038110610ae657610ae56114cf565b5b602091828204019190069054906101000a900460ff1660ff16148015610b8d57506000600260038110610b1c57610b1b6114cf565b5b01600260038110610b3057610b2f6114cf565b5b602091828204019190069054906101000a900460ff1660ff166000600160038110610b5e57610b5d6114cf565b5b01600160038110610b7257610b716114cf565b5b602091828204019190069054906101000a900460ff1660ff16145b8015610bda5750600080600260038110610baa57610ba96114cf565b5b01600260038110610bbe57610bbd6114cf565b5b602091828204019190069054906101000a900460ff1660ff1614155b80610d3f57506000600160038110610bf557610bf46114cf565b5b01600160038110610c0957610c086114cf565b5b602091828204019190069054906101000a900460ff1660ff1660008060038110610c3657610c356114cf565b5b01600260038110610c4a57610c496114cf565b5b602091828204019190069054906101000a900460ff1660ff16148015610cf157506000600260038110610c8057610c7f6114cf565b5b01600060038110610c9457610c936114cf565b5b602091828204019190069054906101000a900460ff1660ff166000600160038110610cc257610cc16114cf565b5b01600160038110610cd657610cd56114cf565b5b602091828204019190069054906101000a900460ff1660ff16145b8015610d3e5750600080600260038110610d0e57610d0d6114cf565b5b01600060038110610d2257610d216114cf565b5b602091828204019190069054906101000a900460ff1660ff1614155b5b15610d6f57600360009054906101000a900460ff16600360026101000a81548160ff021916908360ff1602179055505b5050565b60006003905060005b600360ff168160ff161015610e6b576000805b600360ff168160ff161015610e1e57600360009054906101000a900460ff1660ff1660008460ff1660038110610dc857610dc76114cf565b5b018260ff1660038110610dde57610ddd6114cf565b5b602091828204019190069054906101000a900460ff1660ff1603610e0b578180610e0790611697565b9250505b8080610e1690611697565b915050610d8f565b508260ff168160ff1603610e5757600360009054906101000a900460ff16600360026101000a81548160ff021916908360ff1602179055505b508080610e6390611697565b915050610d7c565b5060005b600360ff168160ff161015610f5e576000805b600360ff168160ff161015610f1157600360009054906101000a900460ff1660ff1660008260ff1660038110610ebb57610eba6114cf565b5b018460ff1660038110610ed157610ed06114cf565b5b602091828204019190069054906101000a900460ff1660ff1603610efe578180610efa90611697565b9250505b8080610f0990611697565b915050610e82565b508260ff168160ff1603610f4a57600360009054906101000a900460ff16600360026101000a81548160ff021916908360ff1602179055505b508080610f5690611697565b915050610e6f565b506000805b600360ff168160ff161015610ff257600360009054906101000a900460ff1660ff1660008260ff1660038110610f9c57610f9b6114cf565b5b018260ff1660038110610fb257610fb16114cf565b5b602091828204019190069054906101000a900460ff1660ff1603610fdf578180610fdb90611697565b9250505b8080610fea90611697565b915050610f63565b508160ff168160ff160361102b57600360009054906101000a900460ff16600360026101000a81548160ff021916908360ff1602179055505b6000905060005b600360ff168160ff1610156110d957600360009054906101000a900460ff1660ff1660008260ff166003811061106b5761106a6114cf565b5b01600183600361107b9190611798565b6110859190611798565b60ff1660038110611099576110986114cf565b5b602091828204019190069054906101000a900460ff1660ff16036110c65781806110c290611697565b9250505b80806110d190611697565b915050611032565b508160ff168160ff160361111257600360009054906101000a900460ff16600360026101000a81548160ff021916908360ff1602179055505b5050565b60405180606001604052806003905b61112d611143565b8152602001906001900390816111255790505090565b6040518060600160405280600390602082028036833780820191505090505090565b600060039050919050565b600081905092915050565b6000819050919050565b600060039050919050565b600081905092915050565b6000819050919050565b600060ff82169050919050565b6111bb816111a5565b82525050565b60006111cd83836111b2565b60208301905092915050565b6000602082019050919050565b6111ef81611185565b6111f98184611190565b92506112048261119b565b8060005b8381101561123557815161121c87826111c1565b9650611227836111d9565b925050600181019050611208565b505050505050565b600061124983836111e6565b60608301905092915050565b6000602082019050919050565b61126b81611165565b6112758184611170565b92506112808261117b565b8060005b838110156112b1578151611298878261123d565b96506112a383611255565b925050600181019050611284565b505050505050565b6000610120820190506112cf6000830184611262565b92915050565b6000819050919050565b6112e8816112d5565b82525050565b600060208201905061130360008301846112df565b92915050565b600080fd5b611317816111a5565b811461132257600080fd5b50565b6000813590506113348161130e565b92915050565b6000806040838503121561135157611350611309565b5b600061135f85828601611325565b925050602061137085828601611325565b9150509250929050565b600082825260208201905092915050565b7f4f79756e2062697474692e000000000000000000000000000000000000000000600082015250565b60006113c1600b8361137a565b91506113cc8261138b565b602082019050919050565b600060208201905081810360008301526113f0816113b4565b9050919050565b7f5820706f7a6973796f6e7520676563657273697a2e0000000000000000000000600082015250565b600061142d60158361137a565b9150611438826113f7565b602082019050919050565b6000602082019050818103600083015261145c81611420565b9050919050565b7f5920706f7a6973796f6e7520676563657273697a2e0000000000000000000000600082015250565b600061149960158361137a565b91506114a482611463565b602082019050919050565b600060208201905081810360008301526114c88161148c565b9050919050565b7f4e487b7100000000000000000000000000000000000000000000000000000000600052603260045260246000fd5b7f4275206b61726520646f6c752e00000000000000000000000000000000000000600082015250565b6000611534600d8361137a565b915061153f826114fe565b602082019050919050565b6000602082019050818103600083015261156381611527565b9050919050565b7f4275207369726164616b69206f79756e63752073697a20646567696c73696e6960008201527f7a2e000000000000000000000000000000000000000000000000000000000000602082015250565b60006115c660228361137a565b91506115d18261156a565b604082019050919050565b600060208201905081810360008301526115f5816115b9565b9050919050565b7f59657465726c69206f64656d6520796170696c6d616d69732e00000000000000600082015250565b600061163260198361137a565b915061163d826115fc565b602082019050919050565b6000602082019050818103600083015261166181611625565b9050919050565b7f4e487b7100000000000000000000000000000000000000000000000000000000600052601160045260246000fd5b60006116a2826111a5565b915060ff82036116b5576116b4611668565b5b600182019050919050565b7f427520616c616e207a6174656e20646f6c750000000000000000000000000000600082015250565b60006116f660128361137a565b9150611701826116c0565b602082019050919050565b60006020820190508181036000830152611725816116e9565b9050919050565b7f4f79756e207a6174656e20626974746900000000000000000000000000000000600082015250565b600061176260108361137a565b915061176d8261172c565b602082019050919050565b6000602082019050818103600083015261179181611755565b9050919050565b60006117a3826111a5565b91506117ae836111a5565b9250828203905060ff8111156117c7576117c6611668565b5b9291505056fea264697066735822122099da8d64ac053fb0738b5cbeed4474892689515c92fcbfef238faba514e0cad164736f6c63430008110033",
					"opcodes": "PUSH1 0x80 PUSH1 0x40 MSTORE CALLVALUE DUP1 ISZERO PUSH3 0x11 JUMPI PUSH1 0x0 DUP1 REVERT JUMPDEST POP PUSH1 0x0 JUMPDEST PUSH1 0x3 PUSH1 0xFF AND DUP2 PUSH1 0xFF AND LT ISZERO PUSH3 0xB9 JUMPI PUSH1 0x0 JUMPDEST PUSH1 0x3 PUSH1 0xFF AND DUP2 PUSH1 0xFF AND LT ISZERO PUSH3 0xA2 JUMPI PUSH1 0x0 DUP1 DUP4 PUSH1 0xFF AND PUSH1 0x3 DUP2 LT PUSH3 0x53 JUMPI PUSH3 0x52 PUSH3 0xF8 JUMP JUMPDEST JUMPDEST ADD DUP3 PUSH1 0xFF AND PUSH1 0x3 DUP2 LT PUSH3 0x6C JUMPI PUSH3 0x6B PUSH3 0xF8 JUMP JUMPDEST JUMPDEST PUSH1 0x20 SWAP2 DUP3 DUP3 DIV ADD SWAP2 SWAP1 MOD PUSH2 0x100 EXP DUP2 SLOAD DUP2 PUSH1 0xFF MUL NOT AND SWAP1 DUP4 PUSH1 0xFF AND MUL OR SWAP1 SSTORE POP DUP1 DUP1 PUSH3 0x99 SWAP1 PUSH3 0x163 JUMP JUMPDEST SWAP2 POP POP PUSH3 0x28 JUMP JUMPDEST POP DUP1 DUP1 PUSH3 0xB0 SWAP1 PUSH3 0x163 JUMP JUMPDEST SWAP2 POP POP PUSH3 0x15 JUMP JUMPDEST POP PUSH1 0x1 PUSH1 0x3 PUSH1 0x0 PUSH2 0x100 EXP DUP2 SLOAD DUP2 PUSH1 0xFF MUL NOT AND SWAP1 DUP4 PUSH1 0xFF AND MUL OR SWAP1 SSTORE POP PUSH1 0x0 PUSH1 0x3 PUSH1 0x2 PUSH2 0x100 EXP DUP2 SLOAD DUP2 PUSH1 0xFF MUL NOT AND SWAP1 DUP4 PUSH1 0xFF AND MUL OR SWAP1 SSTORE POP PUSH3 0x191 JUMP JUMPDEST PUSH32 0x4E487B7100000000000000000000000000000000000000000000000000000000 PUSH1 0x0 MSTORE PUSH1 0x32 PUSH1 0x4 MSTORE PUSH1 0x24 PUSH1 0x0 REVERT JUMPDEST PUSH32 0x4E487B7100000000000000000000000000000000000000000000000000000000 PUSH1 0x0 MSTORE PUSH1 0x11 PUSH1 0x4 MSTORE PUSH1 0x24 PUSH1 0x0 REVERT JUMPDEST PUSH1 0x0 PUSH1 0xFF DUP3 AND SWAP1 POP SWAP2 SWAP1 POP JUMP JUMPDEST PUSH1 0x0 PUSH3 0x170 DUP3 PUSH3 0x156 JUMP JUMPDEST SWAP2 POP PUSH1 0xFF DUP3 SUB PUSH3 0x186 JUMPI PUSH3 0x185 PUSH3 0x127 JUMP JUMPDEST JUMPDEST PUSH1 0x1 DUP3 ADD SWAP1 POP SWAP2 SWAP1 POP JUMP JUMPDEST PUSH2 0x1803 DUP1 PUSH3 0x1A1 PUSH1 0x0 CODECOPY PUSH1 0x0 RETURN INVALID PUSH1 0x80 PUSH1 0x40 MSTORE PUSH1 0x4 CALLDATASIZE LT PUSH2 0x4A JUMPI PUSH1 0x0 CALLDATALOAD PUSH1 0xE0 SHR DUP1 PUSH4 0x3264A34B EQ PUSH2 0x4F JUMPI DUP1 PUSH4 0x654B878D EQ PUSH2 0x7A JUMPI DUP1 PUSH4 0x701BD985 EQ PUSH2 0xA5 JUMPI DUP1 PUSH4 0xD65AB5F2 EQ PUSH2 0xC1 JUMPI DUP1 PUSH4 0xE802C36F EQ PUSH2 0xD8 JUMPI JUMPDEST PUSH1 0x0 DUP1 REVERT JUMPDEST CALLVALUE DUP1 ISZERO PUSH2 0x5B JUMPI PUSH1 0x0 DUP1 REVERT JUMPDEST POP PUSH2 0x64 PUSH2 0x101 JUMP JUMPDEST PUSH1 0x40 MLOAD PUSH2 0x71 SWAP2 SWAP1 PUSH2 0x12B9 JUMP JUMPDEST PUSH1 0x40 MLOAD DUP1 SWAP2 SUB SWAP1 RETURN JUMPDEST CALLVALUE DUP1 ISZERO PUSH2 0x86 JUMPI PUSH1 0x0 DUP1 REVERT JUMPDEST POP PUSH2 0x8F PUSH2 0x1A7 JUMP JUMPDEST PUSH1 0x40 MLOAD PUSH2 0x9C SWAP2 SWAP1 PUSH2 0x12EE JUMP JUMPDEST PUSH1 0x40 MLOAD DUP1 SWAP2 SUB SWAP1 RETURN JUMPDEST PUSH2 0xBF PUSH1 0x4 DUP1 CALLDATASIZE SUB DUP2 ADD SWAP1 PUSH2 0xBA SWAP2 SWAP1 PUSH2 0x133A JUMP JUMPDEST PUSH2 0x1C1 JUMP JUMPDEST STOP JUMPDEST CALLVALUE DUP1 ISZERO PUSH2 0xCD JUMPI PUSH1 0x0 DUP1 REVERT JUMPDEST POP PUSH2 0xD6 PUSH2 0x4EC JUMP JUMPDEST STOP JUMPDEST CALLVALUE DUP1 ISZERO PUSH2 0xE4 JUMPI PUSH1 0x0 DUP1 REVERT JUMPDEST POP PUSH2 0xFF PUSH1 0x4 DUP1 CALLDATASIZE SUB DUP2 ADD SWAP1 PUSH2 0xFA SWAP2 SWAP1 PUSH2 0x133A JUMP JUMPDEST PUSH2 0x588 JUMP JUMPDEST STOP JUMPDEST PUSH2 0x109 PUSH2 0x1116 JUMP JUMPDEST PUSH1 0x0 PUSH1 0x3 DUP1 PUSH1 0x20 MUL PUSH1 0x40 MLOAD SWAP1 DUP2 ADD PUSH1 0x40 MSTORE DUP1 SWAP3 SWAP2 SWAP1 PUSH1 0x0 SWAP1 JUMPDEST DUP3 DUP3 LT ISZERO PUSH2 0x19E JUMPI DUP4 DUP3 ADD PUSH1 0x3 DUP1 PUSH1 0x20 MUL PUSH1 0x40 MLOAD SWAP1 DUP2 ADD PUSH1 0x40 MSTORE DUP1 SWAP3 SWAP2 SWAP1 DUP3 PUSH1 0x3 DUP1 ISZERO PUSH2 0x18A JUMPI PUSH1 0x20 MUL DUP3 ADD SWAP2 PUSH1 0x0 SWAP1 JUMPDEST DUP3 DUP3 SWAP1 SLOAD SWAP1 PUSH2 0x100 EXP SWAP1 DIV PUSH1 0xFF AND PUSH1 0xFF AND DUP2 MSTORE PUSH1 0x20 ADD SWAP1 PUSH1 0x1 ADD SWAP1 PUSH1 0x20 DUP3 PUSH1 0x0 ADD DIV SWAP3 DUP4 ADD SWAP3 PUSH1 0x1 SUB DUP3 MUL SWAP2 POP DUP1 DUP5 GT PUSH2 0x153 JUMPI SWAP1 POP JUMPDEST POP POP POP POP POP DUP2 MSTORE PUSH1 0x20 ADD SWAP1 PUSH1 0x1 ADD SWAP1 PUSH2 0x122 JUMP JUMPDEST POP POP POP POP SWAP1 POP SWAP1 JUMP JUMPDEST PUSH1 0x0 PUSH1 0x3 PUSH1 0x2 SWAP1 SLOAD SWAP1 PUSH2 0x100 EXP SWAP1 DIV PUSH1 0xFF AND PUSH1 0xFF AND SWAP1 POP SWAP1 JUMP JUMPDEST PUSH1 0x0 PUSH1 0x3 PUSH1 0x2 SWAP1 SLOAD SWAP1 PUSH2 0x100 EXP SWAP1 DIV PUSH1 0xFF AND PUSH1 0xFF AND EQ PUSH2 0x216 JUMPI PUSH1 0x40 MLOAD PUSH32 0x8C379A000000000000000000000000000000000000000000000000000000000 DUP2 MSTORE PUSH1 0x4 ADD PUSH2 0x20D SWAP1 PUSH2 0x13D7 JUMP JUMPDEST PUSH1 0x40 MLOAD DUP1 SWAP2 SUB SWAP1 REVERT JUMPDEST PUSH1 0x0 DUP3 PUSH1 0xFF AND LT ISZERO DUP1 ISZERO PUSH2 0x230 JUMPI POP PUSH1 0x3 PUSH1 0xFF AND DUP3 PUSH1 0xFF AND LT JUMPDEST PUSH2 0x26F JUMPI PUSH1 0x40 MLOAD PUSH32 0x8C379A000000000000000000000000000000000000000000000000000000000 DUP2 MSTORE PUSH1 0x4 ADD PUSH2 0x266 SWAP1 PUSH2 0x1443 JUMP JUMPDEST PUSH1 0x40 MLOAD DUP1 SWAP2 SUB SWAP1 REVERT JUMPDEST PUSH1 0x0 DUP2 PUSH1 0xFF AND LT ISZERO DUP1 ISZERO PUSH2 0x289 JUMPI POP PUSH1 0x3 PUSH1 0xFF AND DUP2 PUSH1 0xFF AND LT JUMPDEST PUSH2 0x2C8 JUMPI PUSH1 0x40 MLOAD PUSH32 0x8C379A000000000000000000000000000000000000000000000000000000000 DUP2 MSTORE PUSH1 0x4 ADD PUSH2 0x2BF SWAP1 PUSH2 0x14AF JUMP JUMPDEST PUSH1 0x40 MLOAD DUP1 SWAP2 SUB SWAP1 REVERT JUMPDEST PUSH1 0x0 DUP1 DUP4 PUSH1 0xFF AND PUSH1 0x3 DUP2 LT PUSH2 0x2E0 JUMPI PUSH2 0x2DF PUSH2 0x14CF JUMP JUMPDEST JUMPDEST ADD DUP3 PUSH1 0xFF AND PUSH1 0x3 DUP2 LT PUSH2 0x2F6 JUMPI PUSH2 0x2F5 PUSH2 0x14CF JUMP JUMPDEST JUMPDEST PUSH1 0x20 SWAP2 DUP3 DUP3 DIV ADD SWAP2 SWAP1 MOD SWAP1 SLOAD SWAP1 PUSH2 0x100 EXP SWAP1 DIV PUSH1 0xFF AND PUSH1 0xFF AND EQ PUSH2 0x34F JUMPI PUSH1 0x40 MLOAD PUSH32 0x8C379A000000000000000000000000000000000000000000000000000000000 DUP2 MSTORE PUSH1 0x4 ADD PUSH2 0x346 SWAP1 PUSH2 0x154A JUMP JUMPDEST PUSH1 0x40 MLOAD DUP1 SWAP2 SUB SWAP1 REVERT JUMPDEST PUSH1 0x3 PUSH1 0x1 SWAP1 SLOAD SWAP1 PUSH2 0x100 EXP SWAP1 DIV PUSH1 0xFF AND PUSH1 0xFF AND PUSH1 0x3 PUSH1 0x0 SWAP1 SLOAD SWAP1 PUSH2 0x100 EXP SWAP1 DIV PUSH1 0xFF AND PUSH1 0xFF AND EQ PUSH2 0x3B5 JUMPI PUSH1 0x40 MLOAD PUSH32 0x8C379A000000000000000000000000000000000000000000000000000000000 DUP2 MSTORE PUSH1 0x4 ADD PUSH2 0x3AC SWAP1 PUSH2 0x15DC JUMP JUMPDEST PUSH1 0x40 MLOAD DUP1 SWAP2 SUB SWAP1 REVERT JUMPDEST PUSH1 0x3 DUP1 SLOAD SWAP1 PUSH2 0x100 EXP SWAP1 DIV PUSH1 0xFF AND PUSH1 0xFF AND CALLVALUE EQ PUSH2 0x407 JUMPI PUSH1 0x40 MLOAD PUSH32 0x8C379A000000000000000000000000000000000000000000000000000000000 DUP2 MSTORE PUSH1 0x4 ADD PUSH2 0x3FE SWAP1 PUSH2 0x1648 JUMP JUMPDEST PUSH1 0x40 MLOAD DUP1 SWAP2 SUB SWAP1 REVERT JUMPDEST PUSH1 0x3 PUSH1 0x0 SWAP1 SLOAD SWAP1 PUSH2 0x100 EXP SWAP1 DIV PUSH1 0xFF AND PUSH1 0x0 DUP4 PUSH1 0xFF AND PUSH1 0x3 DUP2 LT PUSH2 0x42E JUMPI PUSH2 0x42D PUSH2 0x14CF JUMP JUMPDEST JUMPDEST ADD DUP3 PUSH1 0xFF AND PUSH1 0x3 DUP2 LT PUSH2 0x444 JUMPI PUSH2 0x443 PUSH2 0x14CF JUMP JUMPDEST JUMPDEST PUSH1 0x20 SWAP2 DUP3 DUP3 DIV ADD SWAP2 SWAP1 MOD PUSH2 0x100 EXP DUP2 SLOAD DUP2 PUSH1 0xFF MUL NOT AND SWAP1 DUP4 PUSH1 0xFF AND MUL OR SWAP1 SSTORE POP PUSH1 0x1 PUSH1 0x3 PUSH1 0x1 SWAP1 SLOAD SWAP1 PUSH2 0x100 EXP SWAP1 DIV PUSH1 0xFF AND PUSH1 0xFF AND EQ PUSH2 0x485 JUMPI PUSH1 0x1 PUSH2 0x488 JUMP JUMPDEST PUSH1 0x2 JUMPDEST PUSH1 0x3 PUSH1 0x1 PUSH2 0x100 EXP DUP2 SLOAD DUP2 PUSH1 0xFF MUL NOT AND SWAP1 DUP4 PUSH1 0xFF AND MUL OR SWAP1 SSTORE POP PUSH1 0x1 PUSH1 0x3 PUSH1 0x0 SWAP1 SLOAD SWAP1 PUSH2 0x100 EXP SWAP1 DIV PUSH1 0xFF AND PUSH1 0xFF AND EQ PUSH2 0x4C3 JUMPI PUSH1 0x1 PUSH2 0x4C6 JUMP JUMPDEST PUSH1 0x2 JUMPDEST PUSH1 0x3 PUSH1 0x0 PUSH2 0x100 EXP DUP2 SLOAD DUP2 PUSH1 0xFF MUL NOT AND SWAP1 DUP4 PUSH1 0xFF AND MUL OR SWAP1 SSTORE POP PUSH2 0x4E8 PUSH2 0xD73 JUMP JUMPDEST POP POP JUMP JUMPDEST PUSH1 0x0 JUMPDEST PUSH1 0x3 PUSH1 0xFF AND DUP2 PUSH1 0xFF AND LT ISZERO PUSH2 0x585 JUMPI PUSH1 0x0 JUMPDEST PUSH1 0x3 PUSH1 0xFF AND DUP2 PUSH1 0xFF AND LT ISZERO PUSH2 0x571 JUMPI PUSH1 0x0 DUP1 DUP4 PUSH1 0xFF AND PUSH1 0x3 DUP2 LT PUSH2 0x528 JUMPI PUSH2 0x527 PUSH2 0x14CF JUMP JUMPDEST JUMPDEST ADD DUP3 PUSH1 0xFF AND PUSH1 0x3 DUP2 LT PUSH2 0x53E JUMPI PUSH2 0x53D PUSH2 0x14CF JUMP JUMPDEST JUMPDEST PUSH1 0x20 SWAP2 DUP3 DUP3 DIV ADD SWAP2 SWAP1 MOD PUSH2 0x100 EXP DUP2 SLOAD DUP2 PUSH1 0xFF MUL NOT AND SWAP1 DUP4 PUSH1 0xFF AND MUL OR SWAP1 SSTORE POP DUP1 DUP1 PUSH2 0x569 SWAP1 PUSH2 0x1697 JUMP JUMPDEST SWAP2 POP POP PUSH2 0x501 JUMP JUMPDEST POP DUP1 DUP1 PUSH2 0x57D SWAP1 PUSH2 0x1697 JUMP JUMPDEST SWAP2 POP POP PUSH2 0x4EF JUMP JUMPDEST POP JUMP JUMPDEST PUSH1 0x0 DUP1 DUP4 PUSH1 0xFF AND PUSH1 0x3 DUP2 LT PUSH2 0x5A0 JUMPI PUSH2 0x59F PUSH2 0x14CF JUMP JUMPDEST JUMPDEST ADD DUP3 PUSH1 0xFF AND PUSH1 0x3 DUP2 LT PUSH2 0x5B6 JUMPI PUSH2 0x5B5 PUSH2 0x14CF JUMP JUMPDEST JUMPDEST PUSH1 0x20 SWAP2 DUP3 DUP3 DIV ADD SWAP2 SWAP1 MOD SWAP1 SLOAD SWAP1 PUSH2 0x100 EXP SWAP1 DIV PUSH1 0xFF AND PUSH1 0xFF AND EQ PUSH2 0x60F JUMPI PUSH1 0x40 MLOAD PUSH32 0x8C379A000000000000000000000000000000000000000000000000000000000 DUP2 MSTORE PUSH1 0x4 ADD PUSH2 0x606 SWAP1 PUSH2 0x170C JUMP JUMPDEST PUSH1 0x40 MLOAD DUP1 SWAP2 SUB SWAP1 REVERT JUMPDEST PUSH1 0x0 PUSH1 0x3 PUSH1 0x2 SWAP1 SLOAD SWAP1 PUSH2 0x100 EXP SWAP1 DIV PUSH1 0xFF AND PUSH1 0xFF AND EQ PUSH2 0x664 JUMPI PUSH1 0x40 MLOAD PUSH32 0x8C379A000000000000000000000000000000000000000000000000000000000 DUP2 MSTORE PUSH1 0x4 ADD PUSH2 0x65B SWAP1 PUSH2 0x1778 JUMP JUMPDEST PUSH1 0x40 MLOAD DUP1 SWAP2 SUB SWAP1 REVERT JUMPDEST PUSH1 0x3 PUSH1 0x0 SWAP1 SLOAD SWAP1 PUSH2 0x100 EXP SWAP1 DIV PUSH1 0xFF AND PUSH1 0x0 DUP4 PUSH1 0xFF AND PUSH1 0x3 DUP2 LT PUSH2 0x68B JUMPI PUSH2 0x68A PUSH2 0x14CF JUMP JUMPDEST JUMPDEST ADD DUP3 PUSH1 0xFF AND PUSH1 0x3 DUP2 LT PUSH2 0x6A1 JUMPI PUSH2 0x6A0 PUSH2 0x14CF JUMP JUMPDEST JUMPDEST PUSH1 0x20 SWAP2 DUP3 DUP3 DIV ADD SWAP2 SWAP1 MOD PUSH2 0x100 EXP DUP2 SLOAD DUP2 PUSH1 0xFF MUL NOT AND SWAP1 DUP4 PUSH1 0xFF AND MUL OR SWAP1 SSTORE POP PUSH1 0x1 PUSH1 0x3 PUSH1 0x0 SWAP1 SLOAD SWAP1 PUSH2 0x100 EXP SWAP1 DIV PUSH1 0xFF AND PUSH1 0xFF AND EQ PUSH2 0x6E2 JUMPI PUSH1 0x1 PUSH2 0x6E5 JUMP JUMPDEST PUSH1 0x2 JUMPDEST PUSH1 0x3 PUSH1 0x0 PUSH2 0x100 EXP DUP2 SLOAD DUP2 PUSH1 0xFF MUL NOT AND SWAP1 DUP4 PUSH1 0xFF AND MUL OR SWAP1 SSTORE POP PUSH1 0x0 JUMPDEST PUSH1 0x3 PUSH1 0xFF AND DUP2 PUSH1 0xFF AND LT ISZERO PUSH2 0x8BD JUMPI PUSH1 0x0 DUP2 PUSH1 0xFF AND PUSH1 0x3 DUP2 LT PUSH2 0x728 JUMPI PUSH2 0x727 PUSH2 0x14CF JUMP JUMPDEST JUMPDEST ADD PUSH1 0x1 PUSH1 0x3 DUP2 LT PUSH2 0x73C JUMPI PUSH2 0x73B PUSH2 0x14CF JUMP JUMPDEST JUMPDEST PUSH1 0x20 SWAP2 DUP3 DUP3 DIV ADD SWAP2 SWAP1 MOD SWAP1 SLOAD SWAP1 PUSH2 0x100 EXP SWAP1 DIV PUSH1 0xFF AND PUSH1 0xFF AND PUSH1 0x0 DUP3 PUSH1 0xFF AND PUSH1 0x3 DUP2 LT PUSH2 0x76C JUMPI PUSH2 0x76B PUSH2 0x14CF JUMP JUMPDEST JUMPDEST ADD PUSH1 0x0 PUSH1 0x3 DUP2 LT PUSH2 0x780 JUMPI PUSH2 0x77F PUSH2 0x14CF JUMP JUMPDEST JUMPDEST PUSH1 0x20 SWAP2 DUP3 DUP3 DIV ADD SWAP2 SWAP1 MOD SWAP1 SLOAD SWAP1 PUSH2 0x100 EXP SWAP1 DIV PUSH1 0xFF AND PUSH1 0xFF AND EQ DUP1 ISZERO PUSH2 0x82B JUMPI POP PUSH1 0x0 DUP2 PUSH1 0xFF AND PUSH1 0x3 DUP2 LT PUSH2 0x7B8 JUMPI PUSH2 0x7B7 PUSH2 0x14CF JUMP JUMPDEST JUMPDEST ADD PUSH1 0x2 PUSH1 0x3 DUP2 LT PUSH2 0x7CC JUMPI PUSH2 0x7CB PUSH2 0x14CF JUMP JUMPDEST JUMPDEST PUSH1 0x20 SWAP2 DUP3 DUP3 DIV ADD SWAP2 SWAP1 MOD SWAP1 SLOAD SWAP1 PUSH2 0x100 EXP SWAP1 DIV PUSH1 0xFF AND PUSH1 0xFF AND PUSH1 0x0 DUP3 PUSH1 0xFF AND PUSH1 0x3 DUP2 LT PUSH2 0x7FC JUMPI PUSH2 0x7FB PUSH2 0x14CF JUMP JUMPDEST JUMPDEST ADD PUSH1 0x1 PUSH1 0x3 DUP2 LT PUSH2 0x810 JUMPI PUSH2 0x80F PUSH2 0x14CF JUMP JUMPDEST JUMPDEST PUSH1 0x20 SWAP2 DUP3 DUP3 DIV ADD SWAP2 SWAP1 MOD SWAP1 SLOAD SWAP1 PUSH2 0x100 EXP SWAP1 DIV PUSH1 0xFF AND PUSH1 0xFF AND EQ JUMPDEST DUP1 ISZERO PUSH2 0x87A JUMPI POP PUSH1 0x0 DUP1 DUP3 PUSH1 0xFF AND PUSH1 0x3 DUP2 LT PUSH2 0x84A JUMPI PUSH2 0x849 PUSH2 0x14CF JUMP JUMPDEST JUMPDEST ADD PUSH1 0x2 PUSH1 0x3 DUP2 LT PUSH2 0x85E JUMPI PUSH2 0x85D PUSH2 0x14CF JUMP JUMPDEST JUMPDEST PUSH1 0x20 SWAP2 DUP3 DUP3 DIV ADD SWAP2 SWAP1 MOD SWAP1 SLOAD SWAP1 PUSH2 0x100 EXP SWAP1 DIV PUSH1 0xFF AND PUSH1 0xFF AND EQ ISZERO JUMPDEST ISZERO PUSH2 0x8AA JUMPI PUSH1 0x3 PUSH1 0x0 SWAP1 SLOAD SWAP1 PUSH2 0x100 EXP SWAP1 DIV PUSH1 0xFF AND PUSH1 0x3 PUSH1 0x2 PUSH2 0x100 EXP DUP2 SLOAD DUP2 PUSH1 0xFF MUL NOT AND SWAP1 DUP4 PUSH1 0xFF AND MUL OR SWAP1 SSTORE POP JUMPDEST DUP1 DUP1 PUSH2 0x8B5 SWAP1 PUSH2 0x1697 JUMP JUMPDEST SWAP2 POP POP PUSH2 0x702 JUMP JUMPDEST POP PUSH1 0x0 JUMPDEST PUSH1 0x3 PUSH1 0xFF AND DUP2 PUSH1 0xFF AND LT ISZERO PUSH2 0xA7B JUMPI PUSH1 0x0 PUSH1 0x1 PUSH1 0x3 DUP2 LT PUSH2 0x8E5 JUMPI PUSH2 0x8E4 PUSH2 0x14CF JUMP JUMPDEST JUMPDEST ADD DUP2 PUSH1 0xFF AND PUSH1 0x3 DUP2 LT PUSH2 0x8FB JUMPI PUSH2 0x8FA PUSH2 0x14CF JUMP JUMPDEST JUMPDEST PUSH1 0x20 SWAP2 DUP3 DUP3 DIV ADD SWAP2 SWAP1 MOD SWAP1 SLOAD SWAP1 PUSH2 0x100 EXP SWAP1 DIV PUSH1 0xFF AND PUSH1 0xFF AND PUSH1 0x0 DUP1 PUSH1 0x3 DUP2 LT PUSH2 0x928 JUMPI PUSH2 0x927 PUSH2 0x14CF JUMP JUMPDEST JUMPDEST ADD DUP3 PUSH1 0xFF AND PUSH1 0x3 DUP2 LT PUSH2 0x93E JUMPI PUSH2 0x93D PUSH2 0x14CF JUMP JUMPDEST JUMPDEST PUSH1 0x20 SWAP2 DUP3 DUP3 DIV ADD SWAP2 SWAP1 MOD SWAP1 SLOAD SWAP1 PUSH2 0x100 EXP SWAP1 DIV PUSH1 0xFF AND PUSH1 0xFF AND EQ DUP1 ISZERO PUSH2 0x9E9 JUMPI POP PUSH1 0x0 PUSH1 0x2 PUSH1 0x3 DUP2 LT PUSH2 0x974 JUMPI PUSH2 0x973 PUSH2 0x14CF JUMP JUMPDEST JUMPDEST ADD DUP2 PUSH1 0xFF AND PUSH1 0x3 DUP2 LT PUSH2 0x98A JUMPI PUSH2 0x989 PUSH2 0x14CF JUMP JUMPDEST JUMPDEST PUSH1 0x20 SWAP2 DUP3 DUP3 DIV ADD SWAP2 SWAP1 MOD SWAP1 SLOAD SWAP1 PUSH2 0x100 EXP SWAP1 DIV PUSH1 0xFF AND PUSH1 0xFF AND PUSH1 0x0 PUSH1 0x1 PUSH1 0x3 DUP2 LT PUSH2 0x9B8 JUMPI PUSH2 0x9B7 PUSH2 0x14CF JUMP JUMPDEST JUMPDEST ADD DUP3 PUSH1 0xFF AND PUSH1 0x3 DUP2 LT PUSH2 0x9CE JUMPI PUSH2 0x9CD PUSH2 0x14CF JUMP JUMPDEST JUMPDEST PUSH1 0x20 SWAP2 DUP3 DUP3 DIV ADD SWAP2 SWAP1 MOD SWAP1 SLOAD SWAP1 PUSH2 0x100 EXP SWAP1 DIV PUSH1 0xFF AND PUSH1 0xFF AND EQ JUMPDEST DUP1 ISZERO PUSH2 0xA38 JUMPI POP PUSH1 0x0 DUP1 PUSH1 0x2 PUSH1 0x3 DUP2 LT PUSH2 0xA06 JUMPI PUSH2 0xA05 PUSH2 0x14CF JUMP JUMPDEST JUMPDEST ADD DUP3 PUSH1 0xFF AND PUSH1 0x3 DUP2 LT PUSH2 0xA1C JUMPI PUSH2 0xA1B PUSH2 0x14CF JUMP JUMPDEST JUMPDEST PUSH1 0x20 SWAP2 DUP3 DUP3 DIV ADD SWAP2 SWAP1 MOD SWAP1 SLOAD SWAP1 PUSH2 0x100 EXP SWAP1 DIV PUSH1 0xFF AND PUSH1 0xFF AND EQ ISZERO JUMPDEST ISZERO PUSH2 0xA68 JUMPI PUSH1 0x3 PUSH1 0x0 SWAP1 SLOAD SWAP1 PUSH2 0x100 EXP SWAP1 DIV PUSH1 0xFF AND PUSH1 0x3 PUSH1 0x2 PUSH2 0x100 EXP DUP2 SLOAD DUP2 PUSH1 0xFF MUL NOT AND SWAP1 DUP4 PUSH1 0xFF AND MUL OR SWAP1 SSTORE POP JUMPDEST DUP1 DUP1 PUSH2 0xA73 SWAP1 PUSH2 0x1697 JUMP JUMPDEST SWAP2 POP POP PUSH2 0x8C1 JUMP JUMPDEST POP PUSH1 0x0 PUSH1 0x1 PUSH1 0x3 DUP2 LT PUSH2 0xA91 JUMPI PUSH2 0xA90 PUSH2 0x14CF JUMP JUMPDEST JUMPDEST ADD PUSH1 0x1 PUSH1 0x3 DUP2 LT PUSH2 0xAA5 JUMPI PUSH2 0xAA4 PUSH2 0x14CF JUMP JUMPDEST JUMPDEST PUSH1 0x20 SWAP2 DUP3 DUP3 DIV ADD SWAP2 SWAP1 MOD SWAP1 SLOAD SWAP1 PUSH2 0x100 EXP SWAP1 DIV PUSH1 0xFF AND PUSH1 0xFF AND PUSH1 0x0 DUP1 PUSH1 0x3 DUP2 LT PUSH2 0xAD2 JUMPI PUSH2 0xAD1 PUSH2 0x14CF JUMP JUMPDEST JUMPDEST ADD PUSH1 0x0 PUSH1 0x3 DUP2 LT PUSH2 0xAE6 JUMPI PUSH2 0xAE5 PUSH2 0x14CF JUMP JUMPDEST JUMPDEST PUSH1 0x20 SWAP2 DUP3 DUP3 DIV ADD SWAP2 SWAP1 MOD SWAP1 SLOAD SWAP1 PUSH2 0x100 EXP SWAP1 DIV PUSH1 0xFF AND PUSH1 0xFF AND EQ DUP1 ISZERO PUSH2 0xB8D JUMPI POP PUSH1 0x0 PUSH1 0x2 PUSH1 0x3 DUP2 LT PUSH2 0xB1C JUMPI PUSH2 0xB1B PUSH2 0x14CF JUMP JUMPDEST JUMPDEST ADD PUSH1 0x2 PUSH1 0x3 DUP2 LT PUSH2 0xB30 JUMPI PUSH2 0xB2F PUSH2 0x14CF JUMP JUMPDEST JUMPDEST PUSH1 0x20 SWAP2 DUP3 DUP3 DIV ADD SWAP2 SWAP1 MOD SWAP1 SLOAD SWAP1 PUSH2 0x100 EXP SWAP1 DIV PUSH1 0xFF AND PUSH1 0xFF AND PUSH1 0x0 PUSH1 0x1 PUSH1 0x3 DUP2 LT PUSH2 0xB5E JUMPI PUSH2 0xB5D PUSH2 0x14CF JUMP JUMPDEST JUMPDEST ADD PUSH1 0x1 PUSH1 0x3 DUP2 LT PUSH2 0xB72 JUMPI PUSH2 0xB71 PUSH2 0x14CF JUMP JUMPDEST JUMPDEST PUSH1 0x20 SWAP2 DUP3 DUP3 DIV ADD SWAP2 SWAP1 MOD SWAP1 SLOAD SWAP1 PUSH2 0x100 EXP SWAP1 DIV PUSH1 0xFF AND PUSH1 0xFF AND EQ JUMPDEST DUP1 ISZERO PUSH2 0xBDA JUMPI POP PUSH1 0x0 DUP1 PUSH1 0x2 PUSH1 0x3 DUP2 LT PUSH2 0xBAA JUMPI PUSH2 0xBA9 PUSH2 0x14CF JUMP JUMPDEST JUMPDEST ADD PUSH1 0x2 PUSH1 0x3 DUP2 LT PUSH2 0xBBE JUMPI PUSH2 0xBBD PUSH2 0x14CF JUMP JUMPDEST JUMPDEST PUSH1 0x20 SWAP2 DUP3 DUP3 DIV ADD SWAP2 SWAP1 MOD SWAP1 SLOAD SWAP1 PUSH2 0x100 EXP SWAP1 DIV PUSH1 0xFF AND PUSH1 0xFF AND EQ ISZERO JUMPDEST DUP1 PUSH2 0xD3F JUMPI POP PUSH1 0x0 PUSH1 0x1 PUSH1 0x3 DUP2 LT PUSH2 0xBF5 JUMPI PUSH2 0xBF4 PUSH2 0x14CF JUMP JUMPDEST JUMPDEST ADD PUSH1 0x1 PUSH1 0x3 DUP2 LT PUSH2 0xC09 JUMPI PUSH2 0xC08 PUSH2 0x14CF JUMP JUMPDEST JUMPDEST PUSH1 0x20 SWAP2 DUP3 DUP3 DIV ADD SWAP2 SWAP1 MOD SWAP1 SLOAD SWAP1 PUSH2 0x100 EXP SWAP1 DIV PUSH1 0xFF AND PUSH1 0xFF AND PUSH1 0x0 DUP1 PUSH1 0x3 DUP2 LT PUSH2 0xC36 JUMPI PUSH2 0xC35 PUSH2 0x14CF JUMP JUMPDEST JUMPDEST ADD PUSH1 0x2 PUSH1 0x3 DUP2 LT PUSH2 0xC4A JUMPI PUSH2 0xC49 PUSH2 0x14CF JUMP JUMPDEST JUMPDEST PUSH1 0x20 SWAP2 DUP3 DUP3 DIV ADD SWAP2 SWAP1 MOD SWAP1 SLOAD SWAP1 PUSH2 0x100 EXP SWAP1 DIV PUSH1 0xFF AND PUSH1 0xFF AND EQ DUP1 ISZERO PUSH2 0xCF1 JUMPI POP PUSH1 0x0 PUSH1 0x2 PUSH1 0x3 DUP2 LT PUSH2 0xC80 JUMPI PUSH2 0xC7F PUSH2 0x14CF JUMP JUMPDEST JUMPDEST ADD PUSH1 0x0 PUSH1 0x3 DUP2 LT PUSH2 0xC94 JUMPI PUSH2 0xC93 PUSH2 0x14CF JUMP JUMPDEST JUMPDEST PUSH1 0x20 SWAP2 DUP3 DUP3 DIV ADD SWAP2 SWAP1 MOD SWAP1 SLOAD SWAP1 PUSH2 0x100 EXP SWAP1 DIV PUSH1 0xFF AND PUSH1 0xFF AND PUSH1 0x0 PUSH1 0x1 PUSH1 0x3 DUP2 LT PUSH2 0xCC2 JUMPI PUSH2 0xCC1 PUSH2 0x14CF JUMP JUMPDEST JUMPDEST ADD PUSH1 0x1 PUSH1 0x3 DUP2 LT PUSH2 0xCD6 JUMPI PUSH2 0xCD5 PUSH2 0x14CF JUMP JUMPDEST JUMPDEST PUSH1 0x20 SWAP2 DUP3 DUP3 DIV ADD SWAP2 SWAP1 MOD SWAP1 SLOAD SWAP1 PUSH2 0x100 EXP SWAP1 DIV PUSH1 0xFF AND PUSH1 0xFF AND EQ JUMPDEST DUP1 ISZERO PUSH2 0xD3E JUMPI POP PUSH1 0x0 DUP1 PUSH1 0x2 PUSH1 0x3 DUP2 LT PUSH2 0xD0E JUMPI PUSH2 0xD0D PUSH2 0x14CF JUMP JUMPDEST JUMPDEST ADD PUSH1 0x0 PUSH1 0x3 DUP2 LT PUSH2 0xD22 JUMPI PUSH2 0xD21 PUSH2 0x14CF JUMP JUMPDEST JUMPDEST PUSH1 0x20 SWAP2 DUP3 DUP3 DIV ADD SWAP2 SWAP1 MOD SWAP1 SLOAD SWAP1 PUSH2 0x100 EXP SWAP1 DIV PUSH1 0xFF AND PUSH1 0xFF AND EQ ISZERO JUMPDEST JUMPDEST ISZERO PUSH2 0xD6F JUMPI PUSH1 0x3 PUSH1 0x0 SWAP1 SLOAD SWAP1 PUSH2 0x100 EXP SWAP1 DIV PUSH1 0xFF AND PUSH1 0x3 PUSH1 0x2 PUSH2 0x100 EXP DUP2 SLOAD DUP2 PUSH1 0xFF MUL NOT AND SWAP1 DUP4 PUSH1 0xFF AND MUL OR SWAP1 SSTORE POP JUMPDEST POP POP JUMP JUMPDEST PUSH1 0x0 PUSH1 0x3 SWAP1 POP PUSH1 0x0 JUMPDEST PUSH1 0x3 PUSH1 0xFF AND DUP2 PUSH1 0xFF AND LT ISZERO PUSH2 0xE6B JUMPI PUSH1 0x0 DUP1 JUMPDEST PUSH1 0x3 PUSH1 0xFF AND DUP2 PUSH1 0xFF AND LT ISZERO PUSH2 0xE1E JUMPI PUSH1 0x3 PUSH1 0x0 SWAP1 SLOAD SWAP1 PUSH2 0x100 EXP SWAP1 DIV PUSH1 0xFF AND PUSH1 0xFF AND PUSH1 0x0 DUP5 PUSH1 0xFF AND PUSH1 0x3 DUP2 LT PUSH2 0xDC8 JUMPI PUSH2 0xDC7 PUSH2 0x14CF JUMP JUMPDEST JUMPDEST ADD DUP3 PUSH1 0xFF AND PUSH1 0x3 DUP2 LT PUSH2 0xDDE JUMPI PUSH2 0xDDD PUSH2 0x14CF JUMP JUMPDEST JUMPDEST PUSH1 0x20 SWAP2 DUP3 DUP3 DIV ADD SWAP2 SWAP1 MOD SWAP1 SLOAD SWAP1 PUSH2 0x100 EXP SWAP1 DIV PUSH1 0xFF AND PUSH1 0xFF AND SUB PUSH2 0xE0B JUMPI DUP2 DUP1 PUSH2 0xE07 SWAP1 PUSH2 0x1697 JUMP JUMPDEST SWAP3 POP POP JUMPDEST DUP1 DUP1 PUSH2 0xE16 SWAP1 PUSH2 0x1697 JUMP JUMPDEST SWAP2 POP POP PUSH2 0xD8F JUMP JUMPDEST POP DUP3 PUSH1 0xFF AND DUP2 PUSH1 0xFF AND SUB PUSH2 0xE57 JUMPI PUSH1 0x3 PUSH1 0x0 SWAP1 SLOAD SWAP1 PUSH2 0x100 EXP SWAP1 DIV PUSH1 0xFF AND PUSH1 0x3 PUSH1 0x2 PUSH2 0x100 EXP DUP2 SLOAD DUP2 PUSH1 0xFF MUL NOT AND SWAP1 DUP4 PUSH1 0xFF AND MUL OR SWAP1 SSTORE POP JUMPDEST POP DUP1 DUP1 PUSH2 0xE63 SWAP1 PUSH2 0x1697 JUMP JUMPDEST SWAP2 POP POP PUSH2 0xD7C JUMP JUMPDEST POP PUSH1 0x0 JUMPDEST PUSH1 0x3 PUSH1 0xFF AND DUP2 PUSH1 0xFF AND LT ISZERO PUSH2 0xF5E JUMPI PUSH1 0x0 DUP1 JUMPDEST PUSH1 0x3 PUSH1 0xFF AND DUP2 PUSH1 0xFF AND LT ISZERO PUSH2 0xF11 JUMPI PUSH1 0x3 PUSH1 0x0 SWAP1 SLOAD SWAP1 PUSH2 0x100 EXP SWAP1 DIV PUSH1 0xFF AND PUSH1 0xFF AND PUSH1 0x0 DUP3 PUSH1 0xFF AND PUSH1 0x3 DUP2 LT PUSH2 0xEBB JUMPI PUSH2 0xEBA PUSH2 0x14CF JUMP JUMPDEST JUMPDEST ADD DUP5 PUSH1 0xFF AND PUSH1 0x3 DUP2 LT PUSH2 0xED1 JUMPI PUSH2 0xED0 PUSH2 0x14CF JUMP JUMPDEST JUMPDEST PUSH1 0x20 SWAP2 DUP3 DUP3 DIV ADD SWAP2 SWAP1 MOD SWAP1 SLOAD SWAP1 PUSH2 0x100 EXP SWAP1 DIV PUSH1 0xFF AND PUSH1 0xFF AND SUB PUSH2 0xEFE JUMPI DUP2 DUP1 PUSH2 0xEFA SWAP1 PUSH2 0x1697 JUMP JUMPDEST SWAP3 POP POP JUMPDEST DUP1 DUP1 PUSH2 0xF09 SWAP1 PUSH2 0x1697 JUMP JUMPDEST SWAP2 POP POP PUSH2 0xE82 JUMP JUMPDEST POP DUP3 PUSH1 0xFF AND DUP2 PUSH1 0xFF AND SUB PUSH2 0xF4A JUMPI PUSH1 0x3 PUSH1 0x0 SWAP1 SLOAD SWAP1 PUSH2 0x100 EXP SWAP1 DIV PUSH1 0xFF AND PUSH1 0x3 PUSH1 0x2 PUSH2 0x100 EXP DUP2 SLOAD DUP2 PUSH1 0xFF MUL NOT AND SWAP1 DUP4 PUSH1 0xFF AND MUL OR SWAP1 SSTORE POP JUMPDEST POP DUP1 DUP1 PUSH2 0xF56 SWAP1 PUSH2 0x1697 JUMP JUMPDEST SWAP2 POP POP PUSH2 0xE6F JUMP JUMPDEST POP PUSH1 0x0 DUP1 JUMPDEST PUSH1 0x3 PUSH1 0xFF AND DUP2 PUSH1 0xFF AND LT ISZERO PUSH2 0xFF2 JUMPI PUSH1 0x3 PUSH1 0x0 SWAP1 SLOAD SWAP1 PUSH2 0x100 EXP SWAP1 DIV PUSH1 0xFF AND PUSH1 0xFF AND PUSH1 0x0 DUP3 PUSH1 0xFF AND PUSH1 0x3 DUP2 LT PUSH2 0xF9C JUMPI PUSH2 0xF9B PUSH2 0x14CF JUMP JUMPDEST JUMPDEST ADD DUP3 PUSH1 0xFF AND PUSH1 0x3 DUP2 LT PUSH2 0xFB2 JUMPI PUSH2 0xFB1 PUSH2 0x14CF JUMP JUMPDEST JUMPDEST PUSH1 0x20 SWAP2 DUP3 DUP3 DIV ADD SWAP2 SWAP1 MOD SWAP1 SLOAD SWAP1 PUSH2 0x100 EXP SWAP1 DIV PUSH1 0xFF AND PUSH1 0xFF AND SUB PUSH2 0xFDF JUMPI DUP2 DUP1 PUSH2 0xFDB SWAP1 PUSH2 0x1697 JUMP JUMPDEST SWAP3 POP POP JUMPDEST DUP1 DUP1 PUSH2 0xFEA SWAP1 PUSH2 0x1697 JUMP JUMPDEST SWAP2 POP POP PUSH2 0xF63 JUMP JUMPDEST POP DUP2 PUSH1 0xFF AND DUP2 PUSH1 0xFF AND SUB PUSH2 0x102B JUMPI PUSH1 0x3 PUSH1 0x0 SWAP1 SLOAD SWAP1 PUSH2 0x100 EXP SWAP1 DIV PUSH1 0xFF AND PUSH1 0x3 PUSH1 0x2 PUSH2 0x100 EXP DUP2 SLOAD DUP2 PUSH1 0xFF MUL NOT AND SWAP1 DUP4 PUSH1 0xFF AND MUL OR SWAP1 SSTORE POP JUMPDEST PUSH1 0x0 SWAP1 POP PUSH1 0x0 JUMPDEST PUSH1 0x3 PUSH1 0xFF AND DUP2 PUSH1 0xFF AND LT ISZERO PUSH2 0x10D9 JUMPI PUSH1 0x3 PUSH1 0x0 SWAP1 SLOAD SWAP1 PUSH2 0x100 EXP SWAP1 DIV PUSH1 0xFF AND PUSH1 0xFF AND PUSH1 0x0 DUP3 PUSH1 0xFF AND PUSH1 0x3 DUP2 LT PUSH2 0x106B JUMPI PUSH2 0x106A PUSH2 0x14CF JUMP JUMPDEST JUMPDEST ADD PUSH1 0x1 DUP4 PUSH1 0x3 PUSH2 0x107B SWAP2 SWAP1 PUSH2 0x1798 JUMP JUMPDEST PUSH2 0x1085 SWAP2 SWAP1 PUSH2 0x1798 JUMP JUMPDEST PUSH1 0xFF AND PUSH1 0x3 DUP2 LT PUSH2 0x1099 JUMPI PUSH2 0x1098 PUSH2 0x14CF JUMP JUMPDEST JUMPDEST PUSH1 0x20 SWAP2 DUP3 DUP3 DIV ADD SWAP2 SWAP1 MOD SWAP1 SLOAD SWAP1 PUSH2 0x100 EXP SWAP1 DIV PUSH1 0xFF AND PUSH1 0xFF AND SUB PUSH2 0x10C6 JUMPI DUP2 DUP1 PUSH2 0x10C2 SWAP1 PUSH2 0x1697 JUMP JUMPDEST SWAP3 POP POP JUMPDEST DUP1 DUP1 PUSH2 0x10D1 SWAP1 PUSH2 0x1697 JUMP JUMPDEST SWAP2 POP POP PUSH2 0x1032 JUMP JUMPDEST POP DUP2 PUSH1 0xFF AND DUP2 PUSH1 0xFF AND SUB PUSH2 0x1112 JUMPI PUSH1 0x3 PUSH1 0x0 SWAP1 SLOAD SWAP1 PUSH2 0x100 EXP SWAP1 DIV PUSH1 0xFF AND PUSH1 0x3 PUSH1 0x2 PUSH2 0x100 EXP DUP2 SLOAD DUP2 PUSH1 0xFF MUL NOT AND SWAP1 DUP4 PUSH1 0xFF AND MUL OR SWAP1 SSTORE POP JUMPDEST POP POP JUMP JUMPDEST PUSH1 0x40 MLOAD DUP1 PUSH1 0x60 ADD PUSH1 0x40 MSTORE DUP1 PUSH1 0x3 SWAP1 JUMPDEST PUSH2 0x112D PUSH2 0x1143 JUMP JUMPDEST DUP2 MSTORE PUSH1 0x20 ADD SWAP1 PUSH1 0x1 SWAP1 SUB SWAP1 DUP2 PUSH2 0x1125 JUMPI SWAP1 POP POP SWAP1 JUMP JUMPDEST PUSH1 0x40 MLOAD DUP1 PUSH1 0x60 ADD PUSH1 0x40 MSTORE DUP1 PUSH1 0x3 SWAP1 PUSH1 0x20 DUP3 MUL DUP1 CALLDATASIZE DUP4 CALLDATACOPY DUP1 DUP3 ADD SWAP2 POP POP SWAP1 POP POP SWAP1 JUMP JUMPDEST PUSH1 0x0 PUSH1 0x3 SWAP1 POP SWAP2 SWAP1 POP JUMP JUMPDEST PUSH1 0x0 DUP2 SWAP1 POP SWAP3 SWAP2 POP POP JUMP JUMPDEST PUSH1 0x0 DUP2 SWAP1 POP SWAP2 SWAP1 POP JUMP JUMPDEST PUSH1 0x0 PUSH1 0x3 SWAP1 POP SWAP2 SWAP1 POP JUMP JUMPDEST PUSH1 0x0 DUP2 SWAP1 POP SWAP3 SWAP2 POP POP JUMP JUMPDEST PUSH1 0x0 DUP2 SWAP1 POP SWAP2 SWAP1 POP JUMP JUMPDEST PUSH1 0x0 PUSH1 0xFF DUP3 AND SWAP1 POP SWAP2 SWAP1 POP JUMP JUMPDEST PUSH2 0x11BB DUP2 PUSH2 0x11A5 JUMP JUMPDEST DUP3 MSTORE POP POP JUMP JUMPDEST PUSH1 0x0 PUSH2 0x11CD DUP4 DUP4 PUSH2 0x11B2 JUMP JUMPDEST PUSH1 0x20 DUP4 ADD SWAP1 POP SWAP3 SWAP2 POP POP JUMP JUMPDEST PUSH1 0x0 PUSH1 0x20 DUP3 ADD SWAP1 POP SWAP2 SWAP1 POP JUMP JUMPDEST PUSH2 0x11EF DUP2 PUSH2 0x1185 JUMP JUMPDEST PUSH2 0x11F9 DUP2 DUP5 PUSH2 0x1190 JUMP JUMPDEST SWAP3 POP PUSH2 0x1204 DUP3 PUSH2 0x119B JUMP JUMPDEST DUP1 PUSH1 0x0 JUMPDEST DUP4 DUP2 LT ISZERO PUSH2 0x1235 JUMPI DUP2 MLOAD PUSH2 0x121C DUP8 DUP3 PUSH2 0x11C1 JUMP JUMPDEST SWAP7 POP PUSH2 0x1227 DUP4 PUSH2 0x11D9 JUMP JUMPDEST SWAP3 POP POP PUSH1 0x1 DUP2 ADD SWAP1 POP PUSH2 0x1208 JUMP JUMPDEST POP POP POP POP POP POP JUMP JUMPDEST PUSH1 0x0 PUSH2 0x1249 DUP4 DUP4 PUSH2 0x11E6 JUMP JUMPDEST PUSH1 0x60 DUP4 ADD SWAP1 POP SWAP3 SWAP2 POP POP JUMP JUMPDEST PUSH1 0x0 PUSH1 0x20 DUP3 ADD SWAP1 POP SWAP2 SWAP1 POP JUMP JUMPDEST PUSH2 0x126B DUP2 PUSH2 0x1165 JUMP JUMPDEST PUSH2 0x1275 DUP2 DUP5 PUSH2 0x1170 JUMP JUMPDEST SWAP3 POP PUSH2 0x1280 DUP3 PUSH2 0x117B JUMP JUMPDEST DUP1 PUSH1 0x0 JUMPDEST DUP4 DUP2 LT ISZERO PUSH2 0x12B1 JUMPI DUP2 MLOAD PUSH2 0x1298 DUP8 DUP3 PUSH2 0x123D JUMP JUMPDEST SWAP7 POP PUSH2 0x12A3 DUP4 PUSH2 0x1255 JUMP JUMPDEST SWAP3 POP POP PUSH1 0x1 DUP2 ADD SWAP1 POP PUSH2 0x1284 JUMP JUMPDEST POP POP POP POP POP POP JUMP JUMPDEST PUSH1 0x0 PUSH2 0x120 DUP3 ADD SWAP1 POP PUSH2 0x12CF PUSH1 0x0 DUP4 ADD DUP5 PUSH2 0x1262 JUMP JUMPDEST SWAP3 SWAP2 POP POP JUMP JUMPDEST PUSH1 0x0 DUP2 SWAP1 POP SWAP2 SWAP1 POP JUMP JUMPDEST PUSH2 0x12E8 DUP2 PUSH2 0x12D5 JUMP JUMPDEST DUP3 MSTORE POP POP JUMP JUMPDEST PUSH1 0x0 PUSH1 0x20 DUP3 ADD SWAP1 POP PUSH2 0x1303 PUSH1 0x0 DUP4 ADD DUP5 PUSH2 0x12DF JUMP JUMPDEST SWAP3 SWAP2 POP POP JUMP JUMPDEST PUSH1 0x0 DUP1 REVERT JUMPDEST PUSH2 0x1317 DUP2 PUSH2 0x11A5 JUMP JUMPDEST DUP2 EQ PUSH2 0x1322 JUMPI PUSH1 0x0 DUP1 REVERT JUMPDEST POP JUMP JUMPDEST PUSH1 0x0 DUP2 CALLDATALOAD SWAP1 POP PUSH2 0x1334 DUP2 PUSH2 0x130E JUMP JUMPDEST SWAP3 SWAP2 POP POP JUMP JUMPDEST PUSH1 0x0 DUP1 PUSH1 0x40 DUP4 DUP6 SUB SLT ISZERO PUSH2 0x1351 JUMPI PUSH2 0x1350 PUSH2 0x1309 JUMP JUMPDEST JUMPDEST PUSH1 0x0 PUSH2 0x135F DUP6 DUP3 DUP7 ADD PUSH2 0x1325 JUMP JUMPDEST SWAP3 POP POP PUSH1 0x20 PUSH2 0x1370 DUP6 DUP3 DUP7 ADD PUSH2 0x1325 JUMP JUMPDEST SWAP2 POP POP SWAP3 POP SWAP3 SWAP1 POP JUMP JUMPDEST PUSH1 0x0 DUP3 DUP3 MSTORE PUSH1 0x20 DUP3 ADD SWAP1 POP SWAP3 SWAP2 POP POP JUMP JUMPDEST PUSH32 0x4F79756E2062697474692E000000000000000000000000000000000000000000 PUSH1 0x0 DUP3 ADD MSTORE POP JUMP JUMPDEST PUSH1 0x0 PUSH2 0x13C1 PUSH1 0xB DUP4 PUSH2 0x137A JUMP JUMPDEST SWAP2 POP PUSH2 0x13CC DUP3 PUSH2 0x138B JUMP JUMPDEST PUSH1 0x20 DUP3 ADD SWAP1 POP SWAP2 SWAP1 POP JUMP JUMPDEST PUSH1 0x0 PUSH1 0x20 DUP3 ADD SWAP1 POP DUP2 DUP2 SUB PUSH1 0x0 DUP4 ADD MSTORE PUSH2 0x13F0 DUP2 PUSH2 0x13B4 JUMP JUMPDEST SWAP1 POP SWAP2 SWAP1 POP JUMP JUMPDEST PUSH32 0x5820706F7A6973796F6E7520676563657273697A2E0000000000000000000000 PUSH1 0x0 DUP3 ADD MSTORE POP JUMP JUMPDEST PUSH1 0x0 PUSH2 0x142D PUSH1 0x15 DUP4 PUSH2 0x137A JUMP JUMPDEST SWAP2 POP PUSH2 0x1438 DUP3 PUSH2 0x13F7 JUMP JUMPDEST PUSH1 0x20 DUP3 ADD SWAP1 POP SWAP2 SWAP1 POP JUMP JUMPDEST PUSH1 0x0 PUSH1 0x20 DUP3 ADD SWAP1 POP DUP2 DUP2 SUB PUSH1 0x0 DUP4 ADD MSTORE PUSH2 0x145C DUP2 PUSH2 0x1420 JUMP JUMPDEST SWAP1 POP SWAP2 SWAP1 POP JUMP JUMPDEST PUSH32 0x5920706F7A6973796F6E7520676563657273697A2E0000000000000000000000 PUSH1 0x0 DUP3 ADD MSTORE POP JUMP JUMPDEST PUSH1 0x0 PUSH2 0x1499 PUSH1 0x15 DUP4 PUSH2 0x137A JUMP JUMPDEST SWAP2 POP PUSH2 0x14A4 DUP3 PUSH2 0x1463 JUMP JUMPDEST PUSH1 0x20 DUP3 ADD SWAP1 POP SWAP2 SWAP1 POP JUMP JUMPDEST PUSH1 0x0 PUSH1 0x20 DUP3 ADD SWAP1 POP DUP2 DUP2 SUB PUSH1 0x0 DUP4 ADD MSTORE PUSH2 0x14C8 DUP2 PUSH2 0x148C JUMP JUMPDEST SWAP1 POP SWAP2 SWAP1 POP JUMP JUMPDEST PUSH32 0x4E487B7100000000000000000000000000000000000000000000000000000000 PUSH1 0x0 MSTORE PUSH1 0x32 PUSH1 0x4 MSTORE PUSH1 0x24 PUSH1 0x0 REVERT JUMPDEST PUSH32 0x4275206B61726520646F6C752E00000000000000000000000000000000000000 PUSH1 0x0 DUP3 ADD MSTORE POP JUMP JUMPDEST PUSH1 0x0 PUSH2 0x1534 PUSH1 0xD DUP4 PUSH2 0x137A JUMP JUMPDEST SWAP2 POP PUSH2 0x153F DUP3 PUSH2 0x14FE JUMP JUMPDEST PUSH1 0x20 DUP3 ADD SWAP1 POP SWAP2 SWAP1 POP JUMP JUMPDEST PUSH1 0x0 PUSH1 0x20 DUP3 ADD SWAP1 POP DUP2 DUP2 SUB PUSH1 0x0 DUP4 ADD MSTORE PUSH2 0x1563 DUP2 PUSH2 0x1527 JUMP JUMPDEST SWAP1 POP SWAP2 SWAP1 POP JUMP JUMPDEST PUSH32 0x4275207369726164616B69206F79756E63752073697A20646567696C73696E69 PUSH1 0x0 DUP3 ADD MSTORE PUSH32 0x7A2E000000000000000000000000000000000000000000000000000000000000 PUSH1 0x20 DUP3 ADD MSTORE POP JUMP JUMPDEST PUSH1 0x0 PUSH2 0x15C6 PUSH1 0x22 DUP4 PUSH2 0x137A JUMP JUMPDEST SWAP2 POP PUSH2 0x15D1 DUP3 PUSH2 0x156A JUMP JUMPDEST PUSH1 0x40 DUP3 ADD SWAP1 POP SWAP2 SWAP1 POP JUMP JUMPDEST PUSH1 0x0 PUSH1 0x20 DUP3 ADD SWAP1 POP DUP2 DUP2 SUB PUSH1 0x0 DUP4 ADD MSTORE PUSH2 0x15F5 DUP2 PUSH2 0x15B9 JUMP JUMPDEST SWAP1 POP SWAP2 SWAP1 POP JUMP JUMPDEST PUSH32 0x59657465726C69206F64656D6520796170696C6D616D69732E00000000000000 PUSH1 0x0 DUP3 ADD MSTORE POP JUMP JUMPDEST PUSH1 0x0 PUSH2 0x1632 PUSH1 0x19 DUP4 PUSH2 0x137A JUMP JUMPDEST SWAP2 POP PUSH2 0x163D DUP3 PUSH2 0x15FC JUMP JUMPDEST PUSH1 0x20 DUP3 ADD SWAP1 POP SWAP2 SWAP1 POP JUMP JUMPDEST PUSH1 0x0 PUSH1 0x20 DUP3 ADD SWAP1 POP DUP2 DUP2 SUB PUSH1 0x0 DUP4 ADD MSTORE PUSH2 0x1661 DUP2 PUSH2 0x1625 JUMP JUMPDEST SWAP1 POP SWAP2 SWAP1 POP JUMP JUMPDEST PUSH32 0x4E487B7100000000000000000000000000000000000000000000000000000000 PUSH1 0x0 MSTORE PUSH1 0x11 PUSH1 0x4 MSTORE PUSH1 0x24 PUSH1 0x0 REVERT JUMPDEST PUSH1 0x0 PUSH2 0x16A2 DUP3 PUSH2 0x11A5 JUMP JUMPDEST SWAP2 POP PUSH1 0xFF DUP3 SUB PUSH2 0x16B5 JUMPI PUSH2 0x16B4 PUSH2 0x1668 JUMP JUMPDEST JUMPDEST PUSH1 0x1 DUP3 ADD SWAP1 POP SWAP2 SWAP1 POP JUMP JUMPDEST PUSH32 0x427520616C616E207A6174656E20646F6C750000000000000000000000000000 PUSH1 0x0 DUP3 ADD MSTORE POP JUMP JUMPDEST PUSH1 0x0 PUSH2 0x16F6 PUSH1 0x12 DUP4 PUSH2 0x137A JUMP JUMPDEST SWAP2 POP PUSH2 0x1701 DUP3 PUSH2 0x16C0 JUMP JUMPDEST PUSH1 0x20 DUP3 ADD SWAP1 POP SWAP2 SWAP1 POP JUMP JUMPDEST PUSH1 0x0 PUSH1 0x20 DUP3 ADD SWAP1 POP DUP2 DUP2 SUB PUSH1 0x0 DUP4 ADD MSTORE PUSH2 0x1725 DUP2 PUSH2 0x16E9 JUMP JUMPDEST SWAP1 POP SWAP2 SWAP1 POP JUMP JUMPDEST PUSH32 0x4F79756E207A6174656E20626974746900000000000000000000000000000000 PUSH1 0x0 DUP3 ADD MSTORE POP JUMP JUMPDEST PUSH1 0x0 PUSH2 0x1762 PUSH1 0x10 DUP4 PUSH2 0x137A JUMP JUMPDEST SWAP2 POP PUSH2 0x176D DUP3 PUSH2 0x172C JUMP JUMPDEST PUSH1 0x20 DUP3 ADD SWAP1 POP SWAP2 SWAP1 POP JUMP JUMPDEST PUSH1 0x0 PUSH1 0x20 DUP3 ADD SWAP1 POP DUP2 DUP2 SUB PUSH1 0x0 DUP4 ADD MSTORE PUSH2 0x1791 DUP2 PUSH2 0x1755 JUMP JUMPDEST SWAP1 POP SWAP2 SWAP1 POP JUMP JUMPDEST PUSH1 0x0 PUSH2 0x17A3 DUP3 PUSH2 0x11A5 JUMP JUMPDEST SWAP2 POP PUSH2 0x17AE DUP4 PUSH2 0x11A5 JUMP JUMPDEST SWAP3 POP DUP3 DUP3 SUB SWAP1 POP PUSH1 0xFF DUP2 GT ISZERO PUSH2 0x17C7 JUMPI PUSH2 0x17C6 PUSH2 0x1668 JUMP JUMPDEST JUMPDEST SWAP3 SWAP2 POP POP JUMP INVALID LOG2 PUSH5 0x6970667358 0x22 SLT KECCAK256 SWAP10 0xDA DUP14 PUSH5 0xAC053FB073 DUP12 0x5C 0xBE 0xED DIFFICULTY PUSH21 0x892689515C92FCBFEF238FABA514E0CAD164736F6C PUSH4 0x43000811 STOP CALLER "
				},
				"gasEstimates": {
					"creation": {
						"codeDepositCost": "1229400",
						"executionCost": "infinite",
						"totalCost": "infinite"
					},
					"external": {
						"getBoard()": "infinite",
						"move(uint8,uint8)": "infinite",
						"play(uint8,uint8)": "infinite",
						"startGame()": "infinite",
						"winnerPlayer()": "2529"
					},
					"internal": {
						"checkForWin()": "infinite"
					}
				},
				"methodIdentifiers": {
					"getBoard()": "3264a34b",
					"move(uint8,uint8)": "701bd985",
					"play(uint8,uint8)": "e802c36f",
					"startGame()": "d65ab5f2",
					"winnerPlayer()": "654b878d"
				}
			},
			"storageLayout": {
				"storage": [
					{
						"astId": 10,
						"contract": "contract/tic_tac_toe.sol:TicTacToe",
						"label": "board",
						"offset": 0,
						"slot": "0",
						"type": "t_array(t_array(t_uint8)3_storage)3_storage"
					},
					{
						"astId": 12,
						"contract": "contract/tic_tac_toe.sol:TicTacToe",
						"label": "lastPlayer",
						"offset": 0,
						"slot": "3",
						"type": "t_uint8"
					},
					{
						"astId": 14,
						"contract": "contract/tic_tac_toe.sol:TicTacToe",
						"label": "player",
						"offset": 1,
						"slot": "3",
						"type": "t_uint8"
					},
					{
						"astId": 16,
						"contract": "contract/tic_tac_toe.sol:TicTacToe",
						"label": "winner",
						"offset": 2,
						"slot": "3",
						"type": "t_uint8"
					},
					{
						"astId": 18,
						"contract": "contract/tic_tac_toe.sol:TicTacToe",
						"label": "bid",
						"offset": 3,
						"slot": "3",
						"type": "t_uint8"
					}
				],
				"types": {
					"t_array(t_array(t_uint8)3_storage)3_storage": {
						"base": "t_array(t_uint8)3_storage",
						"encoding": "inplace",
						"label": "uint8[3][3]",
						"numberOfBytes": "96"
					},
					"t_array(t_uint8)3_storage": {
						"base": "t_uint8",
						"encoding": "inplace",
						"label": "uint8[3]",
						"numberOfBytes": "32"
					},
					"t_uint8": {
						"encoding": "inplace",
						"label": "uint8",
						"numberOfBytes": "1"
					}
				}
			},
			"userdoc": {
				"kind": "user",
				"methods": {},
				"version": 1
			}
		}
	}
}